:020000040800F2
:100000000000022061800008710400087D040008DF
:10001000850400088D040008950400080000000015
:100020000000000000000000000000009D04000827
:10003000A904000800000000B5040008C10400087D
:10004000B1800008B1800008B1800008B1800008CC
:10005000B1800008B18000086D0A0008B180000876
:10006000B1800008B1800008B1800008B1800008AC
:10007000B1800008B1800008B1800008B18000089C
:10008000B1800008B1800008B1800008B18000088C
:10009000B1800008B1800008B1800008B18000087C
:1000A000B1800008B1800008B1800008B18000086C
:1000B000B1800008B1800008B1800008B18000085C
:1000C000B1800008B1800008B1800008B18000084C
:1000D000B1800008B1800008B1800008B18000083C
:1000E000B1800008B1800008150A0008B18000083E
:1000F000B1800008B1800008B1800008B18000081C
:10010000B1800008B1800008B1800008B18000080B
:10011000B1800008B1800008B1800008B1800008FB
:10012000B1800008B1800008B1800008B1800008EB
:10013000B1800008B1800008B1800008B1800008DB
:10014000B1800008B1800008B1800008590A000899
:10015000B1800008B1800008B1800008B1800008BB
:10016000B1800008B1800008B1800008B1800008AB
:10017000B1800008B1800008B1800008B18000089B
:08018000B1800008B180000805
:1001880010B5054C237833B9044810B10448AFF3CF
:1001980000800121217010BD140A00200000000019
:1001A800F0E5000808B5064B1BB106480649AFF351
:1001B80000800648016811B1054A02B1904708BDA0
:1001C80000000000F0E50008180A0020100A0020CE
:1001D80000000000154B002B08BF134B9D46A3F5EC
:1001E800803A00218B460F461348144A121A07F02A
:1001F80049FD0F4B002B00D098470E4B002B00D029
:1002080098470020002104460D4600200C49002292
:10021800002307F05FFC07F0EBFC2046294600F0BE
:1002280011F807F0ADFC00BF000008000000000056
:100238000000000000000000140A002074190020CB
:10024800A97B000890B58BB002AF00F03BF94FF0E6
:1002580008004FF0010101F0ADFF4FF470437B61DE
:100268004FF001033B764FF00003BB764FF00203DB
:100278007B764FF00003FB7607F114034FF44060E0
:10028800C4F20200194601F01DFA4FF001004FF0C8
:10029800010101F08FFF4FF001037B614FF0000374
:1002A8003B764FF00003BB764FF002037B764FF0AE
:1002B8000203FB7607F114034FF00000C4F20200BA
:1002C800194601F0FFF940F27403C2F200030093EB
:1002D80040F6AC20C2F200004FF0010140F23402B7
:1002E800C2F2000240F2FC03C2F2000305F07CFCFB
:1002F80000E000BF00F056FD0346002B00F09E8092
:1003080000F068FD0346FB77FB7FA3F13303032B63
:1003180000F2948001A252F823F000BF35030008D0
:1003280079030008BD030008010400084FF4406089
:10033800C4F202004FF4805101F040FBFC7F4FF4FF
:100348004060C4F202004FF4805101F09DFA034668
:1003580007F1040210464EF27031C0F60001224641
:1003680007F0C6FE07F10403184600F0BFFC65E07D
:100378004FF44060C4F202004FF4005101F01EFB3C
:10038800FC7F4FF44060C4F202004FF4005101F0CA
:100398007BFA034607F1040210464EF27031C0F6AC
:1003A8000001224607F0A4FE07F10403184600F0F6
:1003B8009DFC43E04FF44060C4F202004FF48041DA
:1003C80001F0FCFAFC7F4FF44060C4F202004FF4E5
:1003D800804101F059FA034607F1040210464EF233
:1003E8007031C0F60001224607F082FE07F10403CF
:1003F800184600F07BFC21E04FF44060C4F2020094
:100408004FF4004101F0DAFAFC7F4FF44060C4F287
:1004180002004FF4004101F037FA034607F10402E5
:1004280010464EF27031C0F60001224607F060FE19
:1004380007F10403184600F059FC00BF4FF0000014
:10044800C4F202004FF0010101F01EFA0346002B2E
:100458003FF44FAF4FF44060C4F202004FF47041D4
:1004680001F0ACFA45E700BF80B400AFBD4680BCE0
:10047800704700BF80B400AFFEE700BF80B400AF94
:10048800FEE700BF80B400AFFEE700BF80B400AF56
:10049800FEE700BF80B400AFBD4680BC704700BF18
:1004A80080B400AFBD4680BC704700BF80B400AFC9
:1004B800BD4680BC704700BF80B400AFBD4680BC5D
:1004C800704700BF80B500AF4FF46053C4F2020319
:1004D8004FF46052C4F20202126842F001021A603C
:1004E8004FF46053C4F202034FF000029A604FF4D5
:1004F8006053C4F202034FF46052C4F2020212685D
:1005080022F0847222F480321A604FF46053C4F2ED
:10051800020343F21002C2F200425A604FF46053E1
:10052800C4F202034FF46052C4F20202126822F4C9
:1005380080221A604FF46053C4F202034FF00002A5
:10054800DA6000F0C1F84FF46D43CEF200034FF0CB
:1005580000629A6080BD00BF80B487B000AF4FF0E2
:1005680000033B614FF000037B614FF00203FB6027
:100578004FF00003BB604FF002037B604FF4605301
:10058800C4F202039B6803F00C033B613B69042B34
:100598000DD0082B15D0002B69D140F20403C2F20C
:1005A80000034FF41052C0F2F4021A6069E040F2FE
:1005B8000403C2F200034FF49052C0F27A021A60A8
:1005C8005FE04FF46053C4F202035B6803F48003F6
:1005D8004FEA9353BB604FF46053C4F202035B6865
:1005E80003F03F037B60BB68002B14D04FF490539B
:1005F800C0F27A037A68B3FBF2F24FF46053C4F2A4
:100608000203596847F6C0730B404FEA931303FB84
:1006180002F37B6113E04FF41053C0F2F4037A68DD
:10062800B3FBF2F24FF46053C4F20203596847F681
:10063800C0730B404FEA931303FB02F37B614FF443
:100648006053C4F202035B6803F440334FEA134378
:1006580003F101034FEA4303FB607A69FB68B2FBCD
:10066800F3F240F20403C2F200031A6009E040F218
:100678000403C2F200034FF41052C0F2F4021A60ED
:1006880000BF4FF46053C4F202039B6803F0F00309
:100698004FEA131240F20803C2F200039B5CDBB27C
:1006A8003B6140F20403C2F200031A683B6922FA74
:1006B80003F240F20403C2F200031A6007F11C07B8
:1006C800BD4680BC704700BF80B483B000AF4FF018
:1006D80000037B604FF000033B604FF46053C4F2AB
:1006E80002034FF46052C4F20202126842F48032EC
:1006F8001A604FF46053C4F202031B6803F400331A
:100708003B607B6803F101037B603B68002B03D1EE
:100718007B68B3F5A06FECD14FF46053C4F20203C9
:100728001B6803F40033002B03D04FF001033B6038
:1007380002E04FF000033B603B68012B40F08280F1
:100748004FF46053C4F202034FF46052C4F2020241
:10075800126C42F080521A644FF4E043C4F2000372
:100768004FF4E042C4F20002126842F480421A6078
:100778004FF46053C4F202034FF46052C4F2020211
:1007880092689A604FF46053C4F202034FF46052C7
:10079800C4F20202926842F400429A604FF4605335
:1007A800C4F202034FF46052C4F20202926842F4A7
:1007B800A0529A604FF46053C4F2020345F2084213
:1007C800C0F240725A604FF46053C4F202034FF40F
:1007D8006052C4F20202126842F080721A6000BFCE
:1007E8004FF46053C4F202031B6803F00073002B3C
:1007F800F6D04FF47053C4F2020340F205621A6057
:100808004FF46053C4F202034FF46052C4F2020280
:10081800926822F003029A604FF46053C4F2020314
:100828004FF46052C4F20202926842F002029A60E7
:1008380000BF4FF46053C4F202039B6803F00C033B
:10084800082BF6D107F10C07BD4680BC704700BFE6
:1008580080B584B000AF78604FF001004FF001011F
:1008680001F0A8FC4FF4D853BB604FF003037B732F
:100878004FF002033B734FF00003BB734FF00003CC
:10088800FB7307F108034FF00000C4F20200194699
:1008980000F018FF4FF00000C4F202004FF008010A
:1008A8004FF00A0201F09CF84FF00000C4F2020079
:1008B8004FF009014FF00A0201F092F84FF00000E2
:1008C800C4F202004FF00B014FF00A0201F088F861
:1008D8004FF00000C4F202004FF00C014FF00A0282
:1008E80001F07EF84FF48063BB604FF00103BB73E7
:1008F8004FF00103FB734FF003037B7307F1080309
:100908004FF00000C4F20200194600F0DBFE4FF081
:100918000000C4F202004FF00A014FF00A0201F091
:100928005FF84FF480404FF0010101F0EBFC4FF00D
:1009380080004FF0010101F067FC4FF080504FF04C
:10094800010101F087FD4FF0010000F0EFFD07F114
:100958001007BD4680BD00BF80B584B000AF786089
:100968004FF4C06001F056FF4FF043033B734FF064
:1009780001037B734FF00303BB734FF00103FB7359
:1009880007F10C03184601F059FF07F11007BD469F
:1009980080BD00BF80B485B000AF78604FF0000321
:1009A800FB607A6813464FEA03139B1A4FEAC303A6
:1009B8001A4644F62513C2F29243A3FB0213D21A35
:1009C8004FEA52029B184FEA9303BB6000E000BF56
:1009D800FB6803F10103FB60FA68BB689A42F6D929
:1009E80000BF07F11407BD4680BC704780B582B0D0
:1009F80000AF78607B684FF47A7202FB03F3184605
:100A0800FFF7C8FF07F10807BD4680BD80B500AFF6
:100A180040F6AC23C2F200039B7A002B13D04EF6AB
:100A28001053CEF200034EF61052CEF200021268B6
:100A380022F006021A60FFF745FD40F6AC20C2F22C
:100A4800000003F065FB4FF4802000F06FFD80BDCF
:100A580080B500AF40F6AC20C2F2000003F0D4FF2E
:100A680080BD00BF80B500AF4FF0010000F05EFD13
:100A780080BD00BF80B400AF4FF000031846BD46EC
:100A880080BC704780B400AF4FF000031846BD46E5
:100A980080BC704780B485B000AFF860B9607A60F8
:100AA800FB68232B00F2CF8001A252F823F000BF8D
:100AB8004F0C00084F0C00084F0C00084F0C0008A2
:100AC8004F0C00084F0C00084F0C00084F0C000892
:100AD8004F0C00084F0C00084F0C00084F0C000882
:100AE8004F0C00084F0C00084F0C00084F0C000872
:100AF8004F0C00084F0C00084F0C00084F0C000862
:100B08004F0C00084F0C00084F0C00084F0C000851
:100B18004F0C00084F0C00084F0C00084F0C000841
:100B28004F0C00084F0C00084F0C00084F0C000831
:100B3800490B0008BF0B00084F0C00084F0C0008B9
:100B4800BB681B781A46BB6803F101031B784FEAA0
:100B580003231A43BB6803F102031B784FEA0343DC
:100B68001A43BB6803F103031B784FEA036313437B
:100B78001A4640F21803C2F200031A60BB681A79D9
:100B880040F21803C2F200031A71BB685A7940F2A6
:100B98001803C2F200035A71BB689A7940F218032D
:100BA800C2F200039A7140F63423C2F200034FF0F8
:100BB80000021A6048E040F21803C2F200031B6802
:100BC800DAB2BB681A70BB6803F1010240F218037D
:100BD800C2F200031B684FEA1323DBB21370BB6831
:100BE80003F1020240F21803C2F200031B684FEA45
:100BF8001343DBB21370BB6803F1030240F218031E
:100C0800C2F200031B684FEA1363DBB21370BB68C0
:100C180003F1040240F21803C2F200031B791370B7
:100C2800BB6803F1050240F21803C2F200035B79C6
:100C38001370BB6803F1060240F21803C2F2000306
:100C48009B79137000E000BF4FF00003184607F1CE
:100C58001407BD4680BC704780B483B000AF78608D
:100C68002BE040F63C23C2F200031A687B6819782F
:100C780041F23C13C2F2000399547B6803F101036B
:100C88007B6040F63C23C2F200031B6803F10102BB
:100C980040F63C23C2F200031A6040F63C23C2F23D
:100CA80000031A6840F2FF739A4206D940F63C23C3
:100CB800C2F200034FF000021A607B681B78002B19
:100CC800CFD14FF00003184607F10C07BD4680BC92
:100CD800704700BF80B582B000AF78607868FFF7D2
:100CE800BBFF07F10807BD4680BD00BF80B582B0D5
:100CF80000AF78607868FFF7AFFF07F10807BD46D7
:100D080080BD00BF80B485B000AF786039604FF017
:100D18000003FB603AE041F2A803C2F200031A683C
:100D28007968FB68CB18197841F29C03C2F200037A
:100D3800995441F2A803C2F200031B6803F10102AF
:100D480041F2A803C2F200031A6041F2A803C2F2FA
:100D580000031B68082B06D141F2A803C2F2000366
:100D68004FF000021A6041F2A803C2F200031A68A9
:100D780041F2A403C2F200031B689A4202D14FF069
:100D8800020309E0FB6803F10103FB60FA683B68B2
:100D98009A42C0D34FF00003184607F11407BD4626
:100DA80080BC704780B400AF41F2A803C2F20003D0
:100DB8001A6841F2A403C2F200031B689A4202D1E6
:100DC8004FF0000301E04FF001031846BD4680BC18
:100DD800704700BF80B483B000AF41F2A403C2F2F1
:100DE80000031A6841F29C03C2F200039B5CFB718A
:100DF80041F2A403C2F200031B6803F1010241F2AD
:100E0800A403C2F200031A6041F2A403C2F2000371
:100E18001B68082B06D141F2A403C2F200034FF06D
:100E280000021A60FB79184607F10C07BD4680BC22
:100E3800704700BF80B483B000AF03463960FB71D0
:100E48003B684FF012021A8040F25003C2F20003CE
:100E5800184607F10C07BD4680BC704780B483B0C4
:100E680000AF03463960FB713B684FF004021A80FB
:100E780040F27003C2F20003184607F10C07BD46A2
:100E880080BC704780B582B000AF03463960FB7103
:100E9800FB79002B0BD14EF28030C0F6000041F6F2
:100EA8003C11C2F200013A6805F040FE0AE04EF239
:100EB8009830C0F6000041F63C11C2F200013A68D1
:100EC80005F034FE41F63C13C2F20003184607F160
:100ED8000807BD4680BD00BF80B582B000AF03469D
:100EE8003960FB714EF2B030C0F6000041F63C119B
:100EF800C2F200013A6805F019FE41F63C13C2F24D
:100F08000003184607F10807BD4680BD80B582B0CA
:100F180000AF03463960FB71FB79002B0BD14EF211
:100F2800B830C0F6000041F63C11C2F200013A6840
:100F380005F0FCFD0AE04EF2C830C0F6000041F6AC
:100F48003C11C2F200013A6805F0F0FD41F63C138D
:100F5800C2F20003184607F10807BD4680BD00BF6E
:100F680080B582B000AF03463960FB71FB79002B76
:100F78000BD14EF2D830C0F6000041F63C11C2F257
:100F880000013A6805F0D2FD0AE04EF2D830C0F60A
:100F9800000041F63C11C2F200013A6805F0C6FDB6
:100FA80041F63C13C2F20003184607F10807BD4694
:100FB80080BD00BF80B582B000AF03463960FB71C9
:100FC800FB79002B0BD14EF2E430C0F6000041F65D
:100FD8003C11C2F200013A6805F0A8FD0AE04EF2A1
:100FE800E430C0F6000041F63C11C2F200013A6854
:100FF80005F09CFD41F63C13C2F20003184607F1C8
:101008000807BD4680BD00BF80B400AFBD4680BCA8
:10101800704700BF80B483B000AF0346FB7107F18F
:101028000C07BD4680BC704780B400AFBD4680BC8D
:10103800704700BF80B400AFBD4680BC704700BF9A
:1010480080B400AFBD4680BC704700BF80B584B097
:1010580000AF0346FB71FA794EF2FC33C0F6000389
:1010680053F8223018464FF0010101F0A3F8FA793D
:101078004EF2F433C0F6000333F81230BB604FF081
:1010880001033B734FF00003BB734FF00103FB7385
:101098004FF002037B73FA7940F29003C2F2000327
:1010A80053F8222007F108031046194600F00AFBFE
:1010B80007F11007BD4680BD80B483B000AF03467A
:1010C800FB71FA7940F29003C2F2000353F8222030
:1010D800F9794EF2F433C0F6000333F81130138374
:1010E80007F10C07BD4680BC704700BF80B483B0D1
:1010F80000AF0346FB71FA7940F29003C2F2000395
:1011080053F82220F9794EF2F433C0F6000333F88D
:101118001130538307F10C07BD4680BC704700BFF0
:1011280080B483B000AF0346FB71FA7940F29003B4
:10113800C2F2000353F82220F97940F29003C2F278
:10114800000353F821305969F8794EF2F433C0F6A8
:10115800000333F810304B40536107F10C07BD46CC
:1011680080BC704780B588B000AF02460B46FA7164
:10117800BB71FA794EF21043C0F6000353F82230DF
:1011880018464FF0010101F015F84FF480404FF078
:10119800010101F0B7F84FF000033B774FF000036F
:1011A800FB77FA794EF20C43C0F6000333F812309D
:1011B800BB61FA7940F2A003C2F2000353F822207F
:1011C80007F118031046194600F07CFABB79012B89
:1011D8003AD1FA794EF21843C0F600039A5CF979CD
:1011E8004EF21C43C0F600035B5C1046194601F042
:1011F8001DFCFA794EF21443C0F6000333F812309E
:101208003B614FF000033B754FF008037B754FF0CF
:101218000103BB7507F11003184600F061F8FA796D
:101228004EF22043C0F600039B5C3B734FF00F0364
:101238007B734FF00F03BB734FF00103FB7307F190
:101248000C03184601F0FAFA07F12007BD4680BDE5
:1012580080B582B000AF0346FB71FA7940F2A00373
:10126800C2F2000353F82220F9794EF20C43C0F67B
:10127800000333F811301046194600F005FB034609
:10128800184607F10807BD4680BD00BF80B400AF0F
:101298004FF47053C4F201034FF000021A604FF488
:1012A8007053C4F201034FF000025A604FF47053B8
:1012B800C4F201034FF000029A604FF47053C4F275
:1012C80001034FF00002DA604FF47053C4F20103D7
:1012D8004FF6FF72C0F27F025A61BD4680BC70476C
:1012E80080B485B000AF78604FF00003FB604FF426
:1012F8007053C4F20103FB607B689B79002B78D0A4
:101308004FF47053C4F201034FF47052C4F2010257
:1013180011687A6812686FEA02020A401A604FF48C
:101328007053C4F201034FF47052C4F201025168C1
:101338007A6812686FEA02020A405A607B681B7971
:10134800FA68D318FB60FB68FA6811687A68126853
:101358000A431A604FF47053C4F201034FF47052F9
:10136800C4F2010291687A6812686FEA02020A40C0
:101378009A604FF47053C4F201034FF47052C4F2F0
:101388000102D1687A6812686FEA02020A40DA60DC
:101398007B685B79102B1AD14FF47053C4F20103A8
:1013A8004FF47052C4F2010291687A6812680A43D5
:1013B8009A604FF47053C4F201034FF47052C4F2B0
:1013C8000102D1687A6812680A43DA601FE04FF4B4
:1013D8007053C4F20103FB607B685B79FA68D31829
:1013E800FB60FB68FA6811687A6812680A431A6039
:1013F8000DE07B681B79FA68D318FB60FB68FA6814
:1014080011687A6812686FEA02020A401A6007F1E6
:101418001407BD4680BC704780B483B000AF7860C5
:101428007B684FF000021A607B684FF000021A7167
:101438007B684FF00C025A717B684FF000029A717A
:1014480007F10C07BD4680BC704700BF80B483B06D
:1014580000AF78604FF47053C4F201034FF4705238
:10146800C4F2010211697A680A431A6107F10C078C
:10147800BD4680BC704700BF80B485B000AF7860BF
:101488004FF00003FB734FF47053C4F201035A6921
:101498007B681340002B03D04FF00103FB7302E07D
:1014A8004FF00003FB73FB7B184607F11407BD469A
:1014B80080BC704780B483B000AF78604FF470533D
:1014C800C4F201037A685A6107F10C07BD4680BC73
:1014D800704700BF80B485B000AF78604FF000035C
:1014E800FB734FF00003BB604FF47053C4F2010369
:1014F8001A687B681340BB604FF47053C4F2010351
:101508005A697B681340002B06D0BB68002B03D0B8
:101518004FF00103FB7302E04FF00003FB73FB7B0A
:10152800184607F11407BD4680BC704780B483B0E5
:1015380000AF78604FF47053C4F201037A685A61BF
:1015480007F10C07BD4680BC704700BF80B582B06C
:1015580000AF78607A684FF00003C4F202039A4241
:101568000CD14FF001004FF0010100F0F5FE4FF0F3
:1015780001004FF0000100F0EFFE9EE07A684FF4A2
:101588008063C4F202039A420CD14FF002004FF07C
:10159800010100F0E1FE4FF002004FF0000100F001
:1015A800DBFE8AE07A684FF40063C4F202039A42D1
:1015B8000CD14FF004004FF0010100F0CDFE4FF0C8
:1015C80004004FF0000100F0C7FE76E07A684FF49F
:1015D8004063C4F202039A420CD14FF008004FF066
:1015E800010100F0B9FE4FF008004FF0000100F0D3
:1015F800B3FE62E07A684FF48053C4F202039A4261
:101608000CD14FF010004FF0010100F0A5FE4FF093
:1016180010004FF0000100F09FFE4EE07A684FF492
:10162800A053C4F202039A420CD14FF020004FF0AD
:10163800010100F091FE4FF020004FF0000100F092
:101648008BFE3AE07A684FF4C053C4F202039A4220
:101658000CD14FF040004FF0010100F07DFE4FF03B
:1016680040004FF0000100F077FE26E07A684FF462
:10167800E053C4F202039A420CD14FF080004FF0BD
:10168800010100F069FE4FF080004FF0000100F00A
:1016980063FE12E07A684FF40053C4F202039A42E0
:1016A8000BD14FF480704FF0010100F055FE4FF45C
:1016B80080704FF0000100F04FFE07F10807BD46AB
:1016C80080BD00BF80B487B000AF786039604FF04C
:1016D80000037B614FF000033B614FF00003FB60A8
:1016E8004FF000037B6186E07B694FF0010202FA4C
:1016F80003F33B613B681A683B691340FB60FA6877
:101708003B699A4273D17B681A687B694FEA430345
:101718004FF0030101FA03F36FEA03031A407B68F1
:101728001A607B681A683B681B7919467B694FEA1F
:10173800430301FA03F31A437B681A603B681B7979
:10174800012B03D03B681B79022B34D17B689A6844
:101758007B694FEA43034FF0030101FA03F36FEA91
:1017680003031A407B689A607B689A683B685B79D8
:1017780019467B694FEA430301FA03F31A437B686E
:101788009A607B685A687B699BB24FF0010101FA45
:1017980003F36FEA03031A407B685A607B685A6850
:1017A8003B689B7919467B699BB201FA03F39BB2AC
:1017B8001A437B685A607B68DA687B699BB24FEA98
:1017C80043034FF0030101FA03F36FEA03031A40DE
:1017D8007B68DA607B68DA683B68DB7919467B6985
:1017E8004FEA430301FA03F31A437B68DA607B6923
:1017F80003F101037B617B690F2B7FF675AF07F15E
:101808001C07BD4680BC704780B483B000AF7860C9
:101818007B684FF6FF721A607B684FF000021A71FE
:101828007B684FF000025A717B684FF000029A7192
:101838007B684FF00002DA7107F10C07BD4680BCE7
:10184800704700BF80B485B000AF78600B467B80DE
:101858004FF48033FB607A88FB681343FB60FA68B7
:101868007B68DA617A887B68DA61FA687B68DA61B2
:101878007B68DB69FB607B68DB69FB6007F1140749
:10188800BD4680BC704700BF80B485B000AF7860AB
:101898000B467B804FF00003FB737B681A697B88DB
:1018A8001340002B03D04FF00103FB7302E04FF00D
:1018B8000003FB73FB7B184607F11407BD4680BC89
:1018C800704700BF80B483B000AF78607B681B6945
:1018D8009BB2184607F10C07BD4680BC704700BF95
:1018E80080B485B000AF78600B467B804FF0000372
:1018F800FB737B685A697B881340002B03D04FF039
:101908000103FB7302E04FF00003FB73FB7B1846F7
:1019180007F11407BD4680BC704700BF80B483B090
:1019280000AF78607B685B699BB2184607F10C07CB
:10193800BD4680BC704700BF80B483B000AF7860FC
:101948000B467B807B687A881A8307F10C07BD46B3
:1019580080BC704780B483B000AF78600B467B8052
:101968007B687A885A8307F10C07BD4680BC7047AC
:1019780080B483B000AF786013460A467A807B70E3
:101988007B78002B03D07B687A881A8302E07B6817
:101998007A885A8307F10C07BD4680BC704700BFA0
:1019A80080B483B000AF78600B467B807A887B6810
:1019B8005A6107F10C07BD4680BC704780B483B0FC
:1019C80000AF78600B467B807B685A697B885A40F9
:1019D8007B685A6107F10C07BD4680BC704700BFA1
:1019E80080B485B000AF786013460A467A807B7071
:1019F8004FF00003FB604FF00003BB607A787B88F0
:101A080003F007034FEA830302FA03F3FB607B88C2
:101A18004FEAD3039BB21A467B884FEAD3039BB2A3
:101A280019467B6801F1080153F821107B8803F0FF
:101A380007034FEA83034FF00F0000FA03F36FEA3E
:101A4800030319407B6802F1080243F822107B88DF
:101A58004FEAD3039BB21A467B6802F1080253F897
:101A68002220FB681343BB607B884FEAD3039BB2F9
:101A78001A467B6802F10802B96843F8221007F198
:101A88001407BD4680BC704780B400AF4FF4605364
:101A9800C4F202034FF46052C4F20202126842F028
:101AA80001021A604FF46053C4F202034FF00002BF
:101AB8009A604FF46053C4F202034FF46052C4F2C8
:101AC8000202126822F0847222F480321A604FF403
:101AD8006053C4F2020343F21002C2F200425A6099
:101AE8004FF46053C4F202034FF46052C4F202028E
:101AF800126822F480221A604FF46053C4F2020381
:101B08004FF00002DA60BD4680BC704780B483B0F5
:101B180000AF0346FB7143F60203C4F202034FF021
:101B280000021A7043F60203C4F20203FA791A702B
:101B380007F10C07BD4680BC704700BF80B582B076
:101B480000AF4FF000033B604FF00003FB714FF014
:101B58000003BB714FF0310000F0D2FD0346BB71AA
:101B68003B6803F101033B603B68B3F5A06F02D00B
:101B7800BB79002BEED04FF0310000F0C1FD0346D9
:101B8800002B03D04FF00103FB7102E04FF000037C
:101B9800FB71FB79184607F10807BD4680BD00BFF9
:101BA80080B485B000AF0346FB714FF00003FB60C3
:101BB8004FF46053C4F202031B68FB60FB6823F018
:101BC800F803FB60FB794FEAC303FA681343FB6031
:101BD8004FF46053C4F20203FA681A6007F114075D
:101BE800BD4680BC704700BF80B483B000AF0346D9
:101BF800FB714FF00003C4F24723FA791A6007F12A
:101C08000C07BD4680BC704780B483B000AF034664
:101C1800FB7143F67003C4F202034FF000021A701E
:101C280043F67003C4F202034FF000021A70FB7906
:101C3800012B02D0042B08D00FE043F67003C4F246
:101C480002034FF001021A7008E043F67003C4F271
:101C580002034FF005021A7000E000BF07F10C07FD
:101C6800BD4680BC704700BF80B483B000AF034658
:101C7800FB714FF46863C4F24723FA791A6007F1DD
:101C88000C07BD4680BC704780B485B000AFF860D3
:101C9800B9607A603B604FF46053C4F202037A681B
:101CA8004FEA8211BA6811433A684FEA520202F1C8
:101CB800FF324FEA02421143FA681143BA694FEA08
:101CC80002620A435A6007F11407BD4680BC704798
:101CD80080B483B000AF0346FB714FF06003C4F2D9
:101CE8004723FA791A6007F10C07BD4680BC704794
:101CF80080B483B000AF786039604FF46053C4F2A9
:101D080002037A684FEA82113A684FEA02720A437C
:101D1800C3F8842007F10C07BD4680BC704700BF9C
:101D280080B483B000AF0346FB714FF06803C4F280
:101D38004723FA791A6007F10C07BD4680BC704743
:101D480080B483B000AF0346FB714FF04C03C4F27C
:101D58004723FA791A6007F10C07BD4680BC704723
:101D680080B485B000AF786039604FF00003FB6045
:101D78004FF46053C4F202039B68FB60FB6823F0D6
:101D8800EC63FB607A683B681343FA681343FB60B3
:101D98004FF46053C4F20203FA689A6007F114071B
:101DA800BD4680BC704700BF80B485B000AF786086
:101DB80039604FF00003FB604FF46053C4F2020334
:101DC8009B68FB60FB6823F07843FB607A683B689C
:101DD8001343FA681343FB604FF46053C4F20203E1
:101DE800FA689A6007F11407BD4680BC704700BFC7
:101DF80080B485B000AF78604FF00003FB604FF40B
:101E08006053C4F202039B68FB60FB6823F0030382
:101E1800FB60FA687B681343FB604FF46053C4F2BD
:101E28000203FA689A6007F11407BD4680BC704740
:101E380080B400AF4FF46053C4F202039B68DBB276
:101E480003F00C03DBB21846BD4680BC704700BFE8
:101E580080B485B000AF78604FF00003FB604FF4AA
:101E68006053C4F202039B68FB60FB6823F0F00335
:101E7800FB60FA687B681343FB604FF46053C4F25D
:101E88000203FA689A6007F11407BD4680BC7047E0
:101E980080B485B000AF78604FF00003FB604FF46A
:101EA8006053C4F202039B68FB60FB6823F4E053B1
:101EB800FB60FA687B681343FB604FF46053C4F21D
:101EC8000203FA689A6007F11407BD4680BC7047A0
:101ED80080B485B000AF78604FF00003FB604FF42A
:101EE8006053C4F202039B68FB60FB6823F4604301
:101EF800FB607B684FEAC303FA681343FB604FF447
:101F08006053C4F20203FA689A6007F11407BD46E9
:101F180080BC704780B489B000AF78604FF0000390
:101F2800BB614FF000037B614FF00003FB614FF092
:101F380002033B614FF00003FB604FF00203BB60FC
:101F48004FF46053C4F202039B6803F00C03BB61B7
:101F5800BB69042B0AD0082B0FD0002B60D17A68FC
:101F68004FF41053C0F2F403136060E07A684FF442
:101F78009053C0F27A03136059E04FF46053C4F2EF
:101F880002035B6803F480034FEA9353FB604FF44A
:101F98006053C4F202035B6803F03F03BB60FB6855
:101FA800002B14D04FF49053C0F27A03BA68B3FBF5
:101FB800F2F24FF46053C4F20203596847F6C07353
:101FC8000B404FEA931303FB02F3FB6113E04FF45A
:101FD8001053C0F2F403BA68B3FBF2F24FF4605343
:101FE800C4F20203596847F6C0730B404FEA9313D3
:101FF80003FB02F3FB614FF46053C4F202035B6816
:1020080003F440334FEA134303F101034FEA430358
:102018003B61FA693B69B2FBF3F27B681A6006E040
:102028007A684FF41053C0F2F403136000BF4FF402
:102038006053C4F202039B6803F0F003BB61BB6901
:102048004FEA1313BB6140F2A403C2F20003BA695A
:102058009B181B78DBB27B617B681A687B6922FA64
:1020680003F27B685A604FF46053C4F202039B6822
:1020780003F4E053BB61BB694FEA9323BB6140F2B1
:10208800A403C2F20003BA699B181B78DBB27B6118
:102098007B685A687B6922FA03F27B689A604FF47E
:1020A8006053C4F202039B6803F46043BB61BB69DD
:1020B8004FEA5333BB6140F2A403C2F20003BA698A
:1020C8009B181B78DBB27B617B685A687B6922FAB4
:1020D80003F27B68DA6007F12407BD4680BC7047CD
:1020E80080B485B000AF78604FF00003FB607B6878
:1020F80003F44073B3F5407F17D14FF46053C4F233
:1021080002039B68FB60FB6823F4F813FB607B68A1
:1021180023F0704323F44073FA681343FB604FF4D1
:102128006053C4F20203FA689A604FF46053C4F231
:1021380002034FF46052C4F20202116F7A684FEA48
:1021480002524FEA12520A431A6707F11407BD46B2
:1021580080BC704780B483B000AF0346FB7140F683
:102168003C63C4F24723FA791A6007F10C07BD46AD
:1021780080BC704780B483B000AF0346FB714FF456
:102188006463C4F24723FA791A6007F10C07BD4665
:1021980080BC704780B483B000AF78604FF4AE73F2
:1021A800C4F247237A681A6007F10C07BD4680BC61
:1021B800704700BF80B483B000AF78600B46FB70F7
:1021C800FB78002B0CD04FF46053C4F202034FF499
:1021D8006052C4F20202116B7A680A431A630DE076
:1021E8004FF46053C4F202034FF46052C4F2020287
:1021F800116B7A686FEA02020A401A6307F10C074A
:10220800BD4680BC704700BF80B483B000AF786023
:102218000B46FB70FB78002B0CD04FF46053C4F2D4
:1022280002034FF46052C4F20202516B7A680A4307
:102238005A630DE04FF46053C4F202034FF4605246
:10224800C4F20202516B7A686FEA02020A405A63CA
:1022580007F10C07BD4680BC704700BF80B483B04F
:1022680000AF78600B46FB70FB78002B0CD04FF466
:102278006053C4F202034FF46052C4F20202916B3D
:102288007A680A439A630DE04FF46053C4F202037C
:102298004FF46052C4F20202916B7A686FEA02024C
:1022A8000A409A6307F10C07BD4680BC704700BF1F
:1022B80080B483B000AF78600B46FB70FB78002BCE
:1022C8000CD04FF46053C4F202034FF46052C4F2CE
:1022D8000202116C7A680A431A640DE04FF46053E5
:1022E800C4F202034FF46052C4F20202116C7A681D
:1022F8006FEA02020A401A6407F10C07BD4680BC67
:10230800704700BF80B483B000AF78600B46FB70A5
:10231800FB78002B0CD04FF46053C4F202034FF447
:102328006052C4F20202516C7A680A435A640DE0A2
:102338004FF46053C4F202034FF46052C4F2020235
:10234800516C7A686FEA02020A405A6407F10C0776
:10235800BD4680BC704700BF80B483B000AF7860D2
:102368000B46FB70FB78002B0CD04FF46053C4F283
:1023780002034FF46052C4F2020211697A680A43F8
:102388001A610DE04FF46053C4F202034FF4605237
:10239800C4F2020211697A686FEA02020A401A61FD
:1023A80007F10C07BD4680BC704700BF80B483B0FE
:1023B80000AF78600B46FB70FB78002B0CD04FF415
:1023C8006053C4F202034FF46052C4F2020251692E
:1023D8007A680A435A610DE04FF46053C4F202036D
:1023E8004FF46052C4F2020251697A686FEA02023D
:1023F8000A405A6107F10C07BD4680BC704700BF10
:1024080080B483B000AF78600B46FB70FB78002B7C
:102418000CD04FF46053C4F202034FF46052C4F27C
:10242800020291697A680A439A610DE04FF4605399
:10243800C4F202034FF46052C4F2020291697A684E
:102448006FEA02020A409A6107F10C07BD4680BC98
:10245800704700BF80B483B000AF78600B46FB7054
:10246800FB78002B0CD04FF46053C4F202034FF4F6
:102478006052C4F20202116A7A680A431A620DE0D5
:102488004FF46053C4F202034FF46052C4F20202E4
:10249800116A7A686FEA02020A401A6207F10C07A9
:1024A800BD4680BC704700BF80B483B000AF786081
:1024B8000B46FB70FB78002B0CD04FF46053C4F232
:1024C80002034FF46052C4F20202516A7A680A4366
:1024D8005A620DE04FF46053C4F202034FF46052A5
:1024E800C4F20202516A7A686FEA02020A405A622A
:1024F80007F10C07BD4680BC704700BF80B483B0AD
:1025080000AF78600B46FB70FB78002B0CD04FF4C3
:102518006053C4F202034FF46052C4F20202116D18
:102528007A680A431A650DE04FF46053C4F2020357
:102538004FF46052C4F20202116D7A686FEA020227
:102548000A401A6507F10C07BD4680BC704700BFFA
:1025580080B483B000AF78600B46FB70FB78002B2B
:102568000CD04FF46053C4F202034FF46052C4F22B
:102578000202516D7A680A435A650DE04FF46053C0
:10258800C4F202034FF46052C4F20202516D7A6839
:102598006FEA02020A405A6507F10C07BD4680BC83
:1025A800704700BF80B483B000AF78600B46FB7003
:1025B800FB78002B0CD04FF46053C4F202034FF4A5
:1025C8006052C4F20202916D7A680A439A650DE07E
:1025D8004FF46053C4F202034FF46052C4F2020293
:1025E800916D7A686FEA02020A409A6507F10C0752
:1025F800BD4680BC704700BF80B483B000AF786030
:102608000B46FB70FB78002B0CD04FF46053C4F2E0
:1026180002034FF46052C4F20202116E7A680A4350
:102628001A660DE04FF46053C4F202034FF460528F
:10263800C4F20202116E7A686FEA02020A401A6650
:1026480007F10C07BD4680BC704700BF80B483B05B
:1026580000AF78600B46FB70FB78002B0CD04FF472
:102668006053C4F202034FF46052C4F20202516E86
:102678007A680A435A660DE04FF46053C4F20203C5
:102688004FF46052C4F20202516E7A686FEA020295
:102698000A405A6607F10C07BD4680BC704700BF68
:1026A80080B483B000AF02460B46FA71BB71BB79A8
:1026B800002B0ED043F60D03C4F2020343F60D02BD
:1026C800C4F202021278D1B2FA790A43D2B21A706D
:1026D80010E043F60D03C4F2020343F60D02C4F200
:1026E80002021278D1B2FA796FEA0202D2B20A4033
:1026F800D2B21A7007F10C07BD4680BC704700BF04
:1027080080B487B000AF0346FB714FF00003FB6055
:102718004FF000037B614FF00003FB74FB794FEA35
:102728005313DBB2FB60FB68012B06D14FF46053F7
:10273800C4F202031B687B610FE0FB68022B06D121
:102748004FF46053C4F202031B6F7B6105E04FF442
:102758006053C4F202035B6F7B61FB7903F01F03D4
:10276800FB60FB687A6922FA03F303F00103002B8C
:1027780003D04FF00103FB7402E04FF00003FB7439
:10278800FB7C184607F11C07BD4680BC704700BF9C
:1027980080B400AF4FF46053C4F202034FF46052A8
:1027A800C4F20202526F42F080725A67BD4680BC82
:1027B800704700BF80B485B000AF0346FB714FF08F
:1027C8000003FB734FF46053C4F20203DA68FB7929
:1027D8001340002B03D04FF00103FB7302E04FF0CE
:1027E8000003FB73FB7B184607F11407BD4680BC4A
:1027F800704700BF80B483B000AF0346FB7143F657
:102808000E03C4F20203FA791A7007F10C07BD46E9
:1028180080BC704780B483B000AF78604FF46D43DC
:10282800CEF200037A6842F0BF6242F40032DA6006
:1028380007F10C07BD4680BC704700BF80B485B067
:1028480000AF78604FF00003FB734FF00003BB73D9
:102858004FF00F037B737B68DB78002B45D04FF478
:102868006D43CEF20003DB686FEA030303F4E06311
:102878004FEA1323FB73FB7BC3F10403BB737A7B1F
:10288800FB7B42FA03F37B737B685B781A46BB7B5E
:1028980002FA03F3FB737B689A787B7B1340DAB206
:1028A800FB7B1343FB73FB7B4FEA0313FB734FF470
:1028B8006143CEF200037A6812789B18FA7B83F89A
:1028C80000234FF46143CEF200037A6812784FEA8E
:1028D8005212D2B27968097801F01F014FF0010055
:1028E80000FA01F143F8221014E04FF46143CEF2EC
:1028F80000037A6812784FEA5212D2B279680978DE
:1029080001F01F014FF0010000FA01F102F120026D
:1029180043F8221007F11407BD4680BC704700BF7A
:1029280080B483B000AF786039604FF46D43CEF265
:1029380000033A6822F0604222F07F0279680A4375
:102948009A6007F10C07BD4680BC704780B483B01D
:1029580000AF02460B46FA71BB71BB79002B0CD055
:102968004FF46D43CEF200034FF46D42CEF20002F5
:102978001169FA790A431A610DE04FF46D43CEF2FA
:1029880000034FF46D42CEF200021169FA796FEA42
:1029980002020A401A6107F10C07BD4680BC704765
:1029A80080B483B000AF78607B68042B0CD14EF202
:1029B8001003CEF200034EF21002CEF200021268AB
:1029C80042F004021A600BE04EF21003CEF200034C
:1029D8004EF21002CEF20002126822F004021A60CF
:1029E80007F10C07BD4680BC704700BF80B500AF3B
:1029F8004FF480404FF00101FFF756FD4FF480403F
:102A08004FF00001FFF750FD80BD00BF80B483B0D8
:102A180000AF0346FB714FF46053C4F20103FA7927
:102A28001A6007F10C07BD4680BC704790B484B0AB
:102A380000AF02460B46FA71BB714FF00003FB6012
:102A4800BB7903F003034FEA83034FF00F0202FA46
:102A580003F3FB604FF46053C4F20103BA794FEA01
:102A68009202D2B210464FF46052C4F20102B97910
:102A78004FEA9101C9B201F1020152F82110FA6836
:102A88006FEA0202114000F1020243F822104FF4EB
:102A98006053C4F20103BA794FEA9202D2B21046E7
:102AA8004FF46052C4F20102B9794FEA9101C9B2F8
:102AB80001F1020152F82110FC79BA7902F00302FF
:102AC8004FEA820204FA02F2114300F1020243F8CB
:102AD800221007F11007BD4690BC704780B483B040
:102AE80000AF78604FF0DC03C4F227237A681A60DD
:102AF80007F10C07BD4680BC704700BF80B483B0A7
:102B080000AF0346FB714FF48063C4F22723FA79C0
:102B18001A6007F10C07BD4680BC704780B483B0CB
:102B280000AF4FF00003FB714FF46053C4F2010390
:102B38001B6A03F48073002B03D04FF00103FB7171
:102B480002E04FF00003FB71FB79184607F10C0710
:102B5800BD4680BC704700BF80B485B000AF7860C8
:102B68004FF00003FB607B68DB684FF0FF325A6070
:102B78007B68DB684FF0FF325A61FB6843F0004323
:102B8800FB60FB6843F40063FB607B68DB68FA6802
:102B98009A6107F11407BD4680BC704780B586B0BE
:102BA80000AF78604FF00003FB744FF000037B61C7
:102BB8004FF00003FB604FF00300FDF7EBFE7B686E
:102BC800DB681B69FB607B6903F101037B617A6940
:102BD8004FF45463C0F203039A4202D94FF0000342
:102BE8002AE0FB6803F00043002BE4D04FF0000319
:102BF8007B61FB6843F00103FB607B68DB68FA6874
:102C08001A617B68DB681B69FB607B6903F1010360
:102C18007B617A694FF45463C0F203039A4205D882
:102C2800FB6803F00103002BEBD100E000BF4FF07D
:102C38000300FDF7AFFEFB7C184607F11807BD46F9
:102C480080BD00BF80B489B000AFF860B960FA7188
:102C5800BB804FF00003FB76FB68DB78002B2CD1A0
:102C68004FF000037B614FF00003FB61BB8803F169
:102C78000303002B01DA03F103034FEAA3037B618B
:102C8800FB79FA6803F132034FEA8303D3189B6890
:102C98003B614FF00003FB610BE0BB681A683B69BE
:102CA8001A60FB6903F10103FB61BB6803F10403CC
:102CB800BB60FA697B699A42EFD3FB7E184607F13D
:102CC8002407BD4680BC704780B489B000AFF86067
:102CD800B9601346FB804FF00003FB61FB8803F1EA
:102CE8000303002B01DA03F103034FEAA303BB61DB
:102CF800FB68D3F8D0307B614FF00003FB610BE039
:102D08007B691A68BB681A60FB6903F10103FB6100
:102D1800BB6803F10403BB60FA69BB699A42EFD34D
:102D2800BB68184607F12407BD4680BC704700BF42
:102D380080B487B000AF78600B46FB704FF000039B
:102D48003B614FF00003FB737B684FF00002DA70C1
:102D58007B684FF001029A707B684FF040029A80BE
:102D6800FB78012B17D14FF0A0433B617B684FF0F4
:102D78000102DA727B684FF008021A707B684FF024
:102D880004025A707B684FF4A072DA807B684FF0B7
:102D980002021A7217E0FB78002B14D14FF00003DF
:102DA800C4F204033B617B684FF00002DA727B686F
:102DB8004FF00C021A707B684FF006025A707B685D
:102DC8004FF4A062DA803A697B68DA603B6903F500
:102DD80000631A467B681A614FF000037B6123E0A9
:102DE8007B694FEA43123B69D31803F510631A460F
:102DF80079687B6903F104034FEA8303CB189A606F
:102E08007B694FEA43123B69D31803F530631A46CE
:102E180079687B6903F114034FEA8303CB185A607E
:102E28007B6903F101037B617B685B781A467B69E8
:102E38009A42D5D83B6903F580631A467B685A6184
:102E48003B6903F588631A467B68C3F8CC204FF0CA
:102E580000037B6113E07B694FEA43123B69D31897
:102E680003F5A0631A4679687B6903F122034FEAE8
:102E78008303CB189A607B6903F101037B617B684C
:102E88001B781A467B699A42E5D84FF000037B61AC
:102E980013E07B694FEA03323B69D31803F580538B
:102EA8001A4679687B6903F132034FEA8303CB182A
:102EB8009A607B6903F101037B617B681B781A4682
:102EC8007B699A42E5D83B6903F560631A467B68DB
:102ED800C3F80C21FB7B184607F11C07BD4680BCD4
:102EE800704700BF80B588B000AF78604FF000032E
:102EF800FB774FF00003BB614FF000037B614FF09D
:102F08000003FB607B681B7A012B51D17B68DB686F
:102F18009B6B7B617B696FF310437B617B685B7A9A
:102F2800002B03D07B6943F480137B617B68DB68EB
:102F38007A699A634FF00003BB617B68DB68DB68E2
:102F4800BB61BB696FF38613BB61BB696FF39653B3
:102F5800BB61BB6943F01003BB61BB696FF3C3037B
:102F6800BB61BB696FF3C713BB61BB696FF35143A7
:102F7800BB61BB696FF3D343BB617B68DB68BA692C
:102F8800DA607868FFF70AFE7B68DB78012B40F08F
:102F98008980FB684FF0050262F34403FB60FB681D
:102FA80043F02003FB607B68DB68FA689A6079E08D
:102FB8007B68DB68DB68BB61BB6943F04003BB61CE
:102FC8007B68DB68BA69DA607868FFF7E7FD4FF07D
:102FD80000037B617B6943F480337B617B681B7AE8
:102FE800032B03D17B6943F400337B617B6943F492
:102FF80080237B617B6943F400237B617B6943F415
:1030080000137B617B685B7A002B03D07B6943F4F8
:1030180080137B617B68DB687A699A634FF01400E0
:10302800FDF7E4FC7B68DB68DB68BB617B681B7AC7
:10303800032B03D1BB6943F48033BB617B68DB6836
:10304800BA69DA607B681B7A032B2BD17B68DB6853
:103058001B6B3B613B694FF0010262F39B633B6171
:103068003B696FF3D7533B613B6943F080533B6146
:103078003B694FF02D0262F316433B617B68DB68C6
:103088003A691A634FF0C800FDF7B0FC3B6943F496
:1030980000033B617B68DB683A691A634FF0C8003C
:1030A800FDF7A4FC7B68DB78012B11D17B68DB681A
:1030B8009B68FB60FB684FF0050262F34403FB600A
:1030C800FB6843F02003FB607B68DB68FA689A6062
:1030D800FB7F184607F12007BD4680BD80B485B048
:1030E80000AF78604FF00003FB734FF00003BB6044
:1030F800BB6843F00103BB607B68DB687A68D26811
:103108009168BA680A439A60FB7B184607F114076E
:10311800BD4680BC704700BF80B485B000AF786002
:103128004FF00003FB734FF00003BB60BB6843F034
:103138000103BB607B68DB687A68D2689168BA680B
:103148006FEA02020A409A60FB7B184607F11407EF
:10315800BD4680BC704700BF80B586B000AF7860C0
:1031680039604FF00003FB744FF000037B614FF0B0
:103178000003FB60FB6843F02003FB603B68DBB2A5
:1031880003F01F03DAB2FB6862F38A13FB607B6803
:10319800DB68FA681A617B68DB681B69FB607B691E
:1031A80003F101037B617A694FF45463C0F20303AE
:1031B8009A4205D8FB6803F02003002BEBD100E00E
:1031C80000BF4FF00300FDF7E5FBFB7C184607F155
:1031D8001807BD4680BD00BF80B586B000AF7860D7
:1031E8004FF00003FB744FF000037B614FF00003C6
:1031F800FB60FB6843F01003FB607B68DB68FA68E0
:103208001A617B68DB681B69FB607B6903F101035A
:103218007B617A694FF45463C0F203039A4205D87C
:10322800FB6803F01003002BEBD100E000BF4FF068
:103238000300FDF7AFFBFB7C184607F11807BD46F6
:1032480080BD00BF80B584B000AF78600B46FB70CE
:103258004FF00003FB737B68DB68DB68BB60BB680F
:103268006FF35D73BB60BB686FF39E73BB60FB78E5
:10327800012B04D1BB6843F00053BB6006E0FB7828
:10328800002B03D1BB6843F08043BB607B68DB68DD
:10329800BA68DA604FF03200FDF7A8FBFB7B1846EE
:1032A80007F11007BD4680BD80B483B000AF7860D9
:1032B8007B68DB685B6903F00103184607F10C07BC
:1032C800BD4680BC704700BF80B582B000AF786053
:1032D8007868FFF7E9FF0346012B0CBF00230123A1
:1032E800DBB2184607F10807BD4680BD80B582B03D
:1032F80000AF78607868FFF7D7FF0346012B14BF4B
:1033080000230123DBB2184607F10807BD4680BD3C
:1033180080B485B000AF78604FF00003FB607B6835
:10332800DB685B69FB607B68DB689B69FA68134054
:10333800FB60FB68184607F11407BD4680BC704760
:1033480080B483B000AF78607B68DB685B68184640
:1033580007F10C07BD4680BC704700BF80B485B03C
:1033680000AF78600B46FB707B681B691B68FB60CD
:10337800FB7803F00303DAB2FB6862F30103FB6036
:103388007B681B69FA681A6007F11407BD4680BCA0
:10339800704700BF80B58CB000AF78604FF0000375
:1033A80087F82B304FF000037B624FF000033B623D
:1033B8004FF00003FB614FF00003BB614FF00003C7
:1033C8007B617B68D3F80C314FF000021A607B6890
:1033D8001B691B683B623B6A6FF3CC233B627B68CB
:1033E8001B693A6A1A607B68DB7A012B47D17868D7
:1033F8004FF00301FFF7B2FF7B68DB684FF08002F4
:103408005A62FB694FF0200262F31F43FB61FB69BC
:103418004FF0800262F30F03FB617B68DB68FA6997
:103428009A62BA8BFB8BD3189BB23B83BB694FF074
:10343800800262F31F43BB617B68DB68BA69C3F82B
:1034480004213A8B7B8BD3189BB23B83BB694FF02B
:10345800200262F31F43BB617B68DB68BA69C3F86B
:1034680008213A8B7B8BD3189BB23B83BB696FF3E4
:103478001F43BB617B68DB68BA69C3F80C217868B5
:103488004FF01001FFF768FE7868FFF7A5FE7B682C
:103498001B694FF000021A617B681B694FF000023C
:1034A8005A617B681B694FF0FF329A617B681B6920
:1034B8004FF00002DA614FF00003FB6243E07A68E4
:1034C800FB6A03F104034FEA8303D3189B681B6864
:1034D8007B6297F8273023F07F03DBB2002B0BD0F9
:1034E8004FF000037B627B6A43F080437B627B6A18
:1034F80043F000637B6202E04FF000037B627A686E
:10350800FB6A03F104034FEA8303D3189B687A6AC2
:103518001A607A68FB6A03F104034FEA8303D3183D
:103528009B684FF000021A617A68FB6A03F1040392
:103538004FEA8303D3189B684FF0FF029A60FB6A37
:1035480003F10103FB627B685B781A46FB6A9A42C7
:10355800B5D84FF00003FB6242E07A68FB6A03F1DA
:1035680014034FEA8303D3185B681B68FB60FB7B7B
:1035780023F07F03DBB2002B0BD04FF00003FB607E
:10358800FB6843F08043FB60FB6843F00063FB602B
:1035980002E04FF00003FB607A68FB6A03F1140352
:1035A8004FEA8303D3185B68FA681A607A68FB6A83
:1035B80003F114034FEA8303D3185B684FF000024A
:1035C8001A617A68FB6A03F114034FEA8303D3187C
:1035D8005B684FF0FF029A60FB6A03F10103FB622C
:1035E8007B685B781A46FB6A9A42B6D84FF00003AC
:1035F8007B617B6943F480737B617B681B697A68B4
:10360800126911697A696FEA020211407A690A43FC
:103618001A617B68DB78012B1ED14FF000033B61F8
:103628003B6943F001033B613B6943F002033B61A3
:103638003B694FF0400262F38A033B613B6943F404
:1036480080333B613B694FF0400262F359433B6171
:103658007B681B693A691A63786800F007F897F87D
:103668002B30184607F13007BD4680BD80B584B0C1
:1036780000AF78604FF00003FB734FF00003BB60AE
:103688007B68DB684FF000029A617B68DB684FF06B
:10369800FF325A617868FFF75FFA7B68DB78002BA6
:1036A80003D1BB6843F01003BB60BB6843F40063FD
:1036B800BB60BB6843F48053BB60BB6843F40053F2
:1036C800BB60BB6843F48023BB60BB6843F4002342
:1036D800BB60BB6843F00803BB60BB6843F480135E
:1036E800BB60BB6843F40013BB607B68DB687A6827
:1036F800D2689169BA686FEA02021140BA680A434F
:103708009A61FB7B184607F11007BD4680BD00BFD4
:1037180080B485B000AF78604FF00003FB737B681E
:103728001B699B68BB60BB68C3F34103DBB2022B18
:103738000BD0032B05D0012B03D04FF00303FB73F1
:1037480007E04FF00203FB7303E04FF00103FB7344
:1037580000BFFB7B184607F11407BD4680BC7047C5
:1037680080B487B000AF78604FF00003FB754FF06E
:103778000003BB607B681B699B683B617B689B6936
:103788001B68FB603B69C3F34103DBB2022B04D027
:10379800FB686FF30A03FB6006E0FB684FF0030267
:1037A80062F30A03FB6000BF7B689B69FA681A60D2
:1037B800BB6843F48073BB607B681B697A681269D5
:1037C8005168BA686FEA02021140BA680A435A603F
:1037D800FB7D184607F11C07BD4680BC704700BF3B
:1037E80080B487B000AF786039604FF00003FB7495
:1037F8004FF00003FB604FF00003BB603B685B7851
:10380800012B12D13B681B787A6803F104034FEA55
:103818008303D3189B687B613B681B784FF00102D8
:1038280002FA03F39BB23B8114E03B681B787A6889
:1038380003F114034FEA8303D3185B687B613B6889
:103848001B784FF0010202FA03F39AB2BB6862F3E5
:103858001F43BB607B691B68FB607B7B23F07F0396
:10386800DBB2002B29D13B689B689BB24FEA4353DC
:103878004FEA53539AB2FB6862F30A03FB603B6852
:10388800DB7803F00303DAB2FB6862F39343FB606F
:103898003B68DB88DBB203F00F03DAB2FB6862F344
:1038A8009953FB60FB6843F08053FB60FB6843F46B
:1038B8000043FB60FA687B691A607B681B697A6859
:1038C8001269D169BA680A43DA61FB7C184607F1C4
:1038D8001C07BD4680BC704780B487B000AF7860D5
:1038E80039604FF00003FB744FF00003FB604FF0AA
:1038F8000003BB603B685B78012B12D13B681B78E7
:103908007A6803F104034FEA8303D3189B687B6149
:103918003B681B784FF0010202FA03F39BB23B812C
:1039280014E03B681B787A6803F114034FEA8303B9
:10393800D3185B687B613B681B784FF0010202FA81
:1039480003F39AB2BB6862F31F43BB60FB686FF373
:10395800CF33FB60FA687B691A607B681B697A68F9
:103968001269D169BA686FEA02020A40DA61FB7C1F
:10397800184607F11C07BD4680BC704780B588B063
:1039880000AF786039604FF00003FB774FF0000319
:10399800BB614FF000037B614FF000033B613B6864
:1039A8005B78012B40F0BD803B681B787A6803F197
:1039B80004034FEA8303D3189B681B687B613B6849
:1039C8001B787A6803F104034FEA8303D3189B68D2
:1039D8001B693B613B685B69002B0AD13B696FF34C
:1039E80012033B613B694FF0010262F3DC433B6128
:1039F80028E03B685B6923F07F4222F478023B6948
:103A080062F312033B613B685A693B689B68D318B1
:103A180003F1FF323B689B68B2FBF3F39BB24FEABA
:103A280083534FEA93539AB23B6962F3DC433B6199
:103A38003B68DB78012B05D13B694FF0010262F34B
:103A48005E733B613B681B787A6803F104034FEAB5
:103A58008303D3189B683A691A617B68DB78012B6A
:103A68000CD13B681B787A6803F104034FEA83039F
:103A7800D3189B683A6812695A6116E03B68DB788C
:103A8800012B12D03B685B69002B0ED03B681B787A
:103A98004FF0010202FA03F3BB617B681B697A6885
:103AA8001269516BBA690A435A633B68DB78012B88
:103AB80014D17B681B699B68FB60FB68C3F30D230B
:103AC8009BB203F00103002B04D17B6943F0005340
:103AD8007B6103E07B6943F080537B617B6943F042
:103AE80080637B617B6943F000437B613B681B78A3
:103AF8007A6803F104034FEA8303D3189B687A6951
:103B08001A603B68DB78012B40F09A803B68D968E3
:103B18003B681A783B685B699BB27868FFF792F854
:103B28008EE03B681B787A6803F114034FEA83033D
:103B3800D3185B681B687B613B681B787A6803F164
:103B480014034FEA8303D3185B681B693B613B6826
:103B58005B69002B10D13B689B6823F07F4222F4FD
:103B680078023B6962F312033B613B694FF0010243
:103B780062F3DC433B6124E03B685A693B689B681D
:103B8800D31803F1FF323B689B68B2FBF3F39BB297
:103B98004FEA83534FEA93539AB23B6962F3DC438B
:103BA8003B613B69C3F3C9439BB23A68926802FB25
:103BB80003F323F07F4222F478023B6962F3120395
:103BC8003B613B681B787A6803F114034FEA83036F
:103BD800D3185B683A691A617B68DB78012B0BD1D3
:103BE8003B681B787A6803F114034FEA8303D31800
:103BF8005B683A6812695A613B68DB78012B0CD123
:103C08003B685B79002B04D07B6943F000537B61F0
:103C180003E07B6943F080537B617B6943F08063F9
:103C28007B617B6943F000437B613B681B787A6862
:103C380003F114034FEA8303D3185B687A691A60A7
:103C4800FB7F184607F12007BD4680BD80B489B0C8
:103C580000AF786039604FF00003FB774FF0000346
:103C6800BB614FF000033B614FF00003BB603B6852
:103C78005B78012B75D17B689B697B617B691B68CD
:103C88003B617B691B69BB603B685B69002B0AD1A0
:103C98003B7A6FF306033B72BB7A4FF0010262F383
:103CA800C403BB7224E03B685A693B689B689A422C
:103CB8000ED93B689A683B685A613B689B68DBB2DF
:103CC80003F07F03DAB23B7A62F306033B7209E042
:103CD8003B685B69DBB203F07F03DAB23B7A62F3DD
:103CE80006033B72BB7A4FF0010262F3C403BB7256
:103CF800BA687B691A617B68DB78012B0BD13B685A
:103D08001B787A6803F104034FEA8303D3189B688E
:103D18003A6812695A613B6943F080633B613B69C9
:103D280043F000433B613A697B691A607B68DB7842
:103D3800002B40F083803B685B69002B7ED03B689A
:103D48001B784FF0010202FA03F3BA691343BB610F
:103D58007B681B697A681269516BBA690A435A63AE
:103D68006CE03B681B787A6803F114034FEA83031D
:103D7800D3185B681B683B613B681B787A6803F162
:103D880014034FEA8303D3185B681B69BB603B6865
:103D98005B69002B10D13B689B68DBB203F07F03A3
:103DA800DAB23B7A62F306033B72BB7A4FF0010248
:103DB80062F3C403BB7213E03B689A683B685A61BC
:103DC8003B689B68DBB203F07F03DAB23B7A62F3AD
:103DD80006033B72BB7A4FF0010262F3C403BB7265
:103DE8003B681B787A6803F114034FEA8303D318FE
:103DF8005B68BA681A617B68DB78012B0BD13B687A
:103E08001B787A6803F114034FEA8303D3185B68BD
:103E18003A6812695A613B6943F080633B613B69C8
:103E280043F000433B613B681B787A6803F1140355
:103E38004FEA8303D3185B683A691A60FB7F184618
:103E480007F12407BD4680BC704700BF80B487B027
:103E580000AF786039604FF00003FB754FF0000346
:103E6800FB603B685B78012B1ED13B681B787A6846
:103E780003F104034FEA8303D3189B683B613B6952
:103E88001B68FB60FB7B23F07F03DBB2002B03D0B6
:103E9800FB6843F08043FB60FB6843F40013FB605E
:103EA800FA683B691A6013E03B681B787A6803F18B
:103EB80014034FEA8303D3185B683B613B691B68B3
:103EC800FB60FB6843F40013FB60FA683B691A6007
:103ED800FB7D184607F11C07BD4680BC704700BF34
:103EE80080B487B000AF786039604FF00003FB748E
:103EF8004FF00003FB603B685B78012B0AD13B68FD
:103F08001B787A6803F104034FEA8303D3189B688C
:103F18007B6109E03B681B787A6803F114034FEA78
:103F28008303D3185B687B617B691B68FB60FB6854
:103F38006FF35553FB603B68DB78032B03D03B687A
:103F4800DB78022B03D1FB6843F08053FB60FA68EF
:103F58007B691A60FB7C184607F11C07BD4680BCCC
:103F6800704700BF80B485B000AF78607B681B697C
:103F78009B69FB607B681B69DB69FA681340FB601F
:103F8800FB684FEA1343184607F11407BD4680BC87
:103F9800704700BF80B485B000AF78600B46FB70F7
:103FA800FB787A6803F114034FEA8303D3185B683C
:103FB8009B68FB607B681B695B69FA681340FB6060
:103FC800FB68184607F11407BD4680BC704700BF60
:103FD80080B485B000AF78607B681B699B69FB6023
:103FE8007B681B69DB69FA681340FB60FB684FEA72
:103FF80003434FEA1343184607F11407BD4680BC34
:10400800704700BF80B487B000AF78604FF00003FE
:104018003B61FB7C43F0C003FB74BB7C4FF00102A7
:1040280062F3C403BB743B7C4FF0180262F30603CF
:104038003B747B685B6D3A691A617B68DB78012B9E
:1040480017D14FF00003FB607B685B6D7A6802F55F
:10405800B9625A617B685B6D1B68FB60FB6843F063
:104068000043FB604FF08023FB607B685B6DFA6860
:104078001A6007F11C07BD4680BC704780B586B042
:1040880000AF78607B68D3F81431002B3CD07B6894
:104098001B699B683B613B7C03F00103DBB2002B8F
:1040A80032D07B689B7A002B11D07B6803F586732E
:1040B8001B68FB60FB686FF34103FB60FB686FF3F1
:1040C8000003FB607B68D3F80C31FA681A604FF084
:1040D80000037B617B6943F001037B617B681B699B
:1040E8007A68126951687A690A435A604FF0050084
:1040F800FCF77CFC7B681B697A68126951687A69ED
:104108006FEA02020A405A6007F11807BD4680BDEF
:1041180080B485B000AF78607B689B7A002B1BD099
:104128007B681B699B68FB603B7B03F00103DBB288
:10413800002B11D07B6803F586731B68BB60BB68D6
:104148006FF34103BB60BB686FF30003BB607B6820
:10415800D3F80C31BA681A6007F11407BD4680BC61
:10416800704700BF80B584B000AF78607B684FF0BF
:10417800010283F812214FF00003FB6019E07A680E
:10418800FB6803F104034FEA8303D3189B684FF0DD
:10419800FF029A607A68FB6803F114034FEA83030D
:1041A800D3185B684FF0FF029A60FB6803F10103C4
:1041B800FB607B685B781A46FB689A42DFD87B68AD
:1041C8001B694FF000021A617B681B694FF00002FF
:1041D8005A617B681B694FF00002DA617B681B69D2
:1041E8004FF0FF329A617868FEF7F6FF78684FF073
:1041F8001001FEF7B1FF07F11007BD4680BD00BFF3
:1042080080B487B000AF786039604FF000037B61FD
:104218004FF00003FB603B685B78012B24D13B68BF
:104228001B787A6803F104034FEA8303D3189B6869
:104238003B613B691B68FB60BB7B03F02003DBB27F
:10424800002B03D04FF010037B6131E0BB7B03F000
:104258000203DBB2002B03D04FF020037B6127E081
:104268004FF030037B6123E03B681B787A6803F1E9
:1042780014034FEA8303D3185B683B613B691B68EF
:10428800FB60BB7B03F02003DBB2002B03D04FF4B1
:1042980080537B610CE0BB7B03F00203DBB2002B95
:1042A80003D04FF400537B6102E04FF440537B612D
:1042B8007B69184607F11C07BD4680BC704700BFE4
:1042C80080B586B000AFF860B9607A604FF000033F
:1042D8003B61BB685B78012B43D1BB681B78FA68EC
:1042E80003F104034FEA8303D3189B687B617B695E
:1042F8001B683B617B68102B04D1F868B968FFF72D
:10430800A5FD77E07B68202B04D13B6943F000636F
:104318003B616CE07B68302B1BD1BB7C03F0200336
:10432800DBB2002B08D0BB684FF000025A71F86866
:10433800B968FFF7D5FD5DE03B6943F080633B61F9
:104348003B6943F400433B613B6943F000433B61F5
:104358004DE07B68002B4AD13B696FF3CF333B615B
:1043680045E0BB681B78FA6803F114034FEA83033E
:10437800D3185B687B617B691B683B617B68B3F51D
:10438800805F04D13B6943F400133B612FE07B68F5
:10439800B3F5005F04D13B6943F000633B6126E05D
:1043A8007B68B3F5405F1BD1BB7C03F02003DBB215
:1043B800002B08D0BB684FF000025A71F868B96842
:1043C800FFF78EFD16E03B6943F080633B613B6974
:1043D80043F400433B613B6943F000433B6106E023
:1043E8007B68002B03D13B696FF3CF333B613A699C
:1043F8007B691A6007F11807BD4680BD80B584B097
:1044080000AF78600B46FB70FB7878681946FEF7BA
:104418008FFC7B684FF0010283F812217B684FF014
:10442800000283F813214FF00003FB602BE0FA68C9
:1044380013464FEA83039B184FEAC30303F58C73B3
:104448007A68D318BB60BB684FF001025A70FB68EA
:10445800DAB2BB681A70FB689AB2BB68DA80BB68CC
:104468004FF00002DA70BB684FF040029A60BB68F8
:104478004FF00002DA60BB684FF000025A61FB6837
:1044880003F10103FB607B685B781A46FB689A427C
:10449800CDD84FF00003FB602BE0FA6813464FEAD3
:1044A80083039B184FEAC30303F55C737A68D31838
:1044B800BB60BB684FF000025A70FB68DAB2BB6899
:1044C8001A70FB689AB2BB68DA80BB684FF00002CA
:1044D800DA70BB684FF040029A60BB684FF0000288
:1044E800DA60BB684FF000025A61FB6803F1010310
:1044F800FB607B685B781A46FB689A42CDD878687F
:10450800FEF70AFE7868FEF7EDFC78684FF00001C8
:10451800FEF798FE7868FEF73DFF7868FEF7DEFD47
:1045280007F11007BD4680BD80B584B000AF786044
:10453800F9703A80BB70FB785BB2002B0EDAFB781F
:1045480003F07F0213464FEA83039B184FEAC30325
:1045580003F58C737A68D318FB600DE0FB7803F0E1
:104568007F0213464FEA83039B184FEAC30303F500
:104578005C737A68D318FB60FB7803F07F03DAB2C8
:10458800FB681A70FB784FEAD313DBB21A46FB6854
:104598005A703A88FB689A60FB68BA78DA70FB68E8
:1045A8005B78002B04D0FB681B781A46FB68DA801E
:1045B800BB78022B03D1FB684FF000021A717868B0
:1045C800F968FFF70DF94FF00003184607F11007D7
:1045D800BD4680BD80B584B000AF78600B46FB70E7
:1045E800FB785BB2002B0EDAFB7803F07F021346F0
:1045F8004FEA83039B184FEAC30303F58C737A6869
:10460800D318FB600DE0FB7803F07F0213464FEAF6
:1046180083039B184FEAC30303F55C737A68D318C6
:10462800FB60FB7803F07F03DAB2FB681A70FB7853
:104638004FEAD313DBB21A46FB685A707868F968F8
:10464800FFF74AF94FF00003184607F11007BD4677
:1046580080BD00BF80B586B000AFF8607A600A46BA
:10466800FA723B81FB7A03F07F0213464FEA830319
:104678009B184FEAC30303F55C73FA68D3187B6190
:104688007B697A68DA603A897B695A617B694FF09D
:1046980000029A617B694FF000025A70FB7A03F0BE
:1046A8007F03DAB27B691A70FB68DB78012B02D1D1
:1046B8007A687B691A617B691B78002B04D1F868DA
:1046C8007969FFF7C3FA03E0F8687969FFF756F9E3
:1046D8004FF00003184607F11807BD4680BD00BF1C
:1046E80080B586B000AFF8607A603B600B46FB721D
:1046F800FB7A03F07F0213464FEA83039B184FEAC5
:10470800C30303F58C73FA68D3187B617B694FF098
:1047180001025A70FB7A03F07F03DAB27B691A70E0
:104728007B697A68DA607A687B691A617B694FF01D
:1047380000029A617B693A685A617B691B78002B91
:1047480004D1F8687969FFF781FA03E0F8687969B4
:10475800FFF714F94FF00003184607F11807BD4694
:1047680080BD00BF80B584B000AF78600B46FB7099
:10477800FB785BB2002B0EDAFB7803F07F0213465E
:104788004FEA83039B184FEAC30303F58C737A68D7
:10479800D318FB600BE0FA7813464FEA83039B18A3
:1047A8004FEAC30303F55C737A68D318FB60FB68B0
:1047B8004FF001029A70FB7803F07F03DAB2FB68CE
:1047C8001A70FB784FEAD313DBB21A46FB685A70AB
:1047D8007868F968FFF73AFB4FF00003184607F1CD
:1047E8001007BD4680BD00BF80B584B000AF7860BB
:1047F8000B46FB70FB785BB2002B0EDAFB7803F0FC
:104808007F0213464FEA83039B184FEAC30303F55D
:104818008C737A68D318FB600BE0FA7813464FEA7A
:1048280083039B184FEAC30303F55C737A68D318B4
:10483800FB60FB684FF000029A70FB7803F07F037F
:10484800DAB2FB681A70FB784FEAD313DBB21A4668
:10485800FB685A707868F968FFF742FB4FF000036D
:10486800184607F11007BD4680BD00BF80B582B06D
:1048780000AF78600B46FB70FB785BB2002B07DA61
:10488800FB7803F07F0378681946FEF765FC02E0C1
:104898007868FEF7A1FC4FF00003184607F10807F7
:1048A800BD4680BD80B485B000AF78600B46FB7014
:1048B8004FF00003FB60FB7803F07F03DAB2FB687C
:1048C80062F30A13FB607B681B697A6812691168D6
:1048D800FA680A431A6007F11407BD4680BC70479E
:1048E80080B584B000AF78607B681B695B68FB604B
:1048F800FB686FF34103FB607B681B69FA685A60C9
:104908004FF00300FCF772F807F11007BD4680BDB1
:1049180080B584B000AF78607B681B695B68FB601A
:10492800FB6843F00203FB607B681B69FA685A6006
:104938004FF00300FCF75AF807F11007BD4680BD99
:1049480080B584B000AF78600B46FB704FF0000371
:10495800BB60FB785BB2002B0EDAFB7803F07F02BA
:1049680013464FEA83039B184FEAC30303F58C737E
:104978007A68D318FB600BE0FA7813464FEA830392
:104988009B184FEAC30303F55C737A68D318FB607E
:104998007868F968FFF734FCB860BB68184607F117
:1049A8001007BD4680BD00BF80B586B000AFF86077
:1049B8000B467A60FB72FB7A5BB2002B0EDAFB7A4D
:1049C80003F07F0213464FEA83039B184FEAC303A1
:1049D80003F58C73FA68D3187B610BE0FA7A1346F7
:1049E8004FEA83039B184FEAC30303F55C73FA6825
:1049F800D3187B61F86879697A68FFF761FC07F179
:104A08001807BD4680BD00BF80B586B000AF78608E
:104A18004FF000037B617868FEF756FC0346002BD5
:104A280000F09E807868FEF773FC03463B613B69A3
:104A3800002B02D14FF0000393E0BB7C03F0080386
:104A4800DBB2002B06D0786800F044FA03467A6996
:104A580013437B61BB7C03F00403DBB2002B06D05D
:104A6800786800F021F903467A6913437B613B7C3F
:104A780003F00203DBB2002B0AD04FF00003FB6007
:104A8800FB6843F00203FB607B68DB68FA685A61E5
:104A9800FB7C23F07F03DBB2002B06D0786800F0A4
:104AA80065F803467A6913437B617B7C03F008034E
:104AB800DBB2002B06D0786800F09EF803467A69CE
:104AC80013437B613B7C03F00803DBB2002B06D069
:104AD800786800F0D7FA03467A6913437B613B7C18
:104AE80003F01003DBB2002B06D0786800F0E8FA78
:104AF80003467A6913437B617B7C03F01003DBB2C6
:104B0800002B06D0786800F0E5FB03467A6913436A
:104B18007B617B7C03F02003DBB2002B06D0786836
:104B280000F090FC03467A6913437B61BB7C03F079
:104B38001003DBB2002B06D0786800F0C7FC0346F0
:104B48007A6913437B61BB7C03F02003DBB2002B43
:104B580006D0786800F0D8FC03467A6913437B6175
:104B68007B69184607F11807BD4680BD80B586B039
:104B780000AF78607B689B7A002B11D07B6803F5C7
:104B880086731B68FB60FB686FF34103FB60FB687F
:104B98006FF30003FB607B68D3F80C31FA681A6086
:104BA8004FF000033B613B6943F001033B617B68C5
:104BB8001B697A68126951683A696FEA02020A4009
:104BC8005A6040F25413C2F200031B689B6978686C
:104BD80098474FF000037B617B6943F000437B619A
:104BE8007B68DB687A695A614FF00103184607F160
:104BF8001807BD4680BD00BF80B586B000AF78609D
:104C080040F25413C2F200031B685B697868984746
:104C18007B681B699B68FB604FF000037B617B69C5
:104C280043F400637B617B68DB687A695A617B685F
:104C38009B7A002B30D03B7B03F00103DBB2002BC7
:104C48002AD04FF000033B613B6943F001033B610D
:104C58007B68D3F80C317A68D2F80C2111683A696C
:104C68000A431A603B6943F002033B617B68D3F84F
:104C78000C317A68D2F80C2111683A690A431A6033
:104C88004FF46D43CEF200034FF46D42CEF20002B2
:104C9800126942F006021A614FF00103184607F143
:104CA8001807BD4680BD00BF80B586B000AF7860EC
:104CB8004FF000033B614FF00003BB607868FFF7DB
:104CC80087F97861FBE07B6903F00103002B00F0B2
:104CD800EE803B69DBB27868194600F033FC034686
:104CE800BB603B7A03F00103DBB2002B3AD03B698F
:104CF8004FF0010202FA03F3FB607B681B697A68D4
:104D08001269516BFA686FEA02020A405A634FF05F
:104D18000003BB60BB6843F00103BB607A683B6972
:104D280003F104034FEA8303D3189B68BA689A60B7
:104D380040F25413C2F200031B685B683A69D2B2AE
:104D48007868114698477B68DB78012B0AD13B6964
:104D5800002B07D17B6893F81131042B02D17868B6
:104D6800FFF750F93B7A03F00403DBB2002B10D0B5
:104D78004FF00003BB60BB6843F00403BB607A6874
:104D88003B6903F104034FEA8303D3189B68BA68AD
:104D98009A603B7A03F00803DBB2002B10D04FF087
:104DA8000003BB60BB6843F00803BB607A683B69DB
:104DB80003F104034FEA8303D3189B68BA689A6027
:104DC8003B7A03F01003DBB2002B10D04FF0000346
:104DD800BB60BB6843F01003BB607A683B6903F1B2
:104DE80004034FEA8303D3189B68BA689A603B7A36
:104DF80003F02003DBB2002B10D04FF00003BB60A0
:104E0800BB6843F02003BB607A683B6903F1040385
:104E18004FEA8303D3189B68BA689A603B7A03F019
:104E28004003DBB2002B10D04FF00003BB60BB681F
:104E380043F04003BB607A683B6903F104034FEA1F
:104E48008303D3189B68BA689A603B7A03F002031D
:104E5800DBB2002B10D04FF00003BB60BB6843F0FF
:104E68000203BB607A683B6903F104034FEA8303DA
:104E7800D3189B68BA689A603B7A23F07F03DBB249
:104E8800002B14D07868396900F0A4F94FF00003BA
:104E9800BB60BB6843F08003BB607A683B6903F181
:104EA80004034FEA8303D3189B68BA689A603B6986
:104EB80003F101033B617B694FEA53037B617B6923
:104EC800002B7FF400AF4FF00103184607F11807D5
:104ED800BD4680BD80B586B000AF78604FF0000356
:104EE8003B614FF00003FB607868FFF73BF878619F
:104EF800BDE07B6903F00103002B00F0B0803B6943
:104F0800DBB278681946FFF745F80346FB603B7B40
:104F180003F00103DBB2002B54D04FF00003FB6019
:104F2800FB6843F00103FB607A683B6903F11403F3
:104F38004FEA8303D3185B68FA689A607B68DB786A
:104F4800012B25D17A683B6903F114034FEA8303E7
:104F5800D3185B681B69BB6079683A6913464FEAE6
:104F680083039B184FEAC303CB1803F55E731A68D3
:104F7800BB68C3F31203D11A78683A6913464FEA3B
:104F880083039B184FEAC303C31803F562731960C0
:104F980040F25413C2F200031B681B683A69D2B28C
:104FA8007868114698477B68DB78012B0AD13B6902
:104FB800002B07D17B6893F81131052B02D1786853
:104FC800FFF720F83B7B03F00203DBB2002B10D085
:104FD8004FF00003FB60FB6843F00203FB607A6854
:104FE8003B6903F114034FEA8303D3185B68FA683B
:104FF8009A603B7B03F00403DBB2002B10D04FF028
:105008000003FB60FB6843F00403FB607A683B69BC
:1050180003F114034FEA8303D3185B68FA689A60B4
:105028003B7B03F00803DBB2002B18D040F254138B
:10503800C2F200031B689B68786898474FF000032A
:10504800FB60FB6843F00803FB607A683B6903F187
:1050580014034FEA8303D3185B68FA689A603B69C4
:1050680003F101033B617B694FEA53037B617B6971
:10507800002B7FF43EAF4FF00103184607F11807E5
:10508800BD4680BD80B584B000AF786040F254134F
:10509800C2F200031B68DB68786898474FF000038A
:1050A800FB60FB6843F00803FB607B68DB68FA6819
:1050B8005A614FF00103184607F11007BD4680BD3D
:1050C80080B586B000AF78604FF000033B613B6964
:1050D80043F010033B617B68DB687A68D2689169AA
:1050E8003A696FEA02020A409A617B68DB681B6AC8
:1050F800FB60FB68C3F30303DBB21A4613464FEAAF
:1051080083039B184FEAC30303F55C737A68D318CB
:105118007B61FB68C3F34343DBB203F1FF33052B29
:1051280046D801A252F823F0B951000849510008A5
:10513800B9510008B9510008B95100089351000845
:10514800BA8947F6F07313409BB2002B32D07B69C3
:10515800DA68FB68C3F30A139BB2786811461A46EB
:10516800FDF7B2FD7B69DA68FB68C3F30A139BB2EB
:10517800D2187B69DA607B699A69FB68C3F30A1302
:105188009BB2D2187B699A6114E07B6803F5B96316
:10519800786819464FF00802FDF796FD7B699A6911
:1051A800FB68C3F30A139BB2D2187B699A6102E0C9
:1051B80000BF00E000BF7B68DB687A68D26891694D
:1051C8003A690A439A614FF00103184607F1180734
:1051D800BD4680BD80B586B000AF786039604FF0BD
:1051E80000037B614FF00003BB603A6813464FEA47
:1051F80083039B184FEAC30303F58C737A68D318AB
:10520800FB60FB685A69FB689B69D31A7B61FB6882
:105218009A687B699A4202D2FB689B687B617B69CA
:1052280003F103034FEA93033B617A683B6803F198
:1052380004034FEA8303D3189B689B69BB6032E081
:10524800FB685A69FB689B69D31A7B61FB689A689B
:105258007B699A4202D2FB689B687B617B6903F198
:1052680003034FEA93033B61FB68D9683B68DAB2F2
:105278007B699BB27868FDF7E5FCFB68DA687B69B7
:10528800D218FB68DA60FB689A697B69D218FB68F8
:105298009A617A683B6803F104034FEA8303D318E1
:1052A8009B689B69BB603B891A463B699A4209D94E
:1052B800FB689A69FB685B699A4203D2FB685B6981
:1052C800002BBDD14FF00103184607F11807BD4662
:1052D80080BD00BF80B58AB000AF78604FF0000392
:1052E8003B614FF000033B624FF00003FB614FF05E
:1052F8000003BB614FF000037B614FF00003FB60CC
:105308003B6943F001033B617B681B697A6812695A
:1053180051683A696FEA02020A405A6078684FF0A9
:105328000001FDF719FF4FF000037B6219E07A686E
:105338007B6A03F104034FEA8303D3189B684FF099
:10534800FF029A607A687B6A03F114034FEA8303C9
:10535800D3185B684FF0FF029A607B6A03F1010380
:105368007B627B685B781A467B6A9A42DFD87B68E7
:105378001B694FF0FF329A613B6A4FF0010262F3FA
:105388000F033B623B6A4FF0010262F31F433B622B
:105398007B681B693A6ADA61FB6943F00803FB61C1
:1053A800FB6943F00103FB61FB6943F00403FB6104
:1053B800FB6943F00203FB617B681B69FA695A6168
:1053C800BB6943F00103BB61BB6943F00803BB61E0
:1053D800BB6943F00203BB61BB6943F00403BB61D3
:1053E800BB6943F02003BB617B681B69BA691A611A
:1053F8007B681B691B687B617B696FF30A137B61A0
:105408007B681B697A691A607868FEF7FBFD4FF0C4
:105418000003FB60FB6843F48053FB607B68DB6838
:10542800FA685A6140F25413C2F200031B681B6900
:10543800786898474FF00103184607F12807BD46DA
:1054480080BD00BF80B584B000AF78607868FEF793
:1054580087F97B68DB68DB68BB607868FEF758F91A
:105468000346032B0ED17B684FF000029A707B68CD
:105478004FF400729A80BB684FF0090262F38D23E3
:10548800BB600DE07B684FF001029A707B684FF0BB
:1054980040029A80BB684FF0050262F38D23BB601F
:1054A8007B68DB68BA68DA604FF00003FB60FB6872
:1054B80043F40053FB607B68DB68FA685A614FF07D
:1054C8000103184607F11007BD4680BD80B584B0BA
:1054D80000AF78604FF00003FB6040F25413C2F253
:1054E80000031B68DB6978689847FB6843F48013FE
:1054F800FB607B68DB68FA685A614FF00103184665
:1055080007F11007BD4680BD80B584B000AF786054
:105518004FF00003FB6040F25413C2F200031B6813
:105528001B6A78689847FB6843F40013FB607B6844
:10553800DB68FA685A614FF00103184607F1100753
:10554800BD4680BD80B487B000AF78600B46FB7065
:105558007B681B691B697B617B681B695B6B3B61B3
:10556800FB783A6922FA03F34FEAC313DBB27A698C
:1055780013437B61FB787A6803F104034FEA8303E2
:10558800D3189B689A687B691340FB60FB681846D0
:1055980007F11C07BD4680BC704700BF80B584B0CA
:1055A80000AF78600B46FB707B68D3F8EC3503F1ED
:1055B80039031B8878684FF081011A464FF00203BF
:1055C800FEF7B2FF7B68D3F8EC3503F140031B8884
:1055D80078684FF001011A464FF00203FEF7A4FF66
:1055E80078684FF082014FF008024FF00303FEF78E
:1055F8009BFF40F25003C2F20003FB60FB6803F11B
:1056080004034FF002021A70FB6803F105034FF020
:1056180000021A7040F22003C2F200031B68984788
:105628007B68D3F8EC3503F140031B8878684FF0AA
:10563800010141F2F402C2F20002FFF70BF84FF049
:105648000003184607F11007BD4680BD80B582B03B
:1056580000AF78600B46FB7078684FF08101FEF769
:10566800B9FF78684FF00101FEF7B4FF78684FF092
:105678008201FEF7AFFF40F22003C2F200035B682D
:1056880098474FF00003184607F10807BD4680BD4C
:1056980080B584B000AF786039603B681B7803F050
:1056A8006003002B58D0202B4FD13B68DB88002BA0
:1056B8003BD03B681B78DBB25BB2002B1ADA40F2B6
:1056C8002003C2F200039B683A68527811463A6890
:1056D800D288084641F23411C2F2000198473B686B
:1056E800DB88786841F23411C2F200011A4600F0F2
:1056F800A1FC27E03B685B781A4640F2F803C2F247
:1057080000031A603B68DB881A4640F64C23C2F255
:1057180000031A603B68DB88786841F23411C2F2F2
:1057280000011A4600F0C2FC0CE040F22003C2F26D
:1057380000039B683A68527810464FF000014FF01A
:10574800000298474FF0000344E07868396801F098
:10575800C5F94FF002033DE03B685B780A2B19D08E
:105768000B2B21D0062B33D13B685B884FEA1323E0
:105778009BB2212B07D11A4BBB603B68DB883A2BC5
:1057880028BF3A23FB81FB897868B9681A4600F07C
:1057980051FC1DE0786840F63821C2F200014FF054
:1057A800010200F047FC13E03B685B88DBB2002B8A
:1057B80009D13B685B88DBB21A4640F63823C2F24F
:1057C80000031A6003E07868396801F087F900BFC0
:1057D8004FF00003184607F11007BD4680BD00BF13
:1057E800C600002090B583B000AF786040F2F8039F
:1057F800C2F200031B68FF2B1CD040F22003C2F248
:1058080000039C6840F2F803C2F200031A6840F6ED
:105818004C23C2F200031B68104641F23411C2F255
:1058280000011A46A04740F2F803C2F200034FF005
:10583800FF021A604FF00003184607F10C07BD4637
:1058480090BD00BF80B584B000AF78600B46FB7098
:1058580040F64823C2F200031B78012B7BD140F6A7
:105868004423C2F200031B68002B07D140F64823EB
:10587800C2F200034FF000021A706CE07B68D3F8A4
:10588800EC3503F139031B881A4640F64423C2F26B
:1058980000031B689A422FD240F64023C2F200034D
:1058A8001B68FB817B68D3F8EC35B3F83930BB81D2
:1058B8007B68D3F8EC3503F139031B881A4640F6A8
:1058C8004023C2F200031B68D21840F64023C2F2FC
:1058D80000031A6040F64423C2F200031A687B688A
:1058E800D3F8EC3503F139031B88D21A40F6442368
:1058F800C2F200031A6022E040F64023C2F200031D
:105908001B68FB8140F64423C2F200031B68BB817D
:1059180040F64023C2F200031A6840F64423C2F25C
:1059280000031B68D21840F64023C2F200031A6035
:1059380040F64423C2F200034FF000021A60FA89CD
:1059480041F23C13C2F20003D218BB8978684FF0C9
:105958008101FEF7C5FE4FF00003184607F1100756
:10596800BD4680BD80B584B000AF78600B46FB7043
:10597800FA78796813464FEA83039B184FEAC30302
:10598800CB1803F562731B68FB8140F22003C2F257
:1059980000031B69FA8941F2F400C2F200001146C3
:1059A80098477B68D3F8EC3503F140031B88786887
:1059B8004FF0010141F2F402C2F20002FEF74AFE82
:1059C8004FF00003184607F11007BD4680BD00BF21
:1059D80080B582B000AF786040F65023C2F2000371
:1059E8001B68052B14BF00220122D2B203F101016A
:1059F80040F65023C2F200031960002A09D040F68D
:105A08005023C2F200034FF000021A60786800F0D9
:105A180007F84FF00003184607F10807BD4680BD98
:105A280080B584B000AF786040F64823C2F2000326
:105A38001B78012B00F0C08040F64023C2F200031F
:105A48001B68B3F5006F06D140F64023C2F200038D
:105A58004FF000021A6040F64023C2F200031A68B1
:105A680040F63C23C2F200031B689A4207D140F675
:105A78004823C2F200034FF000021A709CE040F67F
:105A88004023C2F200031A6840F63C23C2F2000326
:105A98001B689A420CD940F64023C2F200031B68E7
:105AA800C3F5006240F64423C2F200031A600FE017
:105AB80040F63C23C2F200031A6840F64023C2F2C3
:105AC80000031B68D21A40F64423C2F200031A608E
