:020000040800F2
:100000000000022015280008890300089503000855
:100010009D030008A5030008AD03000800000000D0
:10002000000000000000000000000000B503000810
:10003000C103000800000000CD030008D903000838
:10004000652800086528000865280008652800085C
:10005000652800086528000865280008652800084C
:10006000652800086528000865280008652800083C
:10007000652800086528000865280008652800082C
:10008000652800086528000865280008652800081C
:10009000652800086528000865280008652800080C
:1000A00065280008652800086528000865280008FC
:1000B00065280008652800086528000865280008EC
:1000C00065280008652800086528000865280008DC
:1000D00065280008652800086528000865280008CC
:1000E00065280008652800086528000865280008BC
:1000F00065280008652800086528000865280008AC
:10010000652800086528000865280008652800089B
:10011000652800086528000865280008652800088B
:10012000652800086528000865280008652800087B
:10013000652800086528000865280008652800086B
:10014000652800086528000865280008652800085B
:10015000652800086528000865280008652800084B
:10016000652800086528000865280008652800083B
:10017000652800086528000865280008652800082B
:0801800065280008652800084D
:1001880010B5054C237833B9044810B10448AFF3CF
:1001980000800121217010BD7004002000000000C3
:1001A800A428000808B5064B1BB106480649AFF35A
:1001B80000800648016811B1054A02B1904708BDA0
:1001C80000000000A4280008740400206C0400202B
:1001D80000000000154B002B08BF134B9D46A3F5EC
:1001E800803A00218B460F461348144A121A02F02F
:1001F80023F90F4B002B00D098470E4B002B00D053
:1002080098470020002104460D4600200C49002292
:10021800002302F039F802F0C5F82046294600F01C
:1002280011F802F087F800BF000008000000000085
:100238000000000000000000700400209804002066
:100248005D23000880B500AF4FF46D43CEF2000384
:100258004FF46D42CEF20002D2F8882042F47002C8
:10026800C3F888204FF008004FF0010101F030FB7F
:1002780040F28C43C2F200034FF470421A6040F21D
:100288008C43C2F200034FF001021A7140F28C4312
:10029800C2F200034FF000029A7140F28C43C2F29E
:1002A80000034FF003025A7140F28C43C2F200037C
:1002B8004FF00002DA714FF44060C4F2020040F2DD
:1002C8008C41C2F2000100F08BFD4FF44060C4F293
:1002D80002004FF4805100F0BDFE4FF6FF70C0F2EF
:1002E8003F0000F037F84FF44060C4F202004FF4CA
:1002F800005100F0AFFE4FF6FF70C0F23F0000F073
:1003080029F84FF44060C4F202004FF4804100F035
:10031800A1FE4FF6FF70C0F23F0000F01BF84FF44B
:100328004060C4F202004FF4004100F093FE4FF623
:10033800FF70C0F27F0000F00DF84FF44060C4F287
:1003480002004FF4704100F093FE6FF07F4000F020
:1003580001F8BAE780B483B000AF786000BF7B686B
:10036800002B0CBF00220122D2B203F1FF337B60C5
:10037800002AF4D107F10C07BD4680BC704700BFC6
:1003880080B400AFBD4680BC704700BF80B400AFEA
:10039800FEE700BF80B400AFFEE700BF80B400AF47
:1003A800FEE700BF80B400AFFEE700BF80B400AF37
:1003B800BD4680BC704700BF80B400AFBD4680BC5E
:1003C800704700BF80B400AFBD4680BC704700BF17
:1003D80080B400AFBD4680BC704700BF80B500AF99
:1003E8004FF46053C4F202034FF46052C4F20202A5
:1003F800126842F001021A604FF46053C4F202031B
:100408004FF000029A604FF46053C4F202034FF4B5
:100418006052C4F20202126822F0847222F480321E
:100428001A604FF46053C4F2020343F21002C2F29E
:1004380000425A604FF46053C4F202034FF4605212
:10044800C4F20202126822F480221A604FF4605348
:10045800C4F202034FF00002DA6000F0C1F84FF472
:100468006D43CEF200034FF000629A6080BD00BF7A
:1004780080B487B000AF4FF000033B614FF000033A
:100488007B614FF00203FB604FF00003BB604FF04D
:1004980002037B604FF46053C4F202039B6803F0CD
:1004A8000C033B613B69042B0DD0082B15D0002BA6
:1004B80069D140F20403C2F200034FF41052C0F2B3
:1004C800F4021A6069E040F20403C2F200034FF438
:1004D8009052C0F27A021A605FE04FF46053C4F29F
:1004E80002035B6803F480034FEA9353BB604FF445
:1004F8006053C4F202035B6803F03F037B60BB6890
:10050800002B14D04FF49053C0F27A037A68B3FBEF
:10051800F2F24FF46053C4F20203596847F6C0730D
:100528000B404FEA931303FB02F37B6113E04FF494
:100538001053C0F2F4037A68B3FBF2F24FF460533D
:10054800C4F20203596847F6C0730B404FEA93138D
:1005580003FB02F37B614FF46053C4F202035B6850
:1005680003F440334FEA134303F101034FEA430313
:10057800FB607A69FB68B2FBF3F240F20403C2F253
:1005880000031A6009E040F20403C2F200034FF4CA
:100598001052C0F2F4021A6000BF4FF46053C4F264
:1005A80002039B6803F0F0034FEA131240F20803BA
:1005B800C2F200039B5CDBB23B6140F20403C2F26F
:1005C80000031A683B6922FA03F240F20403C2F2FC
:1005D80000031A6007F11C07BD4680BC704700BFC6
:1005E80080B483B000AF4FF000037B604FF000038E
:1005F8003B604FF46053C4F202034FF46052C4F2FC
:100608000202126842F480321A604FF46053C4F256
:1006180002031B6803F400333B607B6803F10103AA
:100628007B603B68002B03D17B68B3F5A06FECD1EE
:100638004FF46053C4F202031B6803F40033002B29
:1006480003D04FF001033B6002E04FF000033B6032
:100658003B68012B40F082804FF46053C4F20203E0
:100668004FF46052C4F20202126C42F080521A64D3
:100678004FF4E043C4F200034FF4E042C4F2000236
:10068800126842F480421A604FF46053C4F20203C5
:100698004FF46052C4F2020292689A604FF46053B9
:1006A800C4F202034FF46052C4F20202926842F4A8
:1006B80000429A604FF46053C4F202034FF4605250
:1006C800C4F20202926842F4A0529A604FF4605356
:1006D800C4F2020345F20842C0F240725A604FF475
:1006E8006053C4F202034FF46052C4F2020212686B
:1006F80042F080721A6000BF4FF46053C4F20203E4
:100708001B6803F00073002BF6D04FF47053C4F24B
:10071800020340F205621A604FF46053C4F2020308
:100728004FF46052C4F20202926822F003029A6007
:100738004FF46053C4F202034FF46052C4F2020251
:10074800926842F002029A6000BF4FF46053C4F20C
:1007580002039B6803F00C03082BF6D107F10C0782
:10076800BD4680BC704700BF80B584B000AF03466B
:10077800FB71FA7942F67403C0F6000353F822308D
:1007880018464FF0010101F0A3F8FA7942F66C031C
:10079800C0F6000333F81230BB604FF001033B731F
:1007A8004FF00003BB734FF00103FB734FF00203DC
:1007B8007B73FA7940F21803C2F2000353F822203F
:1007C80007F108031046194600F00AFB07F1100765
:1007D800BD4680BD80B483B000AF0346FB71FA7993
:1007E80040F21803C2F2000353F82220F97942F6C6
:1007F8006C03C0F6000333F81130138307F10C07BC
:10080800BD4680BC704700BF80B483B000AF0346CC
:10081800FB71FA7940F21803C2F2000353F8222060
:10082800F97942F66C03C0F6000333F811305383AC
:1008380007F10C07BD4680BC704700BF80B483B089
:1008480000AF0346FB71FA7940F21803C2F20003C5
:1008580053F82220F97940F21803C2F2000353F842
:1008680021305969F87942F66C03C0F6000333F871
:1008780010304B40536107F10C07BD4680BC7047F0
:1008880080B588B000AF02460B46FA71BB71FA79A1
:1008980042F68803C0F6000353F8223018464FF09A
:1008A800010101F015F84FF480404FF0010101F00B
:1008B800B7F84FF000033B774FF00003FB77FA7966
:1008C80042F68403C0F6000333F81230BB61FA79AC
:1008D80040F22803C2F2000353F8222007F118035C
:1008E8001046194600F07CFABB79012B3AD1FA7907
:1008F80042F69003C0F600039A5CF97942F6940335
:10090800C0F600035B5C1046194601F01DFCFA793D
:1009180042F68C03C0F6000333F812303B614FF007
:1009280000033B754FF008037B754FF00103BB755F
:1009380007F11003184600F061F8FA7942F69803B7
:10094800C0F600039B5C3B734FF00F037B734FF0C3
:100958000F03BB734FF00103FB7307F10C03184639
:1009680001F0FAFA07F12007BD4680BD80B582B0D4
:1009780000AF0346FB71FA7940F22803C2F2000384
:1009880053F82220F97942F68403C0F6000333F8BD
:1009980011301046194600F005FB0346184607F1CA
:1009A8000807BD4680BD00BF80B400AF4FF4705348
:1009B800C4F201034FF000021A604FF47053C4F2FE
:1009C80001034FF000025A604FF47053C4F2010360
:1009D8004FF000029A604FF47053C4F201034FF0D5
:1009E8000002DA604FF47053C4F201034FF6FF724D
:1009F800C0F27F025A61BD4680BC704780B485B0A2
:100A080000AF78604FF00003FB604FF47053C4F2FE
:100A18000103FB607B689B79002B78D04FF47053FF
:100A2800C4F201034FF47052C4F2010211687A68EB
:100A380012686FEA02020A401A604FF47053C4F257
:100A480001034FF47052C4F2010251687A681268C7
:100A58006FEA02020A405A607B681B79FA68D31869
:100A6800FB60FB68FA6811687A6812680A431A60C2
:100A78004FF47053C4F201034FF47052C4F20102F0
:100A880091687A6812686FEA02020A409A604FF425
:100A98007053C4F201034FF47052C4F20102D168DA
:100AA8007A6812686FEA02020A40DA607B685B794A
:100AB800102B1AD14FF47053C4F201034FF4705243
:100AC800C4F2010291687A6812680A439A604FF486
:100AD8007053C4F201034FF47052C4F20102D1689A
:100AE8007A6812680A43DA601FE04FF47053C4F260
:100AF8000103FB607B685B79FA68D318FB60FB68CD
:100B0800FA6811687A6812680A431A600DE07B680F
:100B18001B79FA68D318FB60FB68FA6811687A6871
:100B280012686FEA02020A401A6007F11407BD460C
:100B380080BC704780B483B000AF78607B684FF0AA
:100B480000021A607B684FF000021A717B684FF050
:100B58000C025A717B684FF000029A7107F10C077A
:100B6800BD4680BC704700BF80B483B000AF7860DA
:100B78004FF47053C4F201034FF47052C4F20102EF
:100B880011697A680A431A6107F10C07BD4680BCEF
:100B9800704700BF80B485B000AF78604FF00003A5
:100BA800FB734FF47053C4F201035A697B68134016
:100BB800002B03D04FF00103FB7302E04FF000035A
:100BC800FB73FB7B184607F11407BD4680BC7047D2
:100BD80080B483B000AF78604FF47053C4F201035F
:100BE8007A685A6107F10C07BD4680BC704700BFA0
:100BF80080B485B000AF78604FF00003FB734FF00E
:100C08000003BB604FF47053C4F201031A687B6899
:100C18001340BB604FF47053C4F201035A697B68F8
:100C28001340002B06D0BB68002B03D04FF0010304
:100C3800FB7302E04FF00003FB73FB7B184607F1E0
:100C48001407BD4680BC704780B483B000AF78609D
:100C58004FF47053C4F201037A685A6107F10C0724
:100C6800BD4680BC704700BF80B582B000AF7860D9
:100C78007A684FF00003C4F202039A420CD14FF095
:100C880001004FF0010100F0F5FE4FF001004FF0B8
:100C9800000100F0EFFE9EE07A684FF48063C4F232
:100CA80002039A420CD14FF002004FF0010100F00C
:100CB800E1FE4FF002004FF0000100F0DBFE8AE099
:100CC8007A684FF40063C4F202039A420CD14FF0E1
:100CD80004004FF0010100F0CDFE4FF004004FF08A
:100CE800000100F0C7FE76E07A684FF44063C4F272
:100CF80002039A420CD14FF008004FF0010100F0B6
:100D0800B9FE4FF008004FF0000100F0B3FE62E0BA
:100D18007A684FF48053C4F202039A420CD14FF020
:100D280010004FF0010100F0A5FE4FF010004FF049
:100D3800000100F09FFE4EE07A684FF4A053C4F221
:100D480002039A420CD14FF020004FF0010100F04D
:100D580091FE4FF020004FF0000100F08BFE3AE0CA
:100D68007A684FF4C053C4F202039A420CD14FF090
:100D780040004FF0010100F07DFE4FF040004FF0C1
:100D8800000100F077FE26E07A684FF4E053C4F2E1
:100D980002039A420CD14FF080004FF0010100F09D
:100DA80069FE4FF080004FF0000100F063FE12E092
:100DB8007A684FF40053C4F202039A420BD14FF4FD
:100DC80080704FF0010100F055FE4FF480704FF035
:100DD800000100F04FFE07F10807BD4680BD00BFC7
:100DE80080B487B000AF786039604FF000037B6152
:100DF8004FF000033B614FF00003FB604FF000032E
:100E08007B6186E07B694FF0010202FA03F33B61E4
:100E18003B681A683B691340FB60FA683B699A4271
:100E280073D17B681A687B694FEA43034FF003016B
:100E380001FA03F36FEA03031A407B681A607B68C0
:100E48001A683B681B7919467B694FEA430301FA24
:100E580003F31A437B681A603B681B79012B03D0A4
:100E68003B681B79022B34D17B689A687B694FEA0F
:100E780043034FF0030101FA03F36FEA03031A4037
:100E88007B689A607B689A683B685B7919467B69DE
:100E98004FEA430301FA03F31A437B689A607B68BD
:100EA8005A687B699BB24FF0010101FA03F36FEABC
:100EB80003031A407B685A607B685A683B689B79D1
:100EC80019467B699BB201FA03F39BB21A437B680C
:100ED8005A607B68DA687B699BB24FEA43034FF03C
:100EE800030101FA03F36FEA03031A407B68DA602F
:100EF8007B68DA683B68DB7919467B694FEA43030C
:100F080001FA03F31A437B68DA607B6903F1010392
:100F18007B617B690F2B7FF675AF07F11C07BD4618
:100F280080BC704780B483B000AF78607B684FF6B0
:100F3800FF721A607B684FF000021A717B684FF0ED
:100F480000025A717B684FF000029A717B684FF07B
:100F58000002DA7107F10C07BD4680BC704700BF7C
:100F680080B485B000AF78600B467B804FF4803347
:100F7800FB607A88FB681343FB60FA687B68DA6178
:100F88007A887B68DA61FA687B68DA617B68DB6992
:100F9800FB607B68DB69FB6007F11407BD4680BC1A
:100FA800704700BF80B485B000AF78600B467B8087
:100FB8004FF00003FB737B681A697B881340002B92
:100FC80003D04FF00103FB7302E04FF00003FB7303
:100FD800FB7B184607F11407BD4680BC704700BF6D
:100FE80080B483B000AF78607B681B699BB21846F9
:100FF80007F10C07BD4680BC704700BF80B485B0C0
:1010080000AF78600B467B804FF00003FB737B6872
:101018005A697B881340002B03D04FF00103FB7300
:1010280002E04FF00003FB73FB7B184607F114073F
:10103800BD4680BC704700BF80B483B000AF786005
:101048007B685B699BB2184607F10C07BD4680BCFC
:10105800704700BF80B483B000AF78600B467B80D8
:101068007B687A881A8307F10C07BD4680BC7047F5
:1010780080B483B000AF78600B467B807B687A8849
:101088005A8307F10C07BD4680BC704780B483B013
:1010980000AF786013460A467A807B707B78002B15
:1010A80003D07B687A881A8302E07B687A885A833F
:1010B80007F10C07BD4680BC704700BF80B483B001
:1010C80000AF78600B467B807A887B685A6107F1AD
:1010D8000C07BD4680BC704780B483B000AF786011
:1010E8000B467B807B685A697B885A407B685A61CB
:1010F80007F10C07BD4680BC704700BF80B485B0BF
:1011080000AF786013460A467A807B704FF0000380
:10111800FB604FF00003BB607A787B8803F007031D
:101128004FEA830302FA03F3FB607B884FEAD30399
:101138009BB21A467B884FEAD3039BB219467B6859
:1011480001F1080153F821107B8803F007034FEAE7
:1011580083034FF00F0000FA03F36FEA030319400B
:101168007B6802F1080243F822107B884FEAD30318
:101178009BB21A467B6802F1080253F82220FB68EA
:101188001343BB607B884FEAD3039BB21A467B6844
:1011980002F10802B96843F8221007F11407BD46A6
:1011A80080BC704780B400AF4FF46053C4F20203B0
:1011B8004FF46052C4F20202126842F001021A604F
:1011C8004FF46053C4F202034FF000029A604FF4E8
:1011D8006053C4F202034FF46052C4F20202126870
:1011E80022F0847222F480321A604FF46053C4F201
:1011F800020343F21002C2F200425A604FF46053F5
:10120800C4F202034FF46052C4F20202126822F4DC
:1012180080221A604FF46053C4F202034FF00002B8
:10122800DA60BD4680BC704780B483B000AF034627
:10123800FB7143F60203C4F202034FF000021A7076
:1012480043F60203C4F20203FA791A7007F10C0795
:10125800BD4680BC704700BF80B582B000AF4FF07C
:1012680000033B604FF00003FB714FF00003BB71BC
:101278004FF0310000F0D2FD0346BB713B6803F12B
:1012880001033B603B68B3F5A06F02D0BB79002B2C
:10129800EED04FF0310000F0C1FD0346002B03D023
:1012A8004FF00103FB7102E04FF00003FB71FB7983
:1012B800184607F10807BD4680BD00BF80B485B059
:1012C80000AF0346FB714FF00003FB604FF460531F
:1012D800C4F202031B68FB60FB6823F0F803FB60A1
:1012E800FB794FEAC303FA681343FB604FF460537A
:1012F800C4F20203FA681A6007F11407BD4680BCFD
:10130800704700BF80B483B000AF0346FB714FF055
:101318000003C4F24723FA791A6007F10C07BD46A7
:1013280080BC704780B483B000AF0346FB7143F6BE
:101338007003C4F202034FF000021A7043F6700300
:10134800C4F202034FF000021A70FB79012B02D09D
:10135800042B08D00FE043F67003C4F202034FF0E9
:1013680001021A7008E043F67003C4F202034FF05A
:1013780005021A7000E000BF07F10C07BD4680BCEB
:10138800704700BF80B483B000AF0346FB714FF4D1
:101398006863C4F24723FA791A6007F10C07BD465F
:1013A80080BC704780B485B000AFF860B9607A60DF
:1013B8003B604FF46053C4F202037A684FEA82112B
:1013C800BA6811433A684FEA520202F1FF324FEA13
:1013D80002421143FA681143BA694FEA02620A43AA
:1013E8005A6007F11407BD4680BC704780B483B0CB
:1013F80000AF0346FB714FF06003C4F24723FA794C
:101408001A6007F10C07BD4680BC704780B483B0F2
:1014180000AF786039604FF46053C4F202037A6811
:101428004FEA82113A684FEA02720A43C3F88420ED
:1014380007F10C07BD4680BC704700BF80B483B07D
:1014480000AF0346FB714FF06803C4F24723FA79F3
:101458001A6007F10C07BD4680BC704780B483B0A2
:1014680000AF0346FB714FF04C03C4F24723FA79EF
:101478001A6007F10C07BD4680BC704780B485B080
:1014880000AF786039604FF00003FB604FF46053A1
:10149800C4F202039B68FB60FB6823F0EC63FB600B
:1014A8007A683B681343FA681343FB604FF4605350
:1014B800C4F20203FA689A6007F11407BD4680BCBB
:1014C800704700BF80B485B000AF786039604FF0D6
:1014D8000003FB604FF46053C4F202039B68FB6097
:1014E800FB6823F07843FB607A683B681343FA682B
:1014F8001343FB604FF46053C4F20203FA689A6026
:1015080007F11407BD4680BC704700BF80B485B0A2
:1015180000AF78604FF00003FB604FF46053C4F2F3
:1015280002039B68FB60FB6823F00303FB60FA6817
:101538007B681343FB604FF46053C4F20203FA68FC
:101548009A6007F11407BD4680BC704780B400AFAD
:101558004FF46053C4F202039B68DBB203F00C0340
:10156800DBB21846BD4680BC704700BF80B485B06A
:1015780000AF78604FF00003FB604FF46053C4F293
:1015880002039B68FB60FB6823F0F003FB60FA68CA
:101598007B681343FB604FF46053C4F20203FA689C
:1015A8009A6007F11407BD4680BC704780B485B0C7
:1015B80000AF78604FF00003FB604FF46053C4F253
:1015C80002039B68FB60FB6823F4E053FB60FA6846
:1015D8007B681343FB604FF46053C4F20203FA685C
:1015E8009A6007F11407BD4680BC704780B485B087
:1015F80000AF78604FF00003FB604FF46053C4F213
:1016080002039B68FB60FB6823F46043FB607B6814
:101618004FEAC303FA681343FB604FF46053C4F204
:101628000203FA689A6007F11407BD4680BC704748
:1016380080B489B000AF78604FF00003BB614FF011
:1016480000037B614FF00003FB614FF002033B6135
:101658004FF00003FB604FF00203BB604FF4605390
:10166800C4F202039B6803F00C03BB61BB69042B43
:101678000AD0082B0FD0002B60D17A684FF4105392
:10168800C0F2F403136060E07A684FF49053C0F23C
:101698007A03136059E04FF46053C4F202035B68A5
:1016A80003F480034FEA9353FB604FF46053C4F292
:1016B80002035B6803F03F03BB60FB68002B14D098
:1016C8004FF49053C0F27A03BA68B3FBF2F24FF4C6
:1016D8006053C4F20203596847F6C0730B404FEADF
:1016E800931303FB02F3FB6113E04FF41053C0F2B2
:1016F800F403BA68B3FBF2F24FF46053C4F2020386
:10170800596847F6C0730B404FEA931303FB02F383
:10171800FB614FF46053C4F202035B6803F4403387
:101728004FEA134303F101034FEA43033B61FA69AC
:101738003B69B2FBF3F27B681A6006E07A684FF403
:101748001053C0F2F403136000BF4FF46053C4F2A7
:1017580002039B6803F0F003BB61BB694FEA1313F4
:10176800BB6140F22C03C2F20003BA699B181B78D4
:10177800DBB27B617B681A687B6922FA03F27B68BB
:101788005A604FF46053C4F202039B6803F4E053B9
:10179800BB61BB694FEA9323BB6140F22C03C2F2E1
:1017A8000003BA699B181B78DBB27B617B685A68B7
:1017B8007B6922FA03F27B689A604FF46053C4F2A3
:1017C80002039B6803F46043BB61BB694FEA533370
:1017D800BB6140F22C03C2F20003BA699B181B7864
:1017E800DBB27B617B685A687B6922FA03F27B680B
:1017F800DA6007F12407BD4680BC704780B485B025
:1018080000AF78604FF00003FB607B6803F440731F
:10181800B3F5407F17D14FF46053C4F202039B68BD
:10182800FB60FB6823F4F813FB607B6823F07043CC
:1018380023F44073FA681343FB604FF46053C4F217
:101848000203FA689A604FF46053C4F202034FF43B
:101858006052C4F20202116F7A684FEA02524FEAEC
:1018680012520A431A6707F11407BD4680BC704735
:1018780080B483B000AF0346FB7140F63C63C4F20A
:101888004723FA791A6007F10C07BD4680BC7047F8
:1018980080B483B000AF0346FB714FF46463C4F2B5
:1018A8004723FA791A6007F10C07BD4680BC7047D8
:1018B80080B483B000AF78604FF4AE73C4F24723AE
:1018C8007A681A6007F10C07BD4680BC704700BFF4
:1018D80080B483B000AF78600B46FB70FB78002BB8
:1018E8000CD04FF46053C4F202034FF46052C4F2B8
:1018F8000202116B7A680A431A630DE04FF46053D1
:10190800C4F202034FF46052C4F20202116B7A6807
:101918006FEA02020A401A6307F10C07BD4680BC51
:10192800704700BF80B483B000AF78600B46FB708F
:10193800FB78002B0CD04FF46053C4F202034FF431
:101948006052C4F20202516B7A680A435A630DE08E
:101958004FF46053C4F202034FF46052C4F202021F
:10196800516B7A686FEA02020A405A6307F10C0762
:10197800BD4680BC704700BF80B483B000AF7860BC
:101988000B46FB70FB78002B0CD04FF46053C4F26D
:1019980002034FF46052C4F20202916B7A680A4360
:1019A8009A630DE04FF46053C4F202034FF460529F
:1019B800C4F20202916B7A686FEA02020A409A63E3
:1019C80007F10C07BD4680BC704700BF80B483B0E8
:1019D80000AF78600B46FB70FB78002B0CD04FF4FF
:1019E8006053C4F202034FF46052C4F20202116C55
:1019F8007A680A431A640DE04FF46053C4F2020394
:101A08004FF46052C4F20202116C7A686FEA020263
:101A18000A401A6407F10C07BD4680BC704700BF36
:101A280080B483B000AF78600B46FB70FB78002B66
:101A38000CD04FF46053C4F202034FF46052C4F266
:101A48000202516C7A680A435A640DE04FF46053FD
:101A5800C4F202034FF46052C4F20202516C7A6875
:101A68006FEA02020A405A6407F10C07BD4680BCBF
:101A7800704700BF80B483B000AF78600B46FB703E
:101A8800FB78002B0CD04FF46053C4F202034FF4E0
:101A98006052C4F2020211697A680A431A610DE0C1
:101AA8004FF46053C4F202034FF46052C4F20202CE
:101AB80011697A686FEA02020A401A6107F10C0795
:101AC800BD4680BC704700BF80B483B000AF78606B
:101AD8000B46FB70FB78002B0CD04FF46053C4F21C
:101AE80002034FF46052C4F2020251697A680A4351
:101AF8005A610DE04FF46053C4F202034FF4605290
:101B0800C4F2020251697A686FEA02020A405A6115
:101B180007F10C07BD4680BC704700BF80B483B096
:101B280000AF78600B46FB70FB78002B0CD04FF4AD
:101B38006053C4F202034FF46052C4F20202916986
:101B48007A680A439A610DE04FF46053C4F20203C5
:101B58004FF46052C4F2020291697A686FEA020295
:101B68000A409A6107F10C07BD4680BC704700BF68
:101B780080B483B000AF78600B46FB70FB78002B15
:101B88000CD04FF46053C4F202034FF46052C4F215
:101B98000202116A7A680A431A620DE04FF4605330
:101BA800C4F202034FF46052C4F20202116A7A6866
:101BB8006FEA02020A401A6207F10C07BD4680BCB0
:101BC800704700BF80B483B000AF78600B46FB70ED
:101BD800FB78002B0CD04FF46053C4F202034FF48F
:101BE8006052C4F20202516A7A680A435A620DE0EE
:101BF8004FF46053C4F202034FF46052C4F202027D
:101C0800516A7A686FEA02020A405A6207F10C07C1
:101C1800BD4680BC704700BF80B483B000AF786019
:101C28000B46FB70FB78002B0CD04FF46053C4F2CA
:101C380002034FF46052C4F20202116D7A680A433B
:101C48001A650DE04FF46053C4F202034FF460527A
:101C5800C4F20202116D7A686FEA02020A401A653C
:101C680007F10C07BD4680BC704700BF80B483B045
:101C780000AF78600B46FB70FB78002B0CD04FF45C
:101C88006053C4F202034FF46052C4F20202516D71
:101C98007A680A435A650DE04FF46053C4F20203B0
:101CA8004FF46052C4F20202516D7A686FEA020280
:101CB8000A405A6507F10C07BD4680BC704700BF53
:101CC80080B483B000AF78600B46FB70FB78002BC4
:101CD8000CD04FF46053C4F202034FF46052C4F2C4
:101CE8000202916D7A680A439A650DE04FF46053D9
:101CF800C4F202034FF46052C4F20202916D7A6892
:101D08006FEA02020A409A6507F10C07BD4680BCDB
:101D1800704700BF80B483B000AF78600B46FB709B
:101D2800FB78002B0CD04FF46053C4F202034FF43D
:101D38006052C4F20202116E7A680A431A660DE014
:101D48004FF46053C4F202034FF46052C4F202022B
:101D5800116E7A686FEA02020A401A6607F10C07E8
:101D6800BD4680BC704700BF80B483B000AF7860C8
:101D78000B46FB70FB78002B0CD04FF46053C4F279
:101D880002034FF46052C4F20202516E7A680A43A9
:101D98005A660DE04FF46053C4F202034FF46052E8
:101DA800C4F20202516E7A686FEA02020A405A6669
:101DB80007F10C07BD4680BC704700BF80B483B0F4
:101DC80000AF02460B46FA71BB71BB79002B0ED0EF
:101DD80043F60D03C4F2020343F60D02C4F20202F5
:101DE8001278D1B2FA790A43D2B21A7010E043F6E7
:101DF8000D03C4F2020343F60D02C4F20202127884
:101E0800D1B2FA796FEA0202D2B20A40D2B21A709B
:101E180007F10C07BD4680BC704700BF80B487B08F
:101E280000AF0346FB714FF00003FB604FF0000367
:101E38007B614FF00003FB74FB794FEA5313DBB26D
:101E4800FB60FB68012B06D14FF46053C4F2020318
:101E58001B687B610FE0FB68022B06D14FF46053CF
:101E6800C4F202031B6F7B6105E04FF46053C4F2B8
:101E780002035B6F7B61FB7903F01F03FB60FB6868
:101E88007A6922FA03F303F00103002B03D04FF021
:101E98000103FB7402E04FF00003FB74FB7C18465F
:101EA80007F11C07BD4680BC704700BF80B400AF77
:101EB8004FF46053C4F202034FF46052C4F20202BA
:101EC800526F42F080725A67BD4680BC704700BFAF
:101ED80080B485B000AF0346FB714FF00003FB737D
:101EE8004FF46053C4F20203DA68FB791340002B05
:101EF80003D04FF00103FB7302E04FF00003FB73C4
:101F0800FB7B184607F11407BD4680BC704700BF2D
:101F180080B483B000AF0346FB7143F60E03C4F2EE
:101F28000203FA791A7007F10C07BD4680BC7047A6
:101F380080B483B000AF78604FF46D43CEF20003F5
:101F48007A6842F0BF6242F40032DA6007F10C07A7
:101F5800BD4680BC704700BF80B485B000AF7860D4
:101F68004FF00003FB734FF00003BB734FF00F03F8
:101F78007B737B68DB78002B45D04FF46D43CEF242
:101F88000003DB686FEA030303F4E0634FEA1323FB
:101F9800FB73FB7BC3F10403BB737A7BFB7B42FAC5
:101FA80003F37B737B685B781A46BB7B02FA03F307
:101FB800FB737B689A787B7B1340DAB2FB7B134315
:101FC800FB73FB7B4FEA0313FB734FF46143CEF2C1
:101FD80000037A6812789B18FA7B83F800234FF481
:101FE8006143CEF200037A6812784FEA5212D2B2F5
:101FF8007968097801F01F014FF0010000FA01F13A
:1020080043F8221014E04FF46143CEF200037A68DB
:1020180012784FEA5212D2B27968097801F01F019A
:102028004FF0010000FA01F102F1200243F82210FA
:1020380007F11407BD4680BC704700BF80B483B069
:1020480000AF786039604FF46D43CEF200033A6810
:1020580022F0604222F07F0279680A439A6007F111
:102068000C07BD4680BC704780B483B000AF024601
:102078000B46FA71BB71BB79002B0CD04FF46D4342
:10208800CEF200034FF46D42CEF200021169FA79E4
:102098000A431A610DE04FF46D43CEF200034FF48A
:1020A8006D42CEF200021169FA796FEA02020A4023
:1020B8001A6107F10C07BD4680BC704780B483B035
:1020C80000AF78607B68042B0CD14EF21003CEF27F
:1020D80000034EF21002CEF20002126842F004022F
:1020E8001A600BE04EF21003CEF200034EF210021B
:1020F800CEF20002126822F004021A6007F10C07FF
:10210800BD4680BC704700BF80B500AF4FF480402B
:102118004FF00101FFF756FD4FF480404FF00001EA
:10212800FFF750FD80BD00BF80B483B000AF034609
:10213800FB714FF46053C4F20103FA791A6007F196
:102148000C07BD4680BC704790B484B000AF02460F
:102158000B46FA71BB714FF00003FB60BB7903F0CB
:1021680003034FEA83034FF00F0202FA03F3FB6005
:102178004FF46053C4F20103BA794FEA9202D2B223
:1021880010464FF46052C4F20102B9794FEA910146
:10219800C9B201F1020152F82110FA686FEA02028D
:1021A800114000F1020243F822104FF46053C4F2C8
:1021B8000103BA794FEA9202D2B210464FF4605244
:1021C800C4F20102B9794FEA9101C9B201F10201E1
:1021D80052F82110FC79BA7902F003024FEA820220
:1021E80004FA02F2114300F1020243F8221007F147
:1021F8001007BD4690BC704780B483B000AF7860CC
:102208004FF0DC03C4F227237A681A6007F10C0741
:10221800BD4680BC704700BF80B483B000AF0346A2
:10222800FB714FF48063C4F22723FA791A6007F12F
:102238000C07BD4680BC704780B483B000AF4FF038
:102248000003FB714FF46053C4F201031B6A03F4EB
:102258008073002B03D04FF00103FB7102E04FF0B5
:102268000003FB71FB79184607F10C07BD4680BCDB
:10227800704700BFD4280008000000206C0400202C
:1022880070040020980400202DE9F041274C2568AF
:10229800D5F8484184B00746002C41D066681F2E07
:1022A8001CDD234810B94FF0FF301FE04FF4C87011
:1022B800039102920193AFF300800399029A019B64
:1022C80004460028EFD0D5F84861002060602660F9
:1022D800C5F84841C4F88801C4F88C01656847B955
:1022E800A81C013544F820106560002004B0BDE842
:1022F800F081D4F88861012004EB850800FA05F024
:102308000643022FC8F88820C4F88861C8F8083145
:10231800E6D1D4F88C3143EA0002C4F88C21DFE717
:1023280005F5A674C5F84841B8E700BFA02800081D
:102338000000000008B50021044600F01DF9044B18
:102348001868C16B01B18847204600F089FA00BFC0
:10235800A028000870B5114B114C181B811018D01B
:1023680004EB81044E1E354654F8042D06F0010690
:10237800904775B126B154F8043D9847013D08D0FF
:1023880054F8040D8047013D54F8041D8847013D69
:10239800F6D1BDE8704000F089BA00BFD428000823
:1023A800D0280008F8B5204F204C381B871017D0CC
:1023B8007A1E2368012502F001069847AF420FD024
:1023C8002EB154F8041F02258847AF4208D0606830
:1023D80080470235A268261D90470834AF42F6D1DF
:1023E800134F144C00F05CFA3B1B9F1018D07D1E55
:1023F800216805F0010601258847AF4211D02EB1AA
:1024080054F8040F02258047AF420BD0626890470A
:102418000235A368261D98470834AF42F6D1F8BDA7
:10242800F8BDF8BDF8BD00BFC8280008C8280008D6
:10243800D0280008C8280008F0B48407034600F034
:102448008E80541E002A00F08880E507CEB211D491
:102458001A46671E02F8016B1346154692070FD0FD
:10246800002C7AD003F8016B9A073C461D4607D02A
:10247800013CEDE7034603F8016B9A071D46F7D1C7
:10248800032C52D9CEB246EA06270F2C47EA074357
:102498002DD9A4F1100217460F2FC2F300162B6096
:1024A8006B60AB60EB6005F1100216D93EB1103FCE
:1024B800136053609360D36010320F2F0DD9203F03
:1024C80002F11006136053609360D3601361536187
:1024D8009361D36120320F2FF1D8A4F1100222F0BA
:1024E8000F0204F00F041032032C15441DD9271FC6
:1024F8003E462A46032E42F8043BC7F380070DD90F
:1025080027B1043E032E42F8043B07D91746083E7C
:1025180047F8043B53603A1D032EF7D8231F23F0D6
:102528000302131D04F00304ED18B4B12B46C9B21D
:1025380003F8011B2C19ED436219A34202F00105AF
:102548000BD01DB103F8011BA34206D01A4602F8AE
:10255800011B5970531CA342F8D1F0BC70470546C3
:1025680014468DE7024B13B1024800F049B9704791
:10257800000000005D2300082DE9F04F9F4B87B055
:102588001A68049002F5A47003920D4605904FF066
:10259800010A0399DDF81490D1F84841002C43D082
:1025A8006268B2F1010838D404F1880B1F320BEBD2
:1025B800820308F0010C002D00F08C805BF822608B
:1025C800AE4200F087801E1F08F1FF37B8F1000FF8
:1025D80023D0BCF1000F0BD0002D00F0A28053F8DF
:1025E800043CAB4200F09D80013F043E7B1C14D0AC
:1025F800B846E5B13768AF4219D008F1FF37A6F100
:102608000408002D3FD056F8046CAE423BD0A8F128
:10261800040607F1FF38002FEBD140F20002C0F2A8
:102628000002002A40F0DA8007B0BDE8F08F616848
:10263800CBEB0602A0184F1E474550F8783C00F037
:102648009280002240F8782C002BD6D0D4F888113C
:1026580067680AFA08F008423AD0D4F88C21104288
:1026680040F09780049856F8801C98476368BB42EE
:102678008FD1D9F80010A1428BD108F1FF37A6F10C
:102688000408002DBFD16368CBEB0800591E22183F
:10269800B94252F8783C69D0002642F8786C002B91
:1026A800B5D0D4F8880166680AFA07F2024236D033
:1026B800D4F88C110A4270D058F8800C9847636897
:1026C800B3427FF466AFD9F80000A0429FD060E71C
:1026D8009847CBE76268CBEB0300561E21184645A6
:1026E80051F8782C70D0002041F8780C002A3FF47B
:1026F8006AAFD4F8880166680AFA08F1014237D04F
:10270800D4F88C01014255D153F8801C04980293E7
:10271800CDF804C09047029BDDF804C02FE098472D
:10272800CDE76168CBEB06002218481EB84252F884
:10273800783C4CD0002142F8781C002B3FF454AF71
:10274800D4F88801D4F804800AFA07F2024229D1A1
:102758009847636843457FF41CAFD9F80000A0424E
:102768003FF442AF15E7C4F804806DE7676096E769
:102778000293CDF804C09047029BDDF804C062685C
:10278800B2427FF406AFD9F80010A1423FF41BAF64
:10279800FFE656F8800C984768E7049858F8801CBC
:1027A80098478CE7D4F88C110A4212D056F8800C5E
:1027B8009847CEE753F8800C0293CDF804C09047B1
:1027C800029BDDF804C0DAE7C4F804808EE767608E
:1027D800B3E7049856F8801C9847BAE7616849B986
:1027E800236843B12046C9F80030AFF30080D9F818
:1027F8000040D3E62368A1461C46CFE6A02800087F
:102808000146002002460346FFF73EBD002100F0C6
:1028180004B80D4B5B58435004310C480C4B42181C
:102828009A42FFF4F6AF0B4A00F003B8002342F8CF
:10283800043B094B9A42FFF4F9AFFDF7CFFDFFF7D0
:10284800B1FDFDF7FFFC7047D42800080000002008
:102858006C0400207004002098040020FFF7FEBFDD
:10286800FEE700BF001000200040008008000000C4
:102878000800000008000000080000000100000037
:10288800010000000100000000000000000000003E
:102898000600000043000000400000200000000087
:1028A800F8B500BFF8BC08BC9E467047F8B500BF35
:0828B800F8BC08BC9E46704705
:0828C0001CD9FF7F010000009C
:0828C8006D250008AD010008B8
:0428D0008901000872
:1028D40000000000007A030A00000000000000006D
:1028E4000102030406070809000C0240000C024020
:1028F400000C0240000C02400000024000000000F6
:102904000102030401020304060708090000000091
:10291400000000002C03002094030020FC0300208E
:1029240000000000000000000000000000000000A3
:102934000000000000000000000000000000000093
:10294400000000009C2800080000000000000000B7
:102954000000000000000000000000000000000073
:102964000000000000000000000000000000000063
:102974000000000000000000000000000000000053
:102984000000000000000000000000000000000043
:102994000000000000000000000000000000000033
:1029A4000000000000000000000000000000000023
:1029B4000000000000000000010000000000000012
:1029C4000E33CDAB34126DE6ECDE05000B000000D7
:1029D40000000000000000000000000000000000F3
:1029E40000000000000000000000000000000000E3
:1029F40000000000000000000000000000000000D3
:102A040000000000000000000000000000000000C2
:0C2D340000000000000000004000002033
:042D4000000000008F
:0400000508002815B2
:00000001FF
