:020000040800F2
:1000000000000220216C0008910300089D030008F5
:10001000A5030008AD030008B503000800000000B8
:10002000000000000000000000000000BD03000808
:10003000C903000800000000D5030008E103000820
:10004000716C0008716C0008716C0008716C00081C
:10005000716C0008716C0008716C0008716C00080C
:10006000716C0008716C0008716C0008716C0008FC
:10007000716C0008716C0008716C0008716C0008EC
:10008000716C0008716C0008716C0008716C0008DC
:10009000716C0008716C0008716C0008716C0008CC
:1000A000716C0008716C0008716C0008716C0008BC
:1000B000716C0008716C0008716C0008716C0008AC
:1000C000716C0008716C0008716C0008716C00089C
:1000D000716C0008716C0008716C0008716C00088C
:1000E000716C0008716C0008716C0008716C00087C
:1000F000716C0008716C0008716C0008716C00086C
:10010000716C000859030008716C0008716C0008DC
:10011000716C0008716C0008716C0008716C00084B
:10012000716C0008716C0008716C0008716C00083B
:10013000716C0008716C0008716C0008716C00082B
:10014000716C0008716C0008716C0008716C00081B
:10015000716C0008716C0008716C0008716C00080B
:10016000716C0008716C0008716C0008716C0008FB
:10017000716C0008716C0008716C0008716C0008EB
:08018000716C0008716C0008AD
:1001880010B5054C237833B9044810B10448AFF3CF
:1001980000800121217010BD5804002000000000DB
:1001A800806C000808B5064B1BB106480649AFF33A
:1001B80000800648016811B1054A02B1904708BDA0
:1001C80000000000806C00085C040020540400203B
:1001D80000000000154B002B08BF134B9D46A3F5EC
:1001E800803A00218B460F461348144A121A06F02B
:1001F80029FB0F4B002B00D098470E4B002B00D04B
:1002080098470020002104460D4600200C49002292
:10021800002306F03FFA06F0CBFA2046294600F004
:1002280011F806F08DFA00BF000008000000000079
:1002380000000000000000005804002060050020B5
:100248006967000880B5ADF5047D00AF4FF0080080
:100258004FF0010104F08AFE4FF47043C7F80032F2
:100268004FF0010387F804324FF0020387F8053294
:100278004FF0000387F806324FF0010387F8073282
:1002880007F500734FF44060C4F20200194604F009
:10029800F5F800F063FC0346002B08D04FF44060EB
:1002A800C4F202004FF4005104F022FA4BE04FF080
:1002B800310387F808324FF0000387F809324FF00E
:1002C800000387F80A324FF0010387F80B3207F56D
:1002D8000273184605F08EF94FF00003C7F80C3288
:1002E8000CE03A46D7F80C32D3184FF022021A70B5
:1002F800D7F80C3203F10103C7F80C32D7F80C22F7
:1003080040F2FF139A42ECDD3B4618464FF00001DD
:100318004FF4007202F07EF802F0FEFB00BF00F01E
:1003280097FC0346002BFAD14FF44060C4F2020058
:100338004FF4004104F01EFA4FF6FF70C0F20F00B0
:1003480000F00CF8F0E7184607F50477BD4680BDC5
:1003580080B500AF02F0A0FF80BD00BF80B483B0BD
:1003680000AF786000BF7B68002B0CBF0022012221
:10037800D2B203F1FF337B60002AF4D107F10C07F6
:10038800BD4680BC704700BF80B400AFBD4680BC8E
:10039800704700BF80B400AFFEE700BF80B400AF75
:1003A800FEE700BF80B400AFFEE700BF80B400AF37
:1003B800FEE700BF80B400AFBD4680BC704700BFF9
:1003C80080B400AFBD4680BC704700BF80B400AFAA
:1003D800BD4680BC704700BF80B400AFBD4680BC3E
:1003E800704700BF80B500AF4FF46053C4F20203FA
:1003F8004FF46052C4F20202126842F001021A601D
:100408004FF46053C4F202034FF000029A604FF4B5
:100418006053C4F202034FF46052C4F2020212683D
:1004280022F0847222F480321A604FF46053C4F2CE
:10043800020343F21002C2F200425A604FF46053C2
:10044800C4F202034FF46052C4F20202126822F4AA
:1004580080221A604FF46053C4F202034FF0000286
:10046800DA6000F0C1F84FF46D43CEF200034FF0AC
:1004780000629A6080BD00BF80B487B000AF4FF0C3
:1004880000033B614FF000037B614FF00203FB6008
:100498004FF00003BB604FF002037B604FF46053E2
:1004A800C4F202039B6803F00C033B613B69042B15
:1004B8000DD0082B15D0002B69D140F20403C2F2ED
:1004C80000034FF41052C0F2F4021A6069E040F2DF
:1004D8000403C2F200034FF49052C0F27A021A6089
:1004E8005FE04FF46053C4F202035B6803F48003D7
:1004F8004FEA9353BB604FF46053C4F202035B6846
:1005080003F03F037B60BB68002B14D04FF490537B
:10051800C0F27A037A68B3FBF2F24FF46053C4F284
:100528000203596847F6C0730B404FEA931303FB65
:1005380002F37B6113E04FF41053C0F2F4037A68BE
:10054800B3FBF2F24FF46053C4F20203596847F662
:10055800C0730B404FEA931303FB02F37B614FF424
:100568006053C4F202035B6803F440334FEA134359
:1005780003F101034FEA4303FB607A69FB68B2FBAE
:10058800F3F240F20403C2F200031A6009E040F2F9
:100598000403C2F200034FF41052C0F2F4021A60CE
:1005A80000BF4FF46053C4F202039B6803F0F003EA
:1005B8004FEA131240F20803C2F200039B5CDBB25D
:1005C8003B6140F20403C2F200031A683B6922FA55
:1005D80003F240F20403C2F200031A6007F11C0799
:1005E800BD4680BC704700BF80B483B000AF4FF0F9
:1005F80000037B604FF000033B604FF46053C4F28C
:1006080002034FF46052C4F20202126842F48032CC
:100618001A604FF46053C4F202031B6803F40033FA
:100628003B607B6803F101037B603B68002B03D1CF
:100638007B68B3F5A06FECD14FF46053C4F20203AA
:100648001B6803F40033002B03D04FF001033B6019
:1006580002E04FF000033B603B68012B40F08280D2
:100668004FF46053C4F202034FF46052C4F2020222
:10067800126C42F080521A644FF4E043C4F2000353
:100688004FF4E042C4F20002126842F480421A6059
:100698004FF46053C4F202034FF46052C4F20202F2
:1006A80092689A604FF46053C4F202034FF46052A8
:1006B800C4F20202926842F400429A604FF4605316
:1006C800C4F202034FF46052C4F20202926842F488
:1006D800A0529A604FF46053C4F2020345F20842F4
:1006E800C0F240725A604FF46053C4F202034FF4F0
:1006F8006052C4F20202126842F080721A6000BFAF
:100708004FF46053C4F202031B6803F00073002B1C
:10071800F6D04FF47053C4F2020340F205621A6037
:100728004FF46053C4F202034FF46052C4F2020261
:10073800926822F003029A604FF46053C4F20203F5
:100748004FF46052C4F20202926842F002029A60C8
:1007580000BF4FF46053C4F202039B6803F00C031C
:10076800082BF6D107F10C07BD4680BC704700BFC7
:1007780080B582B000AF4FF0000005F02FF94FF0C0
:10078800000005F03BF905F0C3F84FF400604FF0A6
:10079800000104F093FC4FF40060C4F202004FF033
:1007A80008014FF0000203F0F7FF4FF40060C4F2B5
:1007B80002004FF009014FF0000203F0EDFF4FF483
:1007C8000060C4F202004FF00A014FF0000203F08B
:1007D800E3FF4FF40060C4F202004FF00B014FF04A
:1007E800000203F0D9FF4FF40060C4F202004FF09A
:1007F8000C014FF0000203F0CFFF4FF44060C4F249
:1008080002004FF002014FF0000203F0C5FF4FF461
:1008180070633B604FF000033B714FF00003FB71C6
:100828003B464FF40060C4F20200194603F026FE6E
:100838004FF004033B603B464FF44060C4F20200B3
:10084800194603F01BFE4FF480533B603B464FF4C0
:100858000060C4F20200194603F010FE07F1080711
:10086800BD4680BD80B582B000AF4FF00C004FF0A0
:10087800010104F07BFB4FF40060C4F202004FF06A
:1008880008014FF00C0203F087FF4FF40060C4F238
:1008980002004FF009014FF00C0203F07DFF4FF406
:1008A8000060C4F202004FF00A014FF00C0203F09E
:1008B80073FF4FF40060C4F202004FF00B014FF0D9
:1008C8000C0203F069FF4FF40060C4F202004FF01D
:1008D8000C014FF00C0203F05FFF4FF44060C4F2CC
:1008E80002004FF002014FF00C0203F055FF4FF4E5
:1008F80070633B604FF001037B714FF002033B7163
:100908004FF00003BB714FF00103FB713B464FF4FE
:100918000060C4F20200194603F0B0FD4FF0040372
:100928003B603B464FF44060C4F20200194603F0B6
:10093800A5FD4FF480533B604FF00003FB713B462D
:100948004FF40060C4F20200194603F097FD4FF01F
:1009580002033B604FF000033B714FF00103FB7152
:100968003B464FF44060C4F20200194603F086FD8E
:100978004FF400604FF0010104F0A0FB4FF4800039
:100988004FF0010104F0F2FA07F10807BD4680BDF7
:1009980080B592B000AF7860396046F25840C4F232
:1009A80002004FF0FA5105F071FD46F25840C4F2CA
:1009B80002004FF0000105F01FFC46F25840C4F257
:1009C800020005F059FA4FF00063FB604FF4325310
:1009D800C4F201033B617B687B614FF04003BB615C
:1009E8004FF00003FB614FF000033B624FF480635C
:1009F8007B624FF48053BB624FF48043FB624FF03D
:100A080000033B634FF440337B634FF00403BB6345
:100A18004FF00303FB634FF400033B644FF40013F0
:100A28007B6407F10C0346F25840C4F202001946F1
:100A380005F044FB46F25840C4F202004FF01001A2
:100A48004FF0010205F052FD46F25840C4F2020090
:100A58004FF0200105F006FC46F25840C4F20200AF
:100A68004FF0010105F0C8FB07F14807BD4680BDFE
:100A780080B592B000AF7860396046F25840C4F251
:100A880002004FF0FA5105F001FD46F25840C4F259
:100A980002004FF0000105F0AFFB46F25840C4F2E7
:100AA800020005F0E9F94FF00063FB604FF43253A0
:100AB800C4F201033B617B687B614FF00003BB61BB
:100AC8004FF00003FB614FF000033B624FF480637B
:100AD8007B624FF48053BB624FF48043FB624FF05C
:100AE80000033B634FF440337B634FF00403BB6365
:100AF8004FF00303FB634FF400033B644FF4001310
:100B08007B6407F10C0346F25840C4F20200194610
:100B180005F0D4FA46F25840C4F202004FF0100132
:100B28004FF0010205F0E2FC46F25840C4F2020020
:100B38004FF0200105F096FB46F25840C4F202003F
:100B48004FF0010105F058FB07F14807BD4680BD8D
:100B580080B500AFFFF70CFE80BD00BF80B582B046
:100B680000AF4FF00003FB71FFF77CFE04F0D0FEEE
:100B780000F0CEF80346FB71FB79DBB2002B02D004
:100B8800FB79DBB25FE000F099FA0346FB71FB7971
:100B9800DBB2002B02D0FB79DBB254E040F23053D9
:100BA800C2F200034FF002021A7540F23053C2F24B
:100BB80000034FF000021A6040F23053C2F2000303
:100BC8004FF000025A6040F23053C2F200034FF077
:100BD80000029A6040F23053C2F200034FF0000264
:100BE800DA6040F23053C2F200034FF000021A619B
:100BF80040F23050C2F2000004F09AFE40F2D840B1
:100C0800C2F2000000F094FB0346FB71FB79DBB2F3
:100C1800002B0CD140F2D843C2F20003B3F8543091
:100C28004FEA0343184601F09FF80346FB71FB792E
:100C3800DBB2002B05D14FF4006000F0E7FF03465C
:100C4800FB71FB79DBB2184607F10807BD4680BD8A
:100C580080B582B000AF4FF00403FB7100F016F8C6
:100C68000346FB71FB79042B02D14FF0000307E028
:100C7800FB79FF2B02D14FF0020301E04FF0010393
:100C8800184607F10807BD4680BD00BF80B582B091
:100C980000AF4FF000037B6000F01EF80346012B05
:100CA80012D107F10403184602F026F90346002B77
:100CB80002D04FF0FF0309E07B684FEA5323DBB211
:100CC80003F00F03DBB201E04FF0FF03184607F112
:100CD8000807BD4680BD00BF80B582B000AF4FF0A9
:100CE8000103FB714FF44060C4F202004FF00201AF
:100CF80003F0A6FC0346002B02D04FF00003FB7163
:100D0800FB79DBB2184607F10807BD4680BD00BF76
:100D180080B586B000AF4FF00003FB714FF00003C1
:100D28007B614FF000033B614FF00003FB604FF025
:100D38000003BB6040F23053C2F200034FF076026A
:100D48001A7540F23053C2F200034FF000021A60E5
:100D580040F23053C2F200034FF000025A6040F2F2
:100D68003053C2F200034FF000029A6040F2305351
:100D7800C2F200034FF00002DA6040F23053C2F2D0
:100D880000034FF000021A6140F23050C2F2000036
:100D980004F0CEFD4FF0030004F030FE4FF00100E8
:100DA80004F01CFE40F2C043C2F200034FF0000200
:100DB8001A6040F2C043C2F200034FF000025A60CA
:100DC80040F2C043C2F200034FF000029A6040F2C2
:100DD800C043C2F200034FF00002DA6040F2C043A1
:100DE800C2F200034FF480621A6140F2C040C2F2BE
:100DF800000004F021FE02F0F3FA0346FB71FB79D0
:100E0800DBB2002B02D0FB79DBB242E140F2C043F7
:100E1800C2F200034FF4D5721A6040F2C043C2F226
:100E280000034FF008025A6040F2C043C2F20003C8
:100E38004FF040029A6040F2C043C2F200034FF004
:100E48000002DA6040F2C043C2F200034FF480624D
:100E58001A6140F2C040C2F2000004F0EDFD02F059
:100E6800E9FA0346FB71FB79DBB2002B0AD140F2A9
:100E78007443C2F200034FF001021A604FF080433E
:100E8800BB602EE040F2C043C2F200034FF0000204
:100E98001A6040F2C043C2F200034FF037025A60B2
:100EA80040F2C043C2F200034FF040029A6040F2A1
:100EB800C043C2F200034FF00002DA6040F2C043C0
:100EC800C2F200034FF480621A6140F2C040C2F2DD
:100ED800000004F0B1FD4FF0370002F0F3FA0346CA
:100EE800FB7140F2C043C2F200034FF000021A60E7
:100EF80040F2C043C2F200034FF037025A6040F29A
:100F0800C043C2F200034FF040029A6040F2C0436F
:100F1800C2F200034FF00002DA6040F2C043C2F2AE
:100F280000034FF480621A6140F2C040C2F2000030
:100F380004F082FD4FF0370002F0C4FA0346FB715B
:100F4800FB79DBB2002B40F0A2807EE040F2C04388
:100F5800C2F200034FF000021A6040F2C043C2F22E
:100F680000034FF037025A6040F2C043C2F2000358
:100F78004FF040029A6040F2C043C2F200034FF0C3
:100F88000002DA6040F2C043C2F200034FF480620C
:100F98001A6140F2C040C2F2000004F04DFD4FF06B
:100FA800370002F08FFA0346FB71FB79DBB2002BA6
:100FB80002D0FB79DBB26CE0BB6843F0004242F43C
:100FC800801240F2C043C2F200031A6040F2C043EC
:100FD800C2F200034FF029025A6040F2C043C2F245
:100FE80000034FF040029A6040F2C043C2F200038F
:100FF8004FF00002DA6040F2C043C2F200034FF43F
:1010080080621A6140F2C040C2F2000004F014FD90
:1010180002F048FB0346FB71FB79DBB2002B02D0E0
:10102800FB79DBB235E04FF0000004F063FD786136
:101038007B694FEAD373012B14BF00230123DBB272
:10104800FB603B6903F101033B61FB68002B05D1A1
:101058003A694FF6FE739A427FF678AF3A694FF6CF
:10106800FE739A4205D94FF01B03FB71FB79DBB283
:101078000FE07B6903F080437B617B69002B06D01E
:1010880040F27443C2F200034FF002021A60FB7987
:10109800DBB2184607F11807BD4680BD80B582B09F
:1010A80000AF4FF00003FB714FF0000004F0A6FC06
:1010B800FB79184607F10807BD4680BD80B582B0A8
:1010C80000AF4FF00003FB714FF00103BB8004F049
:1010D800A5FC0346002B04D14FF02503FB71FB79D7
:1010E80021E140F27443C2F200031B68042B59D07B
:1010F80040F2C043C2F200034FF000021A6040F20F
:10110800C043C2F200034FF002025A6040F2C043EB
:10111800C2F200034FF0C0029A6040F2C043C2F22C
:1011280000034FF00002DA6040F2C043C2F200034D
:101138004FF480621A6140F2C040C2F2000004F02D
:101148007BFC02F0DFFA0346FB71FB79002B01D030
:10115800FB79E8E04FF0000004F0CCFC024640F2D6
:101168008843C2F200031A604FF0040004F0C2FC86
:10117800024640F28843C2F200035A604FF008006A
:1011880004F0B8FC024640F28843C2F200039A60B9
:101198004FF00C0004F0AEFC024640F28843C2F265
:1011A8000003DA6040F27443C2F200031B68002BAC
:1011B80014D040F27443C2F200031B68012B0DD017
:1011C80040F27443C2F200031B68062B06D040F2BB
:1011D8007443C2F200031B68022B36D140F2C043AD
:1011E800C2F200034FF000021A6040F2C043C2F29C
:1011F80000034FF003025A6040F2C043C2F20003FA
:101208004FF040029A6040F2C043C2F200034FF030
:101218000002DA6040F2C043C2F200034FF4806279
:101228001A6140F2C040C2F2000004F005FC07F168
:1012380004034FF00300194602F0A2FA0346FB71BB
:10124800FB79002B01D0FB796DE040F27443C2F2C8
:1012580000031B68042B62D0BB881A4640F29843EF
:10126800C2F200031A60BB884FEA03431A4640F2F1
:10127800C043C2F200031A6040F2C043C2F2000346
:101288004FF009025A6040F2C043C2F200034FF027
:10129800C0029A6040F2C043C2F200034FF000025D
:1012A800DA6040F2C043C2F200034FF480621A6170
:1012B80040F2C040C2F2000004F0BEFB02F022FA85
:1012C8000346FB71FB79002B01D0FB792BE04FF033
:1012D800000004F00FFC024640F27843C2F200031B
:1012E8001A604FF0040004F005FC024640F278430F
:1012F800C2F200035A604FF0080004F0FBFB0246FC
:1013080040F27843C2F200039A604FF00C0004F0F8
:10131800F1FB024640F27843C2F20003DA604FF074
:101328000003FB71FB79184607F10807BD4680BD2D
:10133800B0B485B000AF78604FF00001B9734FF0DA
:101348000001F97340F27441C2F200010968C8B2A1
:10135800796881F8560040F29841C2F200010968A4
:1013680088B27968A1F8540040F27841C2F20001CD
:1013780009684FEA1161F973F97B4FEA9111C8B214
:1013880079680870F97B01F03C014FEAA101C8B205
:1013980079684870F97B01F00301C8B279688870F0
:1013A80040F27841C2F20001096801F47F014FEA76
:1013B8001141F9737968F87BC87040F27841C2F23C
:1013C8000001096801F47F414FEA1121F973796836
:1013D800F87B087140F27841C2F200010968F9739C
:1013E8007968F87B487140F27841C2F20001496897
:1013F8004FEA1161F973F97B89B24FEA011188B29A
:101408007968C88040F27841C2F20001496801F465
:101418007F014FEA1141F9737968C98888B2F97B6D
:101428004FEA1111C9B2014388B27968C880F97BC3
:1014380001F00F01C8B27968087240F27841C2F22F
:101448000001496801F47F414FEA1121F973F97BE2
:101458004FEAD111C8B279684872F97B01F04001AE
:101468004FEAA111C8B279688872F97B01F02001AE
:101478004FEA6111C8B27968C872F97B01F01001AE
:101488004FEA2111C8B27968087379684FF00000F3
:10149800487340F27441C2F200010968002907D07C
:1014A80040F27441C2F200010968012940F0AF809E
:1014B800FB7B03F003034FEA83231A467B681A6118
:1014C80040F27843C2F200035B68FB737B681A69D9
:1014D800FB7B4FEA83031A437B681A6140F2784327
:1014E800C2F200039B684FEA1363FB737B681A69B7
:1014F800FB7B4FEA9313DBB21A437B681A61FB7BD1
:1015080003F038034FEAE303DAB27B681A75FB7B12
:1015180003F00703DAB27B685A7540F27843C2F2E7
:1015280000039B6803F47F034FEA1343FB73FB7BC1
:101538004FEA5313DAB27B689A75FB7B03F01C03FE
:101548004FEAA303DAB27B68DA75FB7B03F0030387
:10155800DBB24FEA4303DAB27B681A7640F278438B
:10156800C2F200039B6803F47F434FEA1323FB7323
:101578007B681B7EDAB2FB7B4FEAD313DBB21343E3
:10158800DAB27B681A767B681B6903F101010A46A7
:101598004FF000037968C1E912237B68D3E912018F
:1015A8007B681B7EDBB203F102034FF0010202FAF3
:1015B80003F422464FEAE27302FB01F500FB03F451
:1015C8002C19A0FB0223E1180B467968C1E9122304
:1015D8007B681B7ADBB24FF0010202FA03F31A466A
:1015E8007B681A657B68D3E912017B681C6D22460B
:1015F8004FF0000302FB01F500FB03F42C19A0FBDC
:101608000223E1180B467968C1E9122353E040F23E
:101618007441C2F20001096802294CD140F27841B4
:10162800C2F200014968F973F97B01F03F014FEA02
:10163800014108467968086140F27841C2F2000128
:1016480089684FEA1161F97379680869F97B4FEA8B
:10165800012108437968086140F27841C2F200012B
:10166800896801F47F014FEA1141F97379680869C3
:10167800F97B08437968086140F27841C2F20001B9
:10168800896801F47F414FEA1121F9737968096982
:1016980001F1010420464FF000014FEA50344FEAAF
:1016A800C14323434FEAC0427968C1E912237B68EA
:1016B8004FF400721A65FB7B03F040034FEAA31353
:1016C800DAB27B685A76FB7B03F03F03DBB24FEA62
:1016D8004303DAB27B689A7640F27843C2F2000399
:1016E8009B68FB737B689B7EDAB2FB7B4FEAD31364
:1016F800DBB21343DAB27B689A76FB7B03F07F0395
:10170800DAB27B68DA7640F27843C2F20003DB682B
:101718004FEA1363FB73FB7B4FEAD313DAB27B68A0
:101728001A77FB7B03F060034FEA6313DAB27B6836
:101738005A77FB7B03F01C034FEAA303DAB27B68FA
:101748009A77FB7B03F00303DBB24FEA8303DAB239
:101758007B68DA7740F27843C2F20003DB6803F46F
:101768007F034FEA1343FB737B68DB7FDAB2FB7BB3
:101778004FEA9313DBB21343DAB27B68DA77FB7B69
:1017880003F020034FEA6313DAB27B6883F8202062
:101798007B684FF0000283F82120FB7B03F00103F4
:1017A800DAB27B6883F8222040F27843C2F2000361
:1017B800DB6803F47F434FEA1323FB73FB7B4FEA99
:1017C800D313DAB27B6883F82320FB7B03F0400352
:1017D8004FEAA313DAB27B6883F82420FB7B03F07B
:1017E80020034FEA6313DAB27B6883F82520FB7B7A
:1017F80003F010034FEA2313DAB27B6883F826203C
:10180800FB7B03F00C034FEAA303DAB27B6883F88F
:101818002720FB7B03F00303DAB27B6883F82820D8
:1018280040F27843C2F20003DB68FB73FB7B4FEAAC
:101838005303DAB27B6883F829207B684FF00102F2
:1018480083F82A2040F28843C2F200031B684FEA5B
:101858001363FB737B68FA7B83F82C2040F2884380
:10186800C2F200031B6803F47F034FEA1343FB73C0
:10187800FB7B9BB24FEA03239AB27B68DA8540F27E
:101888008843C2F200031B6803F47F434FEA132323
:10189800FB737B68DB8D9AB2FB7B9BB213439AB2D6
:1018A8007B68DA8540F28843C2F200031B68FB7349
:1018B800FB7B4FEA03631A467B681A6340F288434E
:1018C800C2F200035B684FEA1363FB737B681A6B11
:1018D800FB7B4FEA03431A437B681A6340F2884351
:1018E800C2F200035B6803F47F034FEA1343FB7300
:1018F8007B681A6BFB7B4FEA03231A437B681A63E6
:1019080040F28843C2F200035B6803F47F434FEA66
:101918001323FB737B681A6BFB7B1A437B681A6380
:1019280040F28843C2F200035B68FB737B68FA7B72
:1019380083F8342040F28843C2F200039B684FEAE0
:101948001363FB737B68FA7B83F8352040F2884386
:10195800C2F200039B6803F47F034FEA1343FB734F
:10196800FB7B4FEA03631A467B689A6340F288431D
:10197800C2F200039B6803F47F434FEA1323FB730F
:101988007B689A6BFB7B4FEA03431A437B689A6335
:1019980040F28843C2F200039B68FB737B689A6B32
:1019A800FB7B4FEA03231A437B689A6340F2884320
:1019B800C2F20003DB684FEA1363FB737B689A6B20
:1019C800FB7B1A437B689A6340F28843C2F20003A8
:1019D800DB6803F47F034FEA1343FB737B6893F8D8
:1019E8003C30DAB2FB7B4FEA1313DBB21343DAB2B3
:1019F8007B6883F83C20FB7B9BB203F00F039BB210
:101A08004FEA03239AB27B68DA8740F28843C2F22E
:101A18000003DB6803F47F434FEA1323FB737B68FF
:101A2800DB8F9AB2FB7B9BB213439AB27B68DA874F
:101A380040F28843C2F20003DB68FB73FB7B4FEA8A
:101A48005303DAB27B6883F840207B684FF00102C9
:101A580083F84120BB7B184607F11407BD46B0BC8C
:101A6800704700BF80B584B000AF78604FF00003C6
:101A7800FB734FF00003BB7340F29C40C2F20000BE
:101A880001F090FA0346FB73FB7B002B01D0FB7B34
:101A9800B7E040F29C43C2F200031B784FEA93136D
:101AA800BB737B68BA7B1A7040F29C43C2F2000396
:101AB8001B7803F020034FEA6313BB737B68BA7B80
:101AC8005A7040F29C43C2F200039B78BB73BB7B05
:101AD8009BB24FEA03239AB27B685A8040F29C4338
:101AE800C2F20003DB78BB737B685B889AB2BB7B6E
:101AF8009BB213439AB27B685A8040F29C43C2F26D
:101B080000031B79BB73BB7B4FEA03631A467B68F0
:101B18005A6040F29C43C2F200035B79BB737B6856
:101B28005A68BB7B4FEA03431A437B685A6040F20A
:101B38009C43C2F200039B79BB737B685A68BB7BEA
:101B48004FEA03231A437B685A6040F29C43C2F26F
:101B58000003DB79BB737B685A68BB7B1A437B68DD
:101B68005A6040F29C43C2F200031B7ABB737B6845
:101B7800BA7B1A7240F29C43C2F200035B7ABB73D1
:101B88007B68BA7B5A7240F29C43C2F200039B7A8C
:101B98004FEA1313BB737B68BA7B9A7240F29C437B
:101BA800C2F20003DB7ABB73BB7B9BB24FEA032311
:101BB8009AB27B689A8140F29C43C2F200031B7B75
:101BC800BB737B689B899AB2BB7B9BB213439AB267
:101BD8007B689A8140F29C43C2F200035B7B4FEA28
:101BE8009303BB737B68BA7B9A7340F29C43C2F23F
:101BF80000035B7B03F00303BB737B68BA7BDA7378
:101C0800FB7B184607F11007BD4680BD80B584B040
:101C180000AF78604FF00003FB7340F27443C2F2E8
:101C280000031B68032B04D14FF02703FB73FB7BD6
:101C380095E040F27443C2F200031B68002B0DD0FC
:101C480040F27443C2F200031B68012B06D040F235
:101C58007443C2F200031B68022B7FD17B68B3F583
:101C6800805F04D14FF02703FB73FB7B77E07B6831
:101C7800B3F5006F39D14FF0010001F0F7FD0346CD
:101C8800FB73FB7B002B69D140F23053C2F2000397
:101C98004FF002021A7540F23053C2F200034FF0BF
:101CA80000021A6040F23053C2F200034FF0000203
:101CB8005A6040F23053C2F200034FF000029A60BB
:101CC80040F23053C2F200034FF40062DA6040F28F
:101CD8003053C2F200034FF000021A6140F2305054
:101CE800C2F2000003F024FE38E04FF0000001F0DB
:101CF800BDFD0346FB73FB7B002B2FD140F2305315
:101D0800C2F200034FF002021A7540F23053C2F2D9
:101D180000034FF000021A6040F23053C2F2000391
:101D28004FF000025A6040F23053C2F200034FF005
:101D380000029A6040F23053C2F200034FF00002F2
:101D4800DA6040F23053C2F200034FF000021A6129
:101D580040F23050C2F2000003F0EAFDFB7B184667
:101D680007F11007BD4680BD80B584B000AF78602C
:101D78004FF00003FB7340F2C043C2F200037A68DD
:101D88001A6040F2C043C2F200034FF007025A60E3
:101D980040F2C043C2F200034FF040029A6040F2A2
:101DA800C043C2F200034FF00002DA6040F2C043C1
:101DB800C2F200034FF480621A6140F2C040C2F2DE
:101DC800000003F039FE4FF0070001F07BFB0346EB
:101DD800FB73FB7B184607F11007BD4680BD00BFAB
:101DE80080B586B000AFF860B9601346FB804FF04D
:101DF8000003FB7540F2B043C2F200034FF000024B
:101E08001A7040F2B443C2F200034FF000021A60A5
:101E180040F2AC43C2F200034FF000021A604FF4E4
:101E28003053C4F201034FF00002DA6240F2744307
:101E3800C2F200031B68022B06D14FF40073FB802B
:101E4800BB684FEA5323BB60FA8840F2C043C2F232
:101E580000031A6040F2C043C2F200034FF01002C0
:101E68005A6040F2C043C2F200034FF040029A6049
:101E780040F2C043C2F200034FF00002DA6040F2C1
:101E8800C043C2F200034FF480621A6140F2C040BE
:101E9800C2F2000003F0D0FD4FF0100001F012FB79
:101EA8000346FB75FB7D002B01D0FB7D71E040F202
:101EB8004853C2F200034FF0FF321A60FA8840F22A
:101EC8004853C2F200035A6040F24853C2F200037A
:101ED8004FF090029A6040F24853C2F200034FF06C
:101EE8000202DA6040F24853C2F200034FF00002E7
:101EF8001A6140F24853C2F200034FF001025A61DE
:101F080040F24850C2F2000003F00AFE40F2C0431B
:101F1800C2F20003BA681A6040F2C043C2F200037A
:101F28004FF011025A6040F2C043C2F200034FF072
:101F380040029A6040F2C043C2F200034FF0000230
:101F4800DA6040F2C043C2F200034FF480621A61C3
:101F580040F2C040C2F2000003F06EFD4FF01100E5
:101F680001F0B0FA0346FB75FB7D002B01D0FB7D29
:101F78000FE040F22A304FF0010103F0F7FE4FF076
:101F8800010003F0E3FEFB88F8681946FEF770FDD0
:101F9800FB7D184607F11807BD4680BD80B586B0A1
:101FA80000AFF860B9603B601346FB804FF0000358
:101FB800FB7540F2B043C2F200034FF000021A7002
:101FC80040F2B443C2F200034FF000021A6040F23C
:101FD800AC43C2F200034FF001021A604FF43053D1
:101FE800C4F201034FF00002DA6240F27443C2F215
:101FF80000031B68022B06D14FF40073FB80BB68FB
:102008004FEA5323BB60FA8840F2C043C2F2000390
:102018001A6040F2C043C2F200034FF010025A6047
:1020280040F2C043C2F200034FF040029A6040F20F
:10203800C043C2F200034FF00002DA6040F2C0432E
:10204800C2F200034FF480621A6140F2C040C2F24B
:10205800000003F0F1FC4FF0100001F033FA0346E2
:10206800FB75FB7D002B01D0FB7D77E040F24853E8
:10207800C2F200034FF0FF321A60FB883A6802FB95
:1020880003F240F24853C2F200035A6040F2485348
:10209800C2F200034FF090029A6040F24853C2F235
:1020A80000034FF00202DA6040F24853C2F2000324
:1020B8004FF000021A6140F24853C2F200034FF099
:1020C80001025A6140F24850C2F2000003F028FDB4
:1020D80040F2C043C2F20003BA681A6040F2C0433B
:1020E800C2F200034FF012025A6040F2C043C2F23B
:1020F80000034FF040029A6040F2C043C2F200036E
:102108004FF00002DA6040F2C043C2F200034FF41D
:1021180080621A6140F2C040C2F2000003F08CFCF9
:102128004FF0120001F0CEF90346FB75FB7D002B42
:1021380001D0FB7D12E040F22A304FF0010103F09C
:1021480015FE4FF0010003F001FEFB883A6802FB20
:1021580003F3F8681946FEF78BFCFB7D184607F178
:102168001807BD4680BD00BF80B586B000AFF860D7
:10217800B9607A603B604FF00003FB7540F2B043F2
:10218800C2F200034FF000021A7040F2B443C2F2E8
:1021980000034FF000021A6040F2AC43C2F20003A1
:1021A8004FF001021A604FF43053C4F201034FF0AC
:1021B8000002DA6240F27443C2F200031B68022B89
:1021C80003D14FF400737B6004E0BB687A6802FBBC
:1021D80003F3BB6040F2C043C2F200037A681A609E
:1021E80040F2C043C2F200034FF010025A6040F2BE
:1021F800C043C2F200034FF040029A6040F2C0436D
:10220800C2F200034FF00002DA6040F2C043C2F2AB
:1022180000034FF480621A6140F2C040C2F200002D
:1022280003F00AFC4FF0100001F04CF90346FB756F
:10223800FB7D002B01D0FB7D77E040F24853C2F2D2
:1022480000034FF0FF321A603B687A6802FB03F222
:1022580040F24853C2F200035A6040F24853C2F2B7
:1022680000034FF090029A6040F24853C2F2000314
:102278004FF00202DA6040F24853C2F200034FF016
:1022880000021A6140F24853C2F200034FF0010203
:102298005A6140F24850C2F2000003F041FC40F29B
:1022A800C043C2F20003BA681A6040F2C043C2F2E7
:1022B80000034FF012025A6040F2C043C2F200031A
:1022C8004FF040029A6040F2C043C2F200034FF060
:1022D8000002DA6040F2C043C2F200034FF48062A9
:1022E8001A6140F2C040C2F2000003F0A5FB4FF0B3
:1022F800120001F0E7F80346FB75FB7D002B01D0C7
:10230800FB7D12E040F22A304FF0010103F02EFD70
:102318004FF0010003F01AFD3B687A6802FB03F3F3
:10232800F8681946FEF7A4FBFB7D184607F1180765
:10233800BD4680BD80B582B000AF4FF00003FB7191
:102348004FF0FF333B6003E03B6803F1FF333B6032
:1023580040F2B843C2F200031B68002B11D140F2CF
:10236800B443C2F200031B68002B0AD140F2B04309
:10237800C2F200031B78DBB2002B02D13B68002BB2
:10238800E2D140F2B843C2F200034FF000021A60F3
:102398004FF0FF333B6003E03B6803F1FF333B60E2
:1023A8004FF43053C4F201035B6B03F40053002B6A
:1023B80002D03B68002BEFD140F2AC43C2F20003DD
:1023C8001B68012B03D100F02BFC0346FB713B6813
:1023D800002B05D1FB79002B02D14FF00403FB71D0
:1023E80040F2FF5003F00AFD40F2B043C2F200038E
:1023F8001B78DBB2002B06D040F2B043C2F20003D8
:102408001B78DBB200E0FB79184607F10807BD46E8
:1024180080BD00BF80B586B000AFF860B9601346D4
:10242800FB804FF00003FB7540F2B043C2F200039B
:102438004FF000021A7040F2B443C2F200034FF0AA
:1024480000021A6040F2AC43C2F200034FF00002EF
:102458001A604FF43053C4F201034FF00002DA62FD
:1024680040F27443C2F200031B68022B06D14FF4FA
:102478000073FB80BB684FEA5323BB60FA8840F2C5
:10248800C043C2F200031A6040F2C043C2F2000324
:102498004FF010025A6040F2C043C2F200034FF0FE
:1024A80040029A6040F2C043C2F200034FF00002BB
:1024B800DA6040F2C043C2F200034FF480621A614E
:1024C80040F2C040C2F2000003F0B6FA4FF010002C
:1024D80000F0F8FF0346FB75FB7D002B01D0FB7D68
:1024E80071E040F2C043C2F20003BA681A6040F2D9
:1024F800C043C2F200034FF018025A6040F2C043D2
:10250800C2F200034FF040029A6040F2C043C2F2A8
:1025180000034FF00002DA6040F2C043C2F2000349
:102528004FF480621A6140F2C040C2F2000003F02A
:1025380083FA4FF0180000F0C5FF0346FB75FB7DDA
:10254800002B01D0FB7D3EE040F24853C2F200036D
:102558004FF0FF321A60FA8840F24853C2F2000383
:102568005A6040F24853C2F200034FF090029A605A
:1025780040F24853C2F200034FF00002DA6040F222
:102588004853C2F200034FF000021A6140F2485368
:10259800C2F200034FF001025A6140F24850C2F201
:1025A800000003F0BDFA40F22A304FF0010103F0B9
:1025B800DDFBFB88F8681946FEF7EAF94FF00100E1
:1025C80003F0C4FBFB7D184607F11807BD4680BD24
:1025D80080B586B000AFF860B9603B601346FB80F9
:1025E8004FF00003FB7540F2B043C2F200034FF016
:1025F80000021A7040F2B443C2F200034FF0000226
:102608001A6040F2AC43C2F200034FF001021A60B4
:102618004FF43053C4F201034FF00002DA6240F283
:102628007443C2F200031B68022B06D14FF40073F7
:10263800FB80BB684FEA5323BB60FA8840F2C04373
:10264800C2F200031A6040F2C043C2F200034FF026
:1026580010025A6040F2C043C2F200034FF0400239
:102668009A6040F2C043C2F200034FF00002DA6001
:1026780040F2C043C2F200034FF480621A6140F294
:10268800C040C2F2000003F0D7F94FF0100000F08C
:1026980019FF0346FB75FB7D002B01D0FB7DE3E0B2
:1026A80040F29843C2F200031B684FEA034240F22B
:1026B800C043C2F200031A6040F2C043C2F20003F2
:1026C8004FF037025A6040F2C043C2F200034FF0A5
:1026D80040029A6040F2C043C2F200034FF0000289
:1026E800DA6040F2C043C2F200034FF480621A611C
:1026F80040F2C040C2F2000003F09EF94FF03700EC
:1027080000F0E0FE0346FB75FB7D002B01D0FB7D4E
:10271800AAE040F2C043C2F200033A681A6040F2ED
:10272800C043C2F200034FF017025A6040F2C043A0
:10273800C2F200034FF040029A6040F2C043C2F276
:1027480000034FF00002DA6040F2C043C2F2000317
:102758004FF480621A6140F2C040C2F2000003F0F8
:102768006BF94FF0170000F0ADFE0346FB75FB7DDB
:10277800002B01D0FB7D77E040F2C043C2F200039A
:10278800BA681A6040F2C043C2F200034FF019025F
:102798005A6040F2C043C2F200034FF040029A6010
:1027A80040F2C043C2F200034FF00002DA6040F288
:1027B800C043C2F200034FF480621A6140F2C04085
:1027C800C2F2000003F038F94FF0190000F07AFE69
:1027D8000346FB75FB7D002B01D0FB7D44E040F2F6
:1027E8004853C2F200034FF0FF321A60FB883A6880
:1027F80002FB03F240F24853C2F200035A6040F26F
:102808004853C2F200034FF090029A6040F24853D6
:10281800C2F200034FF00002DA6040F24853C2F2FD
:1028280000034FF000021A6140F24853C2F200035D
:102838004FF001025A6140F24850C2F2000003F022
:102848006FF940F22A304FF0010103F08FFA4FF090
:10285800010003F07BFAFB883A6802FB03F3F8688F
:102868001946FEF795F8FB7D184607F11807BD468F
:1028780080BD00BF80B586B000AFF860B9607A60EF
:102888003B604FF00003FB7540F2B043C2F2000317
:102898004FF000021A7040F2B443C2F200034FF046
:1028A80000021A6040F2AC43C2F200034FF001028A
:1028B8001A604FF43053C4F201034FF00002DA6299
:1028C80040F27443C2F200031B68022B03D14FF499
:1028D80000737B6004E0BB687A6802FB03F3BB60AB
:1028E80040F2C043C2F200037A681A6040F2C04363
:1028F800C2F200034FF010025A6040F2C043C2F225
:1029080000034FF040029A6040F2C043C2F2000355
:102918004FF00002DA6040F2C043C2F200034FF405
:1029280080621A6140F2C040C2F2000003F084F8ED
:102938004FF0100000F0C6FD0346FB75FB7D002B31
:1029480001D0FB7DE3E040F29843C2F200031B682C
:102958004FEA034240F2C043C2F200031A6040F259
:10296800C043C2F200034FF037025A6040F2C0433E
:10297800C2F200034FF040029A6040F2C043C2F234
:1029880000034FF00002DA6040F2C043C2F20003D5
:102998004FF480621A6140F2C040C2F2000003F0B6
:1029A8004BF84FF0370000F08DFD0346FB75FB7DBB
:1029B800002B01D0FB7DAAE040F2C043C2F2000325
:1029C8003A681A6040F2C043C2F200034FF017029F
:1029D8005A6040F2C043C2F200034FF040029A60CE
:1029E80040F2C043C2F200034FF00002DA6040F246
:1029F800C043C2F200034FF480621A6140F2C04043
:102A0800C2F2000003F018F84FF0170000F05AFD6A
:102A18000346FB75FB7D002B01D0FB7D77E040F280
:102A2800C043C2F20003BA681A6040F2C043C2F25F
:102A380000034FF019025A6040F2C043C2F200038B
:102A48004FF040029A6040F2C043C2F200034FF0D8
:102A58000002DA6040F2C043C2F200034FF4806221
:102A68001A6140F2C040C2F2000002F0E5FF4FF0E8
:102A7800190000F027FD0346FB75FB7D002B01D0F4
:102A8800FB7D44E040F24853C2F200034FF0FF32AE
:102A98001A603B687A6802FB03F240F24853C2F2BC
:102AA80000035A6040F24853C2F200034FF090020C
:102AB8009A6040F24853C2F200034FF00002DA6015
:102AC80040F24853C2F200034FF000021A6140F28C
:102AD8004853C2F200034FF001025A6140F24850D5
:102AE800C2F2000003F01CF840F22A304FF0010156
:102AF80003F03CF94FF0010003F028F93B687A68CD
:102B080002FB03F3F8681946FDF742FFFB7D184600
:102B180007F11807BD4680BD80B582B000AF4FF001
:102B28000003FB714FF0FF333B6003E03B6803F1A8
:102B3800FF333B6040F2B843C2F200031B68002B2E
:102B480011D140F2B443C2F200031B68002B0AD132
:102B580040F2B043C2F200031B78DBB2002B02D173
:102B68003B68002BE2D140F2B843C2F200034FF0B9
:102B780000021A604FF0FF333B6003E03B6803F14B
:102B8800FF333B604FF43053C4F201035B6B03F433
:102B98008053002B02D03B68002BEFD140F2AC43AE
:102BA800C2F200031B68012B03D100F039F8034679
:102BB800FB713B68002B05D1FB79002B02D14FF04C
:102BC8000403FB7140F2FF5003F018F940F2B043E0
:102BD800C2F200031B78DBB2002B06D040F2B043F0
:102BE800C2F200031B78DBB200E0FB79184607F15C
:102BF8000807BD4680BD00BF80B400AF4FF4305316
:102C0800C4F201035B6B03F44053002B02D04FF076
:102C1800010301E04FF000031846BD4680BC704731
:102C280080B582B000AF4FF00003FB7140F2C043A3
:102C3800C2F200034FF000021A6040F2C043C2F231
:102C480000034FF00C025A6040F2C043C2F2000386
:102C58004FF040029A6040F2C043C2F200034FF0C6
:102C68000002DA6040F2C043C2F200034FF480620F
:102C78001A6140F2C040C2F2000002F0DDFE4FF0DF
:102C88000C0000F01FFC0346FB71FB79184607F1A6
:102C98000807BD4680BD00BF80B586B000AF78602C
:102CA80039604FF00003FB754FF000033B614FF0B4
:102CB8000003FB604FF00003FB7240F27843C2F25E
:102CC80000035B684FEA135303F02003002B04D181
:102CD8004FF02503FB75FB7D09E14FF43053C4F237
:102CE80001035B68DBB203F102024DF2C043C0F29C
:102CF8000103B3FBF2F3FB604FF0000002F0FAFEB1
:102D0800034603F00073002B04D04FF00E03FB754D
:102D1800FB7DECE040F27443C2F200031B68022B17
:102D280007D17B684FEA53237B603B684FEA532304
:102D38003B6040F27443C2F200031B68002B0DD0C5
:102D480040F27443C2F200031B68012B06D040F224
:102D58007443C2F200031B68022B65D140F2C043E2
:102D6800C2F200037A681A6040F2C043C2F200035C
:102D78004FF020025A6040F2C043C2F200034FF005
:102D880040029A6040F2C043C2F200034FF00002D2
:102D9800DA6040F2C043C2F200034FF480621A6165
:102DA80040F2C040C2F2000002F046FE4FF02000A0
:102DB80000F088FB0346FB75FB7D002B01D0FB7DF3
:102DC80095E040F2C043C2F200033A681A6040F24C
:102DD800C043C2F200034FF021025A6040F2C043E0
:102DE800C2F200034FF040029A6040F2C043C2F2C0
:102DF80000034FF00002DA6040F2C043C2F2000361
:102E08004FF480621A6140F2C040C2F2000002F042
:102E180013FE4FF0210000F055FB0346FB75FB7DC8
:102E2800002B01D0FB7D62E040F2C043C2F20003F8
:102E38004FF000021A6040F2C043C2F200034FF0A4
:102E480026025A6040F2C043C2F200034FF040022B
:102E58009A6040F2C043C2F200034FF00002DA6009
:102E680040F2C043C2F200034FF480621A6140F29C
:102E7800C040C2F2000002F0DFFD4FF0260000F073
:102E880021FB0346FB75FB7D002B01D0FB7D2EE06B
:102E98004FF000033B6103E03B6903F101033B6131
:102EA800FB683A699A42F7D307F10B03184600F01A
:102EB80005FE0346FB754FF0FF333B610AE007F15F
:102EC8000B03184600F0FAFD0346FB753B6903F156
:102ED800FF333B613B69002B08D0FB7D002B05D1FC
:102EE800FB7A072BEBD0FB7A062BE8D0FB7D184644
:102EF80007F11807BD4680BD80B584B000AF786083
:102F08004FF00003FB737B68002B04D14FF02603BE
:102F1800FB73FB7B40E040F29843C2F200031B685E
:102F28004FEA034240F2C043C2F200031A6040F283
:102F3800C043C2F200034FF00D025A6040F2C04392
:102F4800C2F200034FF040029A6040F2C043C2F25E
:102F580000034FF00002DA6040F2C043C2F20003FF
:102F68004FF480621A6140F2C040C2F2000002F0E1
:102F780063FD4FF00D0000F0A5FA0346FB73FB7BE1
:102F8800002B01D0FB7B07E04FF0000002F0B2FD00
:102F980002467B681A60FB7B184607F11007BD469E
:102FA80080BD00BF90B585B000AF78604FF00003DA
:102FB800FB724FF00003FB604FF0000002F09AFD37
:102FC800034603F00073002B04D04FF00E03FB728E
:102FD800FB7A5BE140F2C043C2F200034FF04002CB
:102FE8001A6040F2C043C2F200034FF010025A6068
:102FF80040F2C043C2F200034FF040029A6040F230
:10300800C043C2F200034FF00002DA6040F2C0434E
:10301800C2F200034FF480621A6140F2C040C2F26B
:10302800000002F009FD4FF0100000F04BFA0346D3
:10303800FB72FB7A002B01D0FB7A27E140F2984320
:10304800C2F200031B684FEA034240F2C043C2F2D7
:1030580000031A6040F2C043C2F200034FF0370287
:103068005A6040F2C043C2F200034FF040029A6037
:1030780040F2C043C2F200034FF00002DA6040F2AF
:10308800C043C2F200034FF480621A6140F2C040AC
:10309800C2F2000002F0D0FC4FF0370000F012FA44
:1030A8000346FB72FB7A002B01D0FB7AEEE040F27C
:1030B8004853C2F200034FF0FF321A6040F24853FF
:1030C800C2F200034FF040025A6040F24853C2F285
:1030D80000034FF060029A6040F24853C2F20003C6
:1030E8004FF00202DA6040F24853C2F200034FF098
:1030F80000021A6140F24853C2F200034FF0010285
:103108005A6140F24850C2F2000002F009FD40F254
:10311800C043C2F200034FF000021A6040F2C043FD
:10312800C2F200034FF00D025A6040F2C043C2F2EF
:1031380000034FF040029A6040F2C043C2F200031D
:103148004FF00002DA6040F2C043C2F200034FF4CD
:1031580080621A6140F2C040C2F2000002F06CFCCA
:103168004FF00D0000F0AEF90346FB72FB7A002B1E
:1031780021D0FB7A8AE04FF4004002F021FE03469A
:10318800002B19D04FF00003FB600CE0FB684FEAFE
:1031980083037A68D41802F029FD03462360FB688C
:1031A80003F10103FB60FB68072BEFD97B6803F190
:1031B80020037B6000E000BF4FF43053C4F20103EA
:1031C8005A6B40F22A631340002BD4D04FF008000A
:1031D80002F0F6FD0346002B08D04FF0080002F07D
:1031E8000DFE4FF00403FB72FB7A4FE04FF0020034
:1031F80002F0E6FD0346002B08D04FF0020002F073
:10320800FDFD4FF00203FB72FB7A3FE04FF0200018
:1032180002F0D6FD0346002B08D04FF0200002F044
:10322800EDFD4FF00603FB72FB7A2FE04FF40070C0
:1032380002F0C6FD0346002B08D04FF4007002F0E0
:10324800DDFD4FF00703FB72FB7A1FE04FF0FF3301
:10325800FB600CE002F0CAFC02467B681A607B68DF
:1032680003F104037B60FB6803F1FF33FB604FF459
:10327800001002F0A5FD0346002B02D0FB68002BCE
:10328800E8D140F2FF5002F0B9FDFB7A184607F189
:103298001407BD4690BD00BF80B500AF4FF48070E5
:1032A80002F0BCFD0346002B12D040F2B043C2F23C
:1032B80000034FF000021A704FF4807002F0CCFD4A
:1032C80040F2B443C2F200034FF001021A605DE01D
:1032D8004FF0020002F0A2FD0346002B0BD04FF086
:1032E800020002F0B9FD40F2B043C2F200034FF011
:1032F80002021A704AE04FF0080002F08FFD034600
:10330800002B0BD04FF0080002F0A6FD40F2B043AE
:10331800C2F200034FF004021A7037E04FF02000A9
:1033280002F07CFD0346002B0BD04FF0200002F08A
:1033380093FD40F2B043C2F200034FF006021A7048
:1033480024E04FF0100002F069FD0346002B0BD07B
:103358004FF0100002F080FD40F2B043C2F20003CB
:103368004FF005021A7011E04FF4007002F056FD9C
:103378000346002B0AD04FF4007002F06DFD40F2B6
:10338800B043C2F200034FF007021A704CF23A3011
:103398004FF0000102F0EAFC40F2B043C2F2000331
:1033A8001B78DBB2184680BD80B500AF4FF4C84328
:1033B800C4F202031B6803F0C053002B0ED040F286
:1033C800B843C2F200034FF001021A6046F25840B7
:1033D800C4F202004FF0C25103F058F880BD00BF9C
:1033E80080B582B000AF4FF00003FB704FF480331C
:1033F8007B6003E07B6803F1FF337B607B68002B15
:1034080006D04FF0800002F0DBFC0346002BF1D021
:103418007B68002B04D14FF00303FB70FB7804E0BA
:1034280040F2FF5002F0EAFCFB78184607F1080763
:10343800BD4680BD80B584B000AF4FF00003FB717E
:103448004FF48033BB604FF43053C4F201035B6B1D
:10345800FB6009E0BB6803F1FF33BB604FF43053F6
:10346800C4F201035B6BFB60FB6803F04503002BB0
:1034780002D1BB68002BEDD1BB68002B04D0FB68E0
:1034880003F00403002B08D04FF00303FB714FF047
:10349800040002F0B3FCFB790EE0FB6803F0400384
:1034A800002B08D04FF00003FB714FF0400002F0F2
:1034B800A5FCFB7900E0FB79184607F11007BD462B
:1034C80080BD00BF80B586B000AF0346FB714FF0EA
:1034D8000003FB744FF43053C4F201035B6B7B6150
:1034E80005E04FF43053C4F201035B6B7B617B69E9
:1034F80003F04503002BF4D07B6903F00403002B91
:1035080008D04FF00303FB744FF0040002F076FC80
:10351800FB7CC2E07B6903F00103002B08D04FF06D
:103528000103FB744FF0010002F068FCFB7CB4E07F
:1035380002F0D4FA0346FA799A4204D04FF0100305
:10354800FB74FB7CA9E040F2FF5002F057FC4FF0FF
:10355800000002F0CFFAF860FA684EF20803CFF6DE
:10356800FF531340002B01D1FB7C96E0FB68002B36
:1035780002DA4FF01C0390E0FB6803F08043002B55
:1035880002D04FF0090388E0FB6803F00053002BDA
:1035980002D04FF00A0380E0FB6803F08053002B51
:1035A80002D04FF00B0378E0FB6803F00063002BB8
:1035B80002D04FF00C0370E0FB6803F08063002B2F
:1035C80002D04FF00D0368E0FB6803F08073002B16
:1035D80002D04FF00E0360E0FB6803F40003002BF9
:1035E80002D04FF00F0358E0FB6803F48003002B70
:1035F80002D04FF0100350E0FB6803F40013002BD7
:1036080002D04FF0110348E0FB6803F48013002B4D
:1036180002D04FF0120340E0FB6803F40023002BB4
:1036280002D04FF0130338E0FB6803F48023002B2B
:1036380002D04FF0140330E0FB6803F40033002B92
:1036480002D04FF0150328E0FB6803F48033002B09
:1036580002D04FF0160320E0FB6803F40043002B70
:1036680002D04FF0170318E0FB6803F48043002BE7
:1036780002D04FF0180310E0FB6803F40053002B4E
:1036880002D04FF0190308E0FB6803F00803002B91
:1036980002D04FF01A0300E0FB7C184607F1180728
:1036A800BD4680BD80B582B000AF4FF00003FB700F
:1036B8004FF43053C4F201035B6B7B6005E04FF4B9
:1036C8003053C4F201035B6B7B607B6803F04503F6
:1036D800002BF4D07B6803F00403002B08D04FF0D4
:1036E8000303FB704FF0040002F088FBFB7804E052
:1036F80040F2FF5002F082FBFB78184607F10807FA
:10370800BD4680BD80B582B000AF4FF00003FB70AE
:103718004FF43053C4F201035B6B7B6005E04FF458
:103728003053C4F201035B6B7B607B6803F0450395
:10373800002BF4D07B6803F00403002B08D04FF073
:103748000303FB704FF0040002F058FBFB7812E013
:103758007B6803F00103002B08D04FF00103FB70D6
:103768004FF0010002F04AFBFB7804E040F2FF5002
:1037780002F044FBFB78184607F10807BD4680BDF8
:1037880080B586B000AF03463960FB714FF0000387
:10379800FB744FF43053C4F201035B6B7B6105E0AB
:1037A8004FF43053C4F201035B6B7B617B6903F018
:1037B8004503002BF4D07B6903F00403002B08D0E9
:1037C8004FF00303FB744FF0040002F017FBFB7C7F
:1037D80047E07B6903F00103002B08D04FF0010399
:1037E800FB744FF0010002F009FBFB7C39E002F0AA
:1037F80075F90346FA799A4204D04FF01003FB7426
:10380800FB7C2EE040F2FF5002F0F8FA4FF0000087
:1038180002F070F9F860FB6803F46043002B07D1ED
:10382800FB684FEA13439AB23B681A80FB7C18E0A6
:10383800FB6803F40053002B02D04FF0130310E091
:10384800FB6803F48043002B02D04FF0100308E01C
:10385800FB6803F40043002B02D04FF00F0300E095
:10386800FB7C184607F11807BD4680BD80B586B0B9
:1038780000AF0346FB714FF00003FB754FF00003E8
:10388800FB604FF000033B614FF0000002F032F99B
:10389800034603F00073002B04D04FF00E03FB75B2
:1038A800FB7D06E140F29843C2F200031B689AB21E
:1038B80007F10C031046194600F02EFA0346FB7573
:1038C800FB7D002B01D0FB7DF3E0FB79012B78D148
:1038D8003B6903F48023002B6ED040F29843C2F278
:1038E80000031B684FEA034240F2C043C2F20003E0
:1038F8001A6040F2C043C2F200034FF037025A6028
:1039080040F2C043C2F200034FF040029A6040F216
:10391800C043C2F200034FF00002DA6040F2C04335
:10392800C2F200034FF480621A6140F2C040C2F252
:10393800000002F081F84FF03700FFF7C3FD03469F
:10394800FB75FB7D002B01D0FB7DB2E040F2C0434C
:10395800C2F200034FF002021A6040F2C043C2F202
:1039680000034FF006025A6040F2C043C2F200035F
:103978004FF040029A6040F2C043C2F200034FF099
:103988000002DA6040F2C043C2F200034FF48062E2
:103998001A6140F2C040C2F2000002F04DF84FF048
:1039A8000600FFF78FFD0346FB75FB7D002B01D05A
:1039B800FB7D7EE0FB7D7CE04FF02503FB75FB7D06
:1039C80077E03B6903F48033002B6ED040F29843D4
:1039D800C2F200031B684FEA034240F2C043C2F23E
:1039E80000031A6040F2C043C2F200034FF03702EE
:1039F8005A6040F2C043C2F200034FF040029A609E
:103A080040F2C043C2F200034FF00002DA6040F215
:103A1800C043C2F200034FF480621A6140F2C04012
:103A2800C2F2000002F008F84FF03700FFF74AFD35
:103A38000346FB75FB7D002B01D0FB7D39E040F28E
:103A4800C043C2F200034FF000021A6040F2C043C4
:103A5800C2F200034FF006025A6040F2C043C2F2BD
:103A680000034FF040029A6040F2C043C2F20003E4
:103A78004FF00002DA6040F2C043C2F200034FF494
:103A880080621A6140F2C040C2F2000001F0D4FF27
:103A98004FF00600FFF716FD0346FB75FB7D002B74
:103AA80001D0FB7D05E0FB7D03E04FF02503FB75AE
:103AB800FB7D184607F11807BD4680BD80B586B066
:103AC80000AF78604FF00003FB754FF000033B61D7
:103AD8004FF00003FB6040F29843C2F200031B68FA
:103AE8004FEA034240F2C043C2F200031A6040F2B8
:103AF800C043C2F200034FF00D025A6040F2C043C7
:103B0800C2F200034FF040029A6040F2C043C2F292
:103B180000034FF00002DA6040F2C043C2F2000333
:103B28004FF480621A6140F2C040C2F2000001F016
:103B380083FF4FF43053C4F201035B6BFB6005E075
:103B48004FF43053C4F201035B6BFB60FB6803F076
:103B58004503002BF4D0FB6803F00403002B08D0C6
:103B68004FF00303FB754FF0040002F047F9FB7DAB
:103B7800CDE0FB6803F00103002B08D04FF00103F0
:103B8800FB754FF0010002F039F9FB7DBFE001F051
:103B9800A5FF0346FB60FB680D2B04D04FF0100314
:103BA800FB75FB7DB3E040F2FF5002F027F94FF0C0
:103BB800000001F09FFF03463B613B694FEA532336
:103BC800DBB203F00F03DAB27B681A703A694EF27F
:103BD8000803CFF6FF531340002B01D1FB7D96E07D
:103BE8003B69002B02DA4FF01C0390E03B6903F0BD
:103BF8008043002B02D04FF0090388E03B6903F0B3
:103C08000053002B02D04FF00A0380E03B6903F019
:103C18008053002B02D04FF00B0378E03B6903F090
:103C28000063002B02D04FF00C0370E03B6903F0F7
:103C38008063002B02D04FF00D0368E03B6903F06E
:103C48008073002B02D04FF00E0360E03B6903F451
:103C58000003002B02D04FF00F0358E03B6903F438
:103C68008003002B02D04FF0100350E03B6903F4AF
:103C78000013002B02D04FF0110348E03B6903F416
:103C88008013002B02D04FF0120340E03B6903F48D
:103C98000023002B02D04FF0130338E03B6903F4F4
:103CA8008023002B02D04FF0140330E03B6903F46B
:103CB8000033002B02D04FF0150328E03B6903F4D2
:103CC8008033002B02D04FF0160320E03B6903F449
:103CD8000043002B02D04FF0170318E03B6903F4B0
:103CE8008043002B02D04FF0180310E03B6903F427
:103CF8000053002B02D04FF0190308E03B6903F092
:103D08000803002B02D04FF01A0300E0FB7D184691
:103D180007F11807BD4680BD90B587B000AF0346D0
:103D28003960FB804FF000037B614FF00003FB74A8
:103D38004FF00003BB604FF00003FB6040F2C0434C
:103D4800C2F200034FF008021A6040F2C043C2F208
:103D580000034FF010025A6040F2C043C2F2000361
:103D68004FF040029A6040F2C043C2F200034FF0A5
:103D78000002DA6040F2C043C2F200034FF48062EE
:103D88001A6140F2C040C2F2000001F055FE4FF047
:103D98001000FFF797FB0346FB74FB7C002B01D058
:103DA800FB7C2EE140F29843C2F200031B684FEA05
:103DB800034240F2C043C2F200031A6040F2C0431B
:103DC800C2F200034FF037025A6040F2C043C2F219
:103DD80000034FF040029A6040F2C043C2F2000371
:103DE8004FF00002DA6040F2C043C2F200034FF421
:103DF80080621A6140F2C040C2F2000001F01CFE6D
:103E08004FF03700FFF75EFB0346FB74FB7C002B8B
:103E180001D0FB7CF5E040F24853C2F200034FF0BA
:103E2800FF321A6040F24853C2F200034FF0080212
:103E38005A6040F24853C2F200034FF030029A60D1
:103E480040F24853C2F200034FF00202DA6040F237
:103E58004853C2F200034FF000021A6140F248537F
:103E6800C2F200034FF001025A6140F24850C2F218
:103E7800000001F055FE40F2C043C2F200034FF0CB
:103E880000021A6040F2C043C2F200034FF033024E
:103E98005A6040F2C043C2F200034FF040029A60F9
:103EA80040F2C043C2F200034FF00002DA6040F271
:103EB800C043C2F200034FF480621A6140F2C0406E
:103EC800C2F2000001F0B8FD4FF03300FFF7FAFA34
:103ED8000346FB74FB7C002B17D0FB7C91E04FF46E
:103EE800001001F06DFF0346002B0FD07B694FEAED
:103EF800830307F10802D41801F078FE0346236013
:103F08007B6903F101037B6100E000BF4FF430538C
:103F1800C4F201035A6B40F22A631340002BDED02F
:103F28004FF0080001F04CFF0346002B08D04FF07B
:103F3800080001F063FF4FF00403FB74FB7C60E0B2
:103F48004FF0020001F03CFF0346002B08D04FF071
:103F5800020001F053FF4FF00203FB74FB7C50E0BA
:103F68004FF0200001F02CFF0346002B08D04FF043
:103F7800200001F043FF4FF00603FB74FB7C40E098
:103F88004FF4007001F01CFF0346002B08D04FF4DB
:103F9800007001F033FF4FF00703FB74FB7C30E047
:103FA80040F2FF5001F02AFF3B6803F10403BA68AE
:103FB8004FEA0261BA6802F47F424FEA02221143D3
:103FC800BA6802F47F024FEA12221143BA684FEA34
:103FD80012620A431A60FB684FEA0362FB6803F443
:103FE8007F434FEA03231A43FB6803F47F034FEA36
:103FF80013231A43FB684FEA13631A433B681A609A
:10400800FB7C184607F11C07BD4690BD80B485B0FF
:1040180000AF0346FB804FF00003FB7307E0FB880B
:104028004FEA5303FB80FB7B03F10103FB73FB881F
:10403800012BF4D1FB7B184607F11407BD4680BC61
:10404800704700BF80B400AF4FF47053C4F201034F
:104058004FF000021A604FF47053C4F201034FF09E
:1040680000025A604FF47053C4F201034FF000028B
:104078009A604FF47053C4F201034FF00002DA6003
:104088004FF47053C4F201034FF6FF72C0F27F027F
:104098005A61BD4680BC704780B485B000AF786077
:1040A8004FF00003FB604FF47053C4F20103FB6050
:1040B8007B689B79002B78D04FF47053C4F20103CE
:1040C8004FF47052C4F2010211687A6812686FEAFC
:1040D80002020A401A604FF47053C4F201034FF40D
:1040E8007052C4F2010251687A6812686FEA0202DB
:1040F8000A405A607B681B79FA68D318FB60FB6832
:10410800FA6811687A6812680A431A604FF47053A3
:10411800C4F201034FF47052C4F2010291687A6844
:1041280012686FEA02020A409A604FF47053C4F2B0
:1041380001034FF47052C4F20102D1687A68126820
:104148006FEA02020A40DA607B685B79102B1AD1A9
:104158004FF47053C4F201034FF47052C4F20102D9
:1041680091687A6812680A439A604FF47053C4F2EF
:1041780001034FF47052C4F20102D1687A681268E0
:104188000A43DA601FE04FF47053C4F20103FB6086
:104198007B685B79FA68D318FB60FB68FA6811687A
:1041A8007A6812680A431A600DE07B681B79FA681E
:1041B800D318FB60FB68FA6811687A6812686FEABE
:1041C80002020A401A6007F11407BD4680BC704716
:1041D80080B483B000AF78607B684FF000021A604B
:1041E8007B684FF000021A717B684FF00C025A711D
:1041F8007B684FF000029A7107F10C07BD4680BC3E
:10420800704700BF80B483B000AF78604FF470533C
:10421800C4F201034FF47052C4F2010211697A68C2
:104228000A431A6107F10C07BD4680BC704700BFFE
:1042380080B485B000AF78604FF00003FB734FF493
:104248007053C4F201035A697B681340002B03D0F2
:104258004FF00103FB7302E04FF00003FB73FB7B9D
:10426800184607F11407BD4680BC704780B483B078
:1042780000AF78604FF47053C4F201037A685A6152
:1042880007F10C07BD4680BC704700BF80B485B0FD
:1042980000AF78604FF00003FB734FF00003BB6082
:1042A8004FF47053C4F201031A687B681340BB6073
:1042B8004FF47053C4F201035A697B681340002B12
:1042C80006D0BB68002B03D04FF00103FB7302E05C
:1042D8004FF00003FB73FB7B184607F11407BD463C
:1042E80080BC704780B483B000AF78604FF47053DF
:1042F800C4F201037A685A6107F10C07BD4680BC15
:10430800704700BF80B582B000AF78607A684FF020
:104318000003C4F202039A420CD14FF001004FF09F
:10432800010100F0F5FE4FF001004FF0000100F030
:10433800EFFE9EE07A684FF48063C4F202039A426B
:104348000CD14FF002004FF0010100F0E1FE4FF0F8
:1043580002004FF0000100F0DBFE8AE07A684FF4BB
:104368000063C4F202039A420CD14FF004004FF0EC
:10437800010100F0CDFE4FF004004FF0000100F005
:10438800C7FE76E07A684FF44063C4F202039A42AB
:104398000CD14FF008004FF0010100F0B9FE4FF0CA
:1043A80008004FF0000100F0B3FE62E07A684FF4B5
:1043B8008053C4F202039A420CD14FF010004FF020
:1043C800010100F0A5FE4FF010004FF0000100F0D1
:1043D8009FFE4EE07A684FF4A053C4F202039A425B
:1043E8000CD14FF020004FF0010100F091FE4FF08A
:1043F80020004FF0000100F08BFE3AE07A684FF49D
:10440800C053C4F202039A420CD14FF040004FF05F
:10441800010100F07DFE4FF040004FF0000100F078
:1044280077FE26E07A684FF4E053C4F202039A421A
:104438000CD14FF080004FF0010100F069FE4FF001
:1044480080004FF0000100F063FE12E07A684FF43C
:104458000053C4F202039A420BD14FF480704FF01C
:10446800010100F055FE4FF480704FF0000100F09C
:104478004FFE07F10807BD4680BD00BF80B487B076
:1044880000AF786039604FF000037B614FF00003A4
:104498003B614FF00003FB604FF000037B6186E057
:1044A8007B694FF0010202FA03F33B613B681A682B
:1044B8003B691340FB60FA683B699A4273D17B6899
:1044C8001A687B694FEA43034FF0030101FA03F3CB
:1044D8006FEA03031A407B681A607B681A683B68B6
:1044E8001B7919467B694FEA430301FA03F31A4320
:1044F8007B681A603B681B79012B03D03B681B79EA
:10450800022B34D17B689A687B694FEA43034FF0EA
:10451800030101FA03F36FEA03031A407B689A6008
:104528007B689A683B685B7919467B694FEA430365
:1045380001FA03F31A437B689A607B685A687B69BF
:104548009BB24FF0010101FA03F36FEA03031A402B
:104558007B685A607B685A683B689B7919467B6917
:104568009BB201FA03F39BB21A437B685A607B68DB
:10457800DA687B699BB24FEA43034FF0030101FA03
:1045880003F36FEA03031A407B68DA607B68DA6832
:104598003B68DB7919467B694FEA430301FA03F369
:1045A8001A437B68DA607B6903F101037B617B69ED
:1045B8000F2B7FF675AF07F11C07BD4680BC70470F
:1045C80080B483B000AF78607B684FF6FF721A60E2
:1045D8007B684FF000021A717B684FF000025A7135
:1045E8007B684FF000029A717B684FF00002DA7125
:1045F80007F10C07BD4680BC704700BF80B485B08A
:1046080000AF78600B467B804FF48033FB607A887C
:10461800FB681343FB60FA687B68DA617A887B6819
:10462800DA61FA687B68DA617B68DB69FB607B6862
:10463800DB69FB6007F11407BD4680BC704700BF0B
:1046480080B485B000AF78600B467B804FF00003E4
:10465800FB737B681A697B881340002B03D04FF0EB
:104668000103FB7302E04FF00003FB73FB7B18466A
:1046780007F11407BD4680BC704700BF80B483B003
:1046880000AF78607B681B699BB2184607F10C077E
:10469800BD4680BC704700BF80B485B000AF78606D
:1046A8000B467B804FF00003FB737B685A697B885D
:1046B8001340002B03D04FF00103FB7302E04FF0CF
:1046C8000003FB73FB7B184607F11407BD4680BC4B
:1046D800704700BF80B483B000AF78607B685B69C7
:1046E8009BB2184607F10C07BD4680BC704700BF57
:1046F80080B483B000AF78600B467B807B687A8893
:104708001A8307F10C07BD4680BC704780B483B09C
:1047180000AF78600B467B807B687A885A8307F104
:104728000C07BD4680BC704780B483B000AF78608A
:1047380013460A467A807B707B78002B03D07B680F
:104748007A881A8302E07B687A885A8307F10C0713
:10475800BD4680BC704700BF80B483B000AF7860AE
:104768000B467B807A887B685A6107F10C07BD4647
:1047780080BC704780B483B000AF78600B467B8004
:104788007B685A697B885A407B685A6107F10C0735
:10479800BD4680BC704700BF80B485B000AF78606C
:1047A80013460A467A807B704FF00003FB604FF097
:1047B8000003BB607A787B8803F007034FEA830322
:1047C80002FA03F3FB607B884FEAD3039BB21A46D5
:1047D8007B884FEAD3039BB219467B6801F1080135
:1047E80053F821107B8803F007034FEA83034FF047
:1047F8000F0000FA03F36FEA030319407B6802F124
:10480800080243F822107B884FEAD3039BB21A466A
:104818007B6802F1080253F82220FB681343BB604F
:104828007B884FEAD3039BB21A467B6802F10802E1
:10483800B96843F8221007F11407BD4680BC7047D9
:1048480080B400AF4FF46053C4F202034FF46052D7
:10485800C4F20202126842F001021A604FF4605377
:10486800C4F202034FF000029A604FF46053C4F29E
:1048780002034FF46052C4F20202126822F08472FA
:1048880022F480321A604FF46053C4F2020343F2F8
:104898001002C2F200425A604FF46053C4F202039D
:1048A8004FF46052C4F20202126822F480221A60A5
:1048B8004FF46053C4F202034FF00002DA60BD46C1
:1048C80080BC704780B483B000AF0346FB7143F6E9
:1048D8000203C4F202034FF000021A7043F6020307
:1048E800C4F20203FA791A7007F10C07BD4680BCBE
:1048F800704700BF80B582B000AF4FF000033B6047
:104908004FF00003FB714FF00003BB714FF0310013
:1049180000F0D2FD0346BB713B6803F101033B6025
:104928003B68B3F5A06F02D0BB79002BEED04FF0F7
:10493800310000F0C1FD0346002B03D04FF0010306
:10494800FB7102E04FF00003FB71FB79184607F199
:104958000807BD4680BD00BF80B485B000AF0346E0
:10496800FB714FF00003FB604FF46053C4F2020385
:104978001B68FB60FB6823F0F803FB60FB794FEAD8
:10498800C303FA681343FB604FF46053C4F2020395
:10499800FA681A6007F11407BD4680BC704700BF6B
:1049A80080B483B000AF0346FB714FF00003C4F23C
:1049B8004723FA791A6007F10C07BD4680BC704797
:1049C80080B483B000AF0346FB7143F67003C4F2B2
:1049D80002034FF000021A7043F67003C4F2020398
:1049E8004FF000021A70FB79012B02D0042B08D07B
:1049F8000FE043F67003C4F202034FF001021A708D
:104A080008E043F67003C4F202034FF005021A707F
:104A180000E000BF07F10C07BD4680BC704700BF2F
:104A280080B483B000AF0346FB714FF46863C4F2EF
:104A38004723FA791A6007F10C07BD4680BC704716
:104A480080B485B000AFF860B9607A603B604FF41D
:104A58006053C4F202037A684FEA8211BA681143BC
:104A68003A684FEA520202F1FF324FEA024211431A
:104A7800FA681143BA694FEA02620A435A6007F1B9
:104A88001407BD4680BC704780B483B000AF0346AE
:104A9800FB714FF06003C4F24723FA791A6007F1FB
:104AA8000C07BD4680BC704780B483B000AF786007
:104AB80039604FF46053C4F202037A684FEA8211F6
:104AC8003A684FEA02720A43C3F8842007F10C07D8
:104AD800BD4680BC704700BF80B483B000AF0346BA
:104AE800FB714FF06803C4F24723FA791A6007F1A3
:104AF8000C07BD4680BC704780B483B000AF034646
:104B0800FB714FF04C03C4F24723FA791A6007F19E
:104B18000C07BD4680BC704780B485B000AF786094
:104B280039604FF00003FB604FF46053C4F2020396
:104B38009B68FB60FB6823F0EC63FB607A683B686A
:104B48001343FA681343FB604FF46053C4F2020343
:104B5800FA689A6007F11407BD4680BC704700BF29
:104B680080B485B000AF786039604FF00003FB6017
:104B78004FF46053C4F202039B68FB60FB6823F0A8
:104B88007843FB607A683B681343FA681343FB6019
:104B98004FF46053C4F20203FA689A6007F11407ED
:104BA800BD4680BC704700BF80B485B000AF786058
:104BB8004FF00003FB604FF46053C4F202039B689C
:104BC800FB60FB6823F00303FB60FA687B68134310
:104BD800FB604FF46053C4F20203FA689A6007F16D
:104BE8001407BD4680BC704780B400AF4FF46053D3
:104BF800C4F202039B68DBB203F00C03DBB2184675
:104C0800BD4680BC704700BF80B485B000AF7860F7
:104C18004FF00003FB604FF46053C4F202039B683B
:104C2800FB60FB6823F0F003FB60FA687B681343C2
:104C3800FB604FF46053C4F20203FA689A6007F10C
:104C48001407BD4680BC704780B485B000AF78605B
:104C58004FF00003FB604FF46053C4F202039B68FB
:104C6800FB60FB6823F4E053FB60FA687B6813433E
:104C7800FB604FF46053C4F20203FA689A6007F1CC
:104C88001407BD4680BC704780B485B000AF78601B
:104C98004FF00003FB604FF46053C4F202039B68BB
:104CA800FB60FB6823F46043FB607B684FEAC30347
:104CB800FA681343FB604FF46053C4F20203FA68C6
:104CC8009A6007F11407BD4680BC704780B489B06C
:104CD80000AF78604FF00003BB614FF000037B61C9
:104CE8004FF00003FB614FF002033B614FF00003FC
:104CF800FB604FF00203BB604FF46053C4F2020341
:104D08009B6803F00C03BB61BB69042B0AD0082B1A
:104D18000FD0002B60D17A684FF41053C0F2F4031F
:104D2800136060E07A684FF49053C0F27A0313601E
:104D380059E04FF46053C4F202035B6803F4800344
:104D48004FEA9353FB604FF46053C4F202035B686D
:104D580003F03F03BB60FB68002B14D04FF4905363
:104D6800C0F27A03BA68B3FBF2F24FF46053C4F2AC
:104D78000203596847F6C0730B404FEA931303FBCD
:104D880002F3FB6113E04FF41053C0F2F403BA6866
:104D9800B3FBF2F24FF46053C4F20203596847F6CA
:104DA800C0730B404FEA931303FB02F3FB614FF40C
:104DB8006053C4F202035B6803F440334FEA1343C1
:104DC80003F101034FEA43033B61FA693B69B2FB14
:104DD800F3F27B681A6006E07A684FF41053C0F269
:104DE800F403136000BF4FF46053C4F202039B68DE
:104DF80003F0F003BB61BB694FEA1313BB6140F2D8
:104E08001803C2F20003BA699B181B78DBB27B61F6
:104E18007B681A687B6922FA03F27B685A604FF450
:104E28006053C4F202039B6803F4E053BB61BB699F
:104E38004FEA9323BB6140F21803C2F20003BA6938
:104E48009B181B78DBB27B617B685A687B6922FA06
:104E580003F27B689A604FF46053C4F202039B68C4
:104E680003F46043BB61BB694FEA5333BB6140F253
:104E78001803C2F20003BA699B181B78DBB27B6186
:104E88007B685A687B6922FA03F27B68DA6007F16B
:104E98002407BD4680BC704780B485B000AF7860F9
:104EA8004FF00003FB607B6803F44073B3F5407F69
:104EB80017D14FF46053C4F202039B68FB60FB6890
:104EC80023F4F813FB607B6823F0704323F44073EA
:104ED800FA681343FB604FF46053C4F20203FA68A4
:104EE8009A604FF46053C4F202034FF46052C4F264
:104EF8000202116F7A684FEA02524FEA12520A43CD
:104F08001A6707F11407BD4680BC704780B483B0A8
:104F180000AF0346FB7140F63C63C4F24723FA79BD
:104F28001A6007F10C07BD4680BC704780B483B097
:104F380000AF0346FB714FF46463C4F24723FA7968
:104F48001A6007F10C07BD4680BC704780B483B077
:104F580000AF78604FF4AE73C4F247237A681A60E2
:104F680007F10C07BD4680BC704700BF80B483B012
:104F780000AF78600B46FB70FB78002B0CD04FF429
:104F88006053C4F202034FF46052C4F20202116B80
:104F98007A680A431A630DE04FF46053C4F20203BF
:104FA8004FF46052C4F20202116B7A686FEA02028F
:104FB8000A401A6307F10C07BD4680BC704700BF62
:104FC80080B483B000AF78600B46FB70FB78002B91
:104FD8000CD04FF46053C4F202034FF46052C4F291
:104FE8000202516B7A680A435A630DE04FF460532A
:104FF800C4F202034FF46052C4F20202516B7A68A1
:105008006FEA02020A405A6307F10C07BD4680BCEA
:10501800704700BF80B483B000AF78600B46FB7068
:10502800FB78002B0CD04FF46053C4F202034FF40A
:105038006052C4F20202916B7A680A439A630DE0E7
:105048004FF46053C4F202034FF46052C4F20202F8
:10505800916B7A686FEA02020A409A6307F10C07BB
:10506800BD4680BC704700BF80B483B000AF786095
:105078000B46FB70FB78002B0CD04FF46053C4F246
:1050880002034FF46052C4F20202116C7A680A43B8
:105098001A640DE04FF46053C4F202034FF46052F7
:1050A800C4F20202116C7A686FEA02020A401A64BA
:1050B80007F10C07BD4680BC704700BF80B483B0C1
:1050C80000AF78600B46FB70FB78002B0CD04FF4D8
:1050D8006053C4F202034FF46052C4F20202516CEE
:1050E8007A680A435A640DE04FF46053C4F202032D
:1050F8004FF46052C4F20202516C7A686FEA0202FD
:105108000A405A6407F10C07BD4680BC704700BFCF
:1051180080B483B000AF78600B46FB70FB78002B3F
:105128000CD04FF46053C4F202034FF46052C4F23F
:10513800020211697A680A431A610DE04FF460535C
:10514800C4F202034FF46052C4F2020211697A6891
:105158006FEA02020A401A6107F10C07BD4680BCDB
:10516800704700BF80B483B000AF78600B46FB7017
:10517800FB78002B0CD04FF46053C4F202034FF4B9
:105188006052C4F2020251697A680A435A610DE01A
:105198004FF46053C4F202034FF46052C4F20202A7
:1051A80051697A686FEA02020A405A6107F10C07EE
:1051B800BD4680BC704700BF80B483B000AF786044
:1051C8000B46FB70FB78002B0CD04FF46053C4F2F5
:1051D80002034FF46052C4F2020291697A680A43EA
:1051E8009A610DE04FF46053C4F202034FF4605229
:1051F800C4F2020291697A686FEA02020A409A616F
:1052080007F10C07BD4680BC704700BF80B483B06F
:1052180000AF78600B46FB70FB78002B0CD04FF486
:105228006053C4F202034FF46052C4F20202116ADE
:105238007A680A431A620DE04FF46053C4F202031D
:105248004FF46052C4F20202116A7A686FEA0202ED
:105258000A401A6207F10C07BD4680BC704700BFC0
:1052680080B483B000AF78600B46FB70FB78002BEE
:105278000CD04FF46053C4F202034FF46052C4F2EE
:105288000202516A7A680A435A620DE04FF4605389
:10529800C4F202034FF46052C4F20202516A7A68FF
:1052A8006FEA02020A405A6207F10C07BD4680BC49
:1052B800704700BF80B483B000AF78600B46FB70C6
:1052C800FB78002B0CD04FF46053C4F202034FF468
:1052D8006052C4F20202116D7A680A431A650DE041
:1052E8004FF46053C4F202034FF46052C4F2020256
:1052F800116D7A686FEA02020A401A6507F10C0715
:10530800BD4680BC704700BF80B483B000AF7860F2
:105318000B46FB70FB78002B0CD04FF46053C4F2A3
:1053280002034FF46052C4F20202516D7A680A43D4
:105338005A650DE04FF46053C4F202034FF4605213
:10534800C4F20202516D7A686FEA02020A405A6595
:1053580007F10C07BD4680BC704700BF80B483B01E
:1053680000AF78600B46FB70FB78002B0CD04FF435
:105378006053C4F202034FF46052C4F20202916D0A
:105388007A680A439A650DE04FF46053C4F2020349
:105398004FF46052C4F20202916D7A686FEA020219
:1053A8000A409A6507F10C07BD4680BC704700BFEC
:1053B80080B483B000AF78600B46FB70FB78002B9D
:1053C8000CD04FF46053C4F202034FF46052C4F29D
:1053D8000202116E7A680A431A660DE04FF46053B0
:1053E800C4F202034FF46052C4F20202116E7A68EA
:1053F8006FEA02020A401A6607F10C07BD4680BC34
:10540800704700BF80B483B000AF78600B46FB7074
:10541800FB78002B0CD04FF46053C4F202034FF416
:105428006052C4F20202516E7A680A435A660DE06D
:105438004FF46053C4F202034FF46052C4F2020204
:10544800516E7A686FEA02020A405A6607F10C0741
:10545800BD4680BC704700BF80B483B000AF024631
:105468000B46FA71BB71BB79002B0ED043F60D03C6
:10547800C4F2020343F60D02C4F202021278D1B25A
:10548800FA790A43D2B21A7010E043F60D03C4F257
:10549800020343F60D02C4F202021278D1B2FA797D
:1054A8006FEA0202D2B20A40D2B21A7007F10C07B0
:1054B800BD4680BC704700BF80B487B000AF0346CC
:1054C800FB714FF00003FB604FF000037B614FF06E
:1054D8000003FB74FB794FEA5313DBB2FB60FB68F4
:1054E800012B06D14FF46053C4F202031B687B61A1
:1054F8000FE0FB68022B06D14FF46053C4F202039D
:105508001B6F7B6105E04FF46053C4F202035B6FCD
:105518007B61FB7903F01F03FB60FB687A6922FA61
:1055280003F303F00103002B03D04FF00103FB74D6
:1055380002E04FF00003FB74FB7C184607F11C07E0
:10554800BD4680BC704700BF80B400AF4FF46053C5
:10555800C4F202034FF46052C4F20202526F42F0E6
:1055680080725A67BD4680BC704700BF80B485B062
:1055780000AF0346FB714FF00003FB734FF4605319
:10558800C4F20203DA68FB791340002B03D04FF012
:105598000103FB7302E04FF00003FB73FB7B18462B
:1055A80007F11407BD4680BC704700BF80B483B0C4
:1055B80000AF0346FB7143F60E03C4F20203FA7907
:1055C8001A7007F10C07BD4680BC704780B483B0E1
:1055D80000AF78604FF46D43CEF200037A6842F072
:1055E800BF6242F40032DA6007F10C07BD4680BCA6
:1055F800704700BF80B485B000AF78604FF00003FB
:10560800FB734FF00003BB734FF00F037B737B6892
:10561800DB78002B45D04FF46D43CEF20003DB68F6
:105628006FEA030303F4E0634FEA1323FB73FB7B86
:10563800C3F10403BB737A7BFB7B42FA03F37B73EE
:105648007B685B781A46BB7B02FA03F3FB737B68C3
:105658009A787B7B1340DAB2FB7B1343FB73FB7BAB
:105668004FEA0313FB734FF46143CEF200037A68E9
:1056780012789B18FA7B83F800234FF46143CEF22B
:1056880000037A6812784FEA5212D2B27968097820
:1056980001F01F014FF0010000FA01F143F8221058
:1056A80014E04FF46143CEF200037A6812784FEAAF
:1056B8005212D2B27968097801F01F014FF0010047
:1056C80000FA01F102F1200243F8221007F1140751
:1056D800BD4680BC704700BF80B483B000AF78601F
:1056E80039604FF46D43CEF200033A6822F060420D
:1056F80022F07F0279680A439A6007F10C07BD46D9
:1057080080BC704780B483B000AF02460B46FA7184
:10571800BB71BB79002B0CD04FF46D43CEF2000364
:105728004FF46D42CEF200021169FA790A431A6108
:105738000DE04FF46D43CEF200034FF46D42CEF20C
:1057480000021169FA796FEA02020A401A6107F148
:105758000C07BD4680BC704780B483B000AF78604A
:105768007B68042B0CD14EF21003CEF200034EF2EC
:105778001002CEF20002126842F004021A600BE036
:105788004EF21003CEF200034EF21002CEF20002E7
:10579800126822F004021A6007F10C07BD4680BCAB
:1057A800704700BF80B500AF4FF480404FF0010153
:1057B800FFF756FD4FF480404FF00001FFF750FD12
:1057C80080BD00BF80B483B000AF0346FB714FF4C7
:1057D8006053C4F20103FA791A6007F10C07BD4659
:1057E80080BC704790B484B000AF02460B46FA7193
:1057F800BB714FF00003FB60BB7903F003034FEA72
:1058080083034FF00F0202FA03F3FB604FF4605377
:10581800C4F20103BA794FEA9202D2B210464FF4A9
:105828006052C4F20102B9794FEA9101C9B201F19B
:10583800020152F82110FA686FEA0202114000F1E1
:10584800020243F822104FF46053C4F20103BA79FC
:105858004FEA9202D2B210464FF46052C4F20102EB
:10586800B9794FEA9101C9B201F1020152F8211048
:10587800FC79BA7902F003024FEA820204FA02F2D2
:10588800114300F1020243F8221007F11007BD4648
:1058980090BC704780B483B000AF78604FF0DC03F1
:1058A800C4F227237A681A6007F10C07BD4680BC4A
:1058B800704700BF80B483B000AF0346FB714FF45C
:1058C8008063C4F22723FA791A6007F10C07BD46F2
:1058D80080BC704780B483B000AF4FF00003FB7109
:1058E8004FF46053C4F201031B6A03F48073002B66
:1058F80003D04FF00103FB7102E04FF00003FB718E
:10590800FB79184607F10C07BD4680BC704700BFFD
:1059180080B500AF4FF400604FF00101FFF7A0FC25
:105928004FF400604FF00001FFF79AFC80BD00BF04
:1059380080B485B000AF78604FF00003FB604FF48F
:105948003053C4F201035B68FB60FB6823F4FD433A
:1059580023F07F03FB607B681B7D1A467B689B688E
:105968001A437B685B681A437B68DB681A437B6869
:105978001B681A437B681B691343FA681343FB606F
:105988004FF43053C4F20103FA685A6007F1140760
:10599800BD4680BC704700BF80B483B000AF78605C
:1059A8007B684FF000021A757B684FF000021A609E
:1059B8007B684FF000025A607B684FF000029A60E3
:1059C8007B684FF00002DA607B684FF000021A61D2
:1059D80007F10C07BD4680BC704700BF80B483B098
:1059E80000AF0346FB7148F2A003C4F22523FA79FD
:1059F8001A6007F10C07BD4680BC704780B483B0BD
:105A080000AF78604FF43053C4F201037A681A602B
:105A180007F10C07BD4680BC704700BF80B400AFDB
:105A28004FF43053C4F201031B6803F00303184614
:105A3800BD4680BC704700BF80B485B000AF7860B9
:105A48004FF00003FB604FF43053C4F201037A684F
:105A580012689A604FF43053C4F20103DB68FB60AC
:105A6800FB6823F4FF6323F00703FB607B685A6835
:105A78007B689B681A437B68DB681A437B681B69F1
:105A88001343FA681343FB604FF43053C4F2010325
:105A9800FA68DA6007F11407BD4680BC704700BF9A
:105AA80080B483B000AF78607B684FF000021A6062
:105AB8007B684FF000025A607B684FF000029A60E2
:105AC8007B684FF00002DA607B684FF000021A61D1
